
adc.elf:     file format elf32-littlearm

Sections:
Idx Name          Size      VMA       LMA       File off  Algn
  0 .isr_vector   00000188  08000000  08000000  00010000  2**0
                  CONTENTS, ALLOC, LOAD, READONLY, DATA
  1 .text         000031cc  08000188  08000188  00010188  2**2
                  CONTENTS, ALLOC, LOAD, READONLY, CODE
  2 .rodata       00000030  08003354  08003354  00013354  2**2
                  CONTENTS, ALLOC, LOAD, READONLY, DATA
  3 .ARM.extab    00000000  08003384  08003384  0002000c  2**0
                  CONTENTS
  4 .ARM          00000000  08003384  08003384  0002000c  2**0
                  CONTENTS
  5 .preinit_array 00000000  08003384  08003384  0002000c  2**0
                  CONTENTS, ALLOC, LOAD, DATA
  6 .init_array   00000004  08003384  08003384  00013384  2**2
                  CONTENTS, ALLOC, LOAD, DATA
  7 .fini_array   00000004  08003388  08003388  00013388  2**2
                  CONTENTS, ALLOC, LOAD, DATA
  8 .data         0000000c  20000000  0800338c  00020000  2**2
                  CONTENTS, ALLOC, LOAD, DATA
  9 .bss          00000074  2000000c  08003398  0002000c  2**2
                  ALLOC
 10 ._user_heap_stack 00000600  20000080  08003398  00020080  2**0
                  ALLOC
 11 .ARM.attributes 00000030  00000000  00000000  0002000c  2**0
                  CONTENTS, READONLY
 12 .debug_info   00007cda  00000000  00000000  0002003c  2**0
                  CONTENTS, READONLY, DEBUGGING
 13 .debug_abbrev 00001495  00000000  00000000  00027d16  2**0
                  CONTENTS, READONLY, DEBUGGING
 14 .debug_aranges 00000658  00000000  00000000  000291b0  2**3
                  CONTENTS, READONLY, DEBUGGING
 15 .debug_ranges 000005a0  00000000  00000000  00029808  2**3
                  CONTENTS, READONLY, DEBUGGING
 16 .debug_macro  0001668d  00000000  00000000  00029da8  2**0
                  CONTENTS, READONLY, DEBUGGING
 17 .debug_line   000066ee  00000000  00000000  00040435  2**0
                  CONTENTS, READONLY, DEBUGGING
 18 .debug_str    00080c12  00000000  00000000  00046b23  2**0
                  CONTENTS, READONLY, DEBUGGING
 19 .comment      0000007b  00000000  00000000  000c7735  2**0
                  CONTENTS, READONLY
 20 .debug_frame  0000184c  00000000  00000000  000c77b0  2**2
                  CONTENTS, READONLY, DEBUGGING

Disassembly of section .text:

08000188 <__do_global_dtors_aux>:
 8000188:	b510      	push	{r4, lr}
 800018a:	4c05      	ldr	r4, [pc, #20]	; (80001a0 <__do_global_dtors_aux+0x18>)
 800018c:	7823      	ldrb	r3, [r4, #0]
 800018e:	b933      	cbnz	r3, 800019e <__do_global_dtors_aux+0x16>
 8000190:	4b04      	ldr	r3, [pc, #16]	; (80001a4 <__do_global_dtors_aux+0x1c>)
 8000192:	b113      	cbz	r3, 800019a <__do_global_dtors_aux+0x12>
 8000194:	4804      	ldr	r0, [pc, #16]	; (80001a8 <__do_global_dtors_aux+0x20>)
 8000196:	f3af 8000 	nop.w
 800019a:	2301      	movs	r3, #1
 800019c:	7023      	strb	r3, [r4, #0]
 800019e:	bd10      	pop	{r4, pc}
 80001a0:	2000000c 	.word	0x2000000c
 80001a4:	00000000 	.word	0x00000000
 80001a8:	0800333c 	.word	0x0800333c

080001ac <frame_dummy>:
 80001ac:	b508      	push	{r3, lr}
 80001ae:	4b03      	ldr	r3, [pc, #12]	; (80001bc <frame_dummy+0x10>)
 80001b0:	b11b      	cbz	r3, 80001ba <frame_dummy+0xe>
 80001b2:	4903      	ldr	r1, [pc, #12]	; (80001c0 <frame_dummy+0x14>)
 80001b4:	4803      	ldr	r0, [pc, #12]	; (80001c4 <frame_dummy+0x18>)
 80001b6:	f3af 8000 	nop.w
 80001ba:	bd08      	pop	{r3, pc}
 80001bc:	00000000 	.word	0x00000000
 80001c0:	20000010 	.word	0x20000010
 80001c4:	0800333c 	.word	0x0800333c

080001c8 <main>:
/**
  * @brief  The application entry point.
  * @retval int
  */
int main(void)
{
 80001c8:	b580      	push	{r7, lr}
 80001ca:	af00      	add	r7, sp, #0
  

  /* MCU Configuration--------------------------------------------------------*/

  /* Reset of all peripherals, Initializes the Flash interface and the Systick. */
  HAL_Init();
 80001cc:	f000 fa16 	bl	80005fc <HAL_Init>
  /* USER CODE BEGIN Init */

  /* USER CODE END Init */

  /* Configure the system clock */
  SystemClock_Config();
 80001d0:	f000 f816 	bl	8000200 <SystemClock_Config>
  /* USER CODE BEGIN SysInit */

  /* USER CODE END SysInit */

  /* Initialize all configured peripherals */
  MX_GPIO_Init();
 80001d4:	f000 f8dc 	bl	8000390 <MX_GPIO_Init>
  MX_ADC1_Init();
 80001d8:	f000 f86a 	bl	80002b0 <MX_ADC1_Init>
  /* USER CODE BEGIN 2 */
  HAL_ADC_Start_IT(&hadc1);
 80001dc:	4806      	ldr	r0, [pc, #24]	; (80001f8 <main+0x30>)
 80001de:	f000 fc3b 	bl	8000a58 <HAL_ADC_Start_IT>
  while (1)
  {
    /* USER CODE END WHILE */

    /* USER CODE BEGIN 3 */
	  HAL_GPIO_TogglePin(GPIOB, GPIO_PIN_3);
 80001e2:	2108      	movs	r1, #8
 80001e4:	4805      	ldr	r0, [pc, #20]	; (80001fc <main+0x34>)
 80001e6:	f001 fe4f 	bl	8001e88 <HAL_GPIO_TogglePin>
	  HAL_Delay(100);
 80001ea:	2064      	movs	r0, #100	; 0x64
 80001ec:	f000 fa6c 	bl	80006c8 <HAL_Delay>
	  HAL_ADC_Start_IT(&hadc1);
 80001f0:	4801      	ldr	r0, [pc, #4]	; (80001f8 <main+0x30>)
 80001f2:	f000 fc31 	bl	8000a58 <HAL_ADC_Start_IT>
	  HAL_GPIO_TogglePin(GPIOB, GPIO_PIN_3);
 80001f6:	e7f4      	b.n	80001e2 <main+0x1a>
 80001f8:	20000028 	.word	0x20000028
 80001fc:	48000400 	.word	0x48000400

08000200 <SystemClock_Config>:
/**
  * @brief System Clock Configuration
  * @retval None
  */
void SystemClock_Config(void)
{
 8000200:	b580      	push	{r7, lr}
 8000202:	b096      	sub	sp, #88	; 0x58
 8000204:	af00      	add	r7, sp, #0
  RCC_OscInitTypeDef RCC_OscInitStruct = {0};
 8000206:	f107 0330 	add.w	r3, r7, #48	; 0x30
 800020a:	2228      	movs	r2, #40	; 0x28
 800020c:	2100      	movs	r1, #0
 800020e:	4618      	mov	r0, r3
 8000210:	f003 f88c 	bl	800332c <memset>
  RCC_ClkInitTypeDef RCC_ClkInitStruct = {0};
 8000214:	f107 031c 	add.w	r3, r7, #28
 8000218:	2200      	movs	r2, #0
 800021a:	601a      	str	r2, [r3, #0]
 800021c:	605a      	str	r2, [r3, #4]
 800021e:	609a      	str	r2, [r3, #8]
 8000220:	60da      	str	r2, [r3, #12]
 8000222:	611a      	str	r2, [r3, #16]
  RCC_PeriphCLKInitTypeDef PeriphClkInit = {0};
 8000224:	1d3b      	adds	r3, r7, #4
 8000226:	2200      	movs	r2, #0
 8000228:	601a      	str	r2, [r3, #0]
 800022a:	605a      	str	r2, [r3, #4]
 800022c:	609a      	str	r2, [r3, #8]
 800022e:	60da      	str	r2, [r3, #12]
 8000230:	611a      	str	r2, [r3, #16]
 8000232:	615a      	str	r2, [r3, #20]

  /** Initializes the CPU, AHB and APB busses clocks 
  */
  RCC_OscInitStruct.OscillatorType = RCC_OSCILLATORTYPE_HSI;
 8000234:	2302      	movs	r3, #2
 8000236:	633b      	str	r3, [r7, #48]	; 0x30
  RCC_OscInitStruct.HSIState = RCC_HSI_ON;
 8000238:	2301      	movs	r3, #1
 800023a:	643b      	str	r3, [r7, #64]	; 0x40
  RCC_OscInitStruct.HSICalibrationValue = RCC_HSICALIBRATION_DEFAULT;
 800023c:	2310      	movs	r3, #16
 800023e:	647b      	str	r3, [r7, #68]	; 0x44
  RCC_OscInitStruct.PLL.PLLState = RCC_PLL_ON;
 8000240:	2302      	movs	r3, #2
 8000242:	64fb      	str	r3, [r7, #76]	; 0x4c
  RCC_OscInitStruct.PLL.PLLSource = RCC_PLLSOURCE_HSI;
 8000244:	2300      	movs	r3, #0
 8000246:	653b      	str	r3, [r7, #80]	; 0x50
  RCC_OscInitStruct.PLL.PLLMUL = RCC_PLL_MUL4;
 8000248:	f44f 2300 	mov.w	r3, #524288	; 0x80000
 800024c:	657b      	str	r3, [r7, #84]	; 0x54
  if (HAL_RCC_OscConfig(&RCC_OscInitStruct) != HAL_OK)
 800024e:	f107 0330 	add.w	r3, r7, #48	; 0x30
 8000252:	4618      	mov	r0, r3
 8000254:	f001 fe32 	bl	8001ebc <HAL_RCC_OscConfig>
 8000258:	4603      	mov	r3, r0
 800025a:	2b00      	cmp	r3, #0
 800025c:	d001      	beq.n	8000262 <SystemClock_Config+0x62>
  {
    Error_Handler();
 800025e:	f000 f8e5 	bl	800042c <Error_Handler>
  }
  /** Initializes the CPU, AHB and APB busses clocks 
  */
  RCC_ClkInitStruct.ClockType = RCC_CLOCKTYPE_HCLK|RCC_CLOCKTYPE_SYSCLK
 8000262:	230f      	movs	r3, #15
 8000264:	61fb      	str	r3, [r7, #28]
                              |RCC_CLOCKTYPE_PCLK1|RCC_CLOCKTYPE_PCLK2;
  RCC_ClkInitStruct.SYSCLKSource = RCC_SYSCLKSOURCE_HSI;
 8000266:	2300      	movs	r3, #0
 8000268:	623b      	str	r3, [r7, #32]
  RCC_ClkInitStruct.AHBCLKDivider = RCC_SYSCLK_DIV1;
 800026a:	2300      	movs	r3, #0
 800026c:	627b      	str	r3, [r7, #36]	; 0x24
  RCC_ClkInitStruct.APB1CLKDivider = RCC_HCLK_DIV1;
 800026e:	2300      	movs	r3, #0
 8000270:	62bb      	str	r3, [r7, #40]	; 0x28
  RCC_ClkInitStruct.APB2CLKDivider = RCC_HCLK_DIV1;
 8000272:	2300      	movs	r3, #0
 8000274:	62fb      	str	r3, [r7, #44]	; 0x2c

  if (HAL_RCC_ClockConfig(&RCC_ClkInitStruct, FLASH_LATENCY_0) != HAL_OK)
 8000276:	f107 031c 	add.w	r3, r7, #28
 800027a:	2100      	movs	r1, #0
 800027c:	4618      	mov	r0, r3
 800027e:	f002 fd25 	bl	8002ccc <HAL_RCC_ClockConfig>
 8000282:	4603      	mov	r3, r0
 8000284:	2b00      	cmp	r3, #0
 8000286:	d001      	beq.n	800028c <SystemClock_Config+0x8c>
  {
    Error_Handler();
 8000288:	f000 f8d0 	bl	800042c <Error_Handler>
  }
  PeriphClkInit.PeriphClockSelection = RCC_PERIPHCLK_ADC12;
 800028c:	2380      	movs	r3, #128	; 0x80
 800028e:	607b      	str	r3, [r7, #4]
  PeriphClkInit.Adc12ClockSelection = RCC_ADC12PLLCLK_DIV1;
 8000290:	f44f 7380 	mov.w	r3, #256	; 0x100
 8000294:	617b      	str	r3, [r7, #20]
  if (HAL_RCCEx_PeriphCLKConfig(&PeriphClkInit) != HAL_OK)
 8000296:	1d3b      	adds	r3, r7, #4
 8000298:	4618      	mov	r0, r3
 800029a:	f002 fefd 	bl	8003098 <HAL_RCCEx_PeriphCLKConfig>
 800029e:	4603      	mov	r3, r0
 80002a0:	2b00      	cmp	r3, #0
 80002a2:	d001      	beq.n	80002a8 <SystemClock_Config+0xa8>
  {
    Error_Handler();
 80002a4:	f000 f8c2 	bl	800042c <Error_Handler>
  }
}
 80002a8:	bf00      	nop
 80002aa:	3758      	adds	r7, #88	; 0x58
 80002ac:	46bd      	mov	sp, r7
 80002ae:	bd80      	pop	{r7, pc}

080002b0 <MX_ADC1_Init>:
  * @brief ADC1 Initialization Function
  * @param None
  * @retval None
  */
static void MX_ADC1_Init(void)
{
 80002b0:	b580      	push	{r7, lr}
 80002b2:	b08a      	sub	sp, #40	; 0x28
 80002b4:	af00      	add	r7, sp, #0

  /* USER CODE BEGIN ADC1_Init 0 */

  /* USER CODE END ADC1_Init 0 */

  ADC_MultiModeTypeDef multimode = {0};
 80002b6:	f107 031c 	add.w	r3, r7, #28
 80002ba:	2200      	movs	r2, #0
 80002bc:	601a      	str	r2, [r3, #0]
 80002be:	605a      	str	r2, [r3, #4]
 80002c0:	609a      	str	r2, [r3, #8]
  ADC_ChannelConfTypeDef sConfig = {0};
 80002c2:	1d3b      	adds	r3, r7, #4
 80002c4:	2200      	movs	r2, #0
 80002c6:	601a      	str	r2, [r3, #0]
 80002c8:	605a      	str	r2, [r3, #4]
 80002ca:	609a      	str	r2, [r3, #8]
 80002cc:	60da      	str	r2, [r3, #12]
 80002ce:	611a      	str	r2, [r3, #16]
 80002d0:	615a      	str	r2, [r3, #20]
  /* USER CODE BEGIN ADC1_Init 1 */

  /* USER CODE END ADC1_Init 1 */
  /** Common config 
  */
  hadc1.Instance = ADC1;
 80002d2:	4b2e      	ldr	r3, [pc, #184]	; (800038c <MX_ADC1_Init+0xdc>)
 80002d4:	f04f 42a0 	mov.w	r2, #1342177280	; 0x50000000
 80002d8:	601a      	str	r2, [r3, #0]
  hadc1.Init.ClockPrescaler = ADC_CLOCK_ASYNC_DIV1;
 80002da:	4b2c      	ldr	r3, [pc, #176]	; (800038c <MX_ADC1_Init+0xdc>)
 80002dc:	2200      	movs	r2, #0
 80002de:	605a      	str	r2, [r3, #4]
  hadc1.Init.Resolution = ADC_RESOLUTION_8B;
 80002e0:	4b2a      	ldr	r3, [pc, #168]	; (800038c <MX_ADC1_Init+0xdc>)
 80002e2:	2210      	movs	r2, #16
 80002e4:	609a      	str	r2, [r3, #8]
  hadc1.Init.ScanConvMode = ADC_SCAN_DISABLE;
 80002e6:	4b29      	ldr	r3, [pc, #164]	; (800038c <MX_ADC1_Init+0xdc>)
 80002e8:	2200      	movs	r2, #0
 80002ea:	611a      	str	r2, [r3, #16]
  hadc1.Init.ContinuousConvMode = DISABLE;
 80002ec:	4b27      	ldr	r3, [pc, #156]	; (800038c <MX_ADC1_Init+0xdc>)
 80002ee:	2200      	movs	r2, #0
 80002f0:	765a      	strb	r2, [r3, #25]
  hadc1.Init.DiscontinuousConvMode = DISABLE;
 80002f2:	4b26      	ldr	r3, [pc, #152]	; (800038c <MX_ADC1_Init+0xdc>)
 80002f4:	2200      	movs	r2, #0
 80002f6:	f883 2020 	strb.w	r2, [r3, #32]
  hadc1.Init.ExternalTrigConvEdge = ADC_EXTERNALTRIGCONVEDGE_NONE;
 80002fa:	4b24      	ldr	r3, [pc, #144]	; (800038c <MX_ADC1_Init+0xdc>)
 80002fc:	2200      	movs	r2, #0
 80002fe:	62da      	str	r2, [r3, #44]	; 0x2c
  hadc1.Init.ExternalTrigConv = ADC_SOFTWARE_START;
 8000300:	4b22      	ldr	r3, [pc, #136]	; (800038c <MX_ADC1_Init+0xdc>)
 8000302:	2201      	movs	r2, #1
 8000304:	629a      	str	r2, [r3, #40]	; 0x28
  hadc1.Init.DataAlign = ADC_DATAALIGN_RIGHT;
 8000306:	4b21      	ldr	r3, [pc, #132]	; (800038c <MX_ADC1_Init+0xdc>)
 8000308:	2200      	movs	r2, #0
 800030a:	60da      	str	r2, [r3, #12]
  hadc1.Init.NbrOfConversion = 1;
 800030c:	4b1f      	ldr	r3, [pc, #124]	; (800038c <MX_ADC1_Init+0xdc>)
 800030e:	2201      	movs	r2, #1
 8000310:	61da      	str	r2, [r3, #28]
  hadc1.Init.DMAContinuousRequests = DISABLE;
 8000312:	4b1e      	ldr	r3, [pc, #120]	; (800038c <MX_ADC1_Init+0xdc>)
 8000314:	2200      	movs	r2, #0
 8000316:	f883 2030 	strb.w	r2, [r3, #48]	; 0x30
  hadc1.Init.EOCSelection = ADC_EOC_SINGLE_CONV;
 800031a:	4b1c      	ldr	r3, [pc, #112]	; (800038c <MX_ADC1_Init+0xdc>)
 800031c:	2204      	movs	r2, #4
 800031e:	615a      	str	r2, [r3, #20]
  hadc1.Init.LowPowerAutoWait = DISABLE;
 8000320:	4b1a      	ldr	r3, [pc, #104]	; (800038c <MX_ADC1_Init+0xdc>)
 8000322:	2200      	movs	r2, #0
 8000324:	761a      	strb	r2, [r3, #24]
  hadc1.Init.Overrun = ADC_OVR_DATA_OVERWRITTEN;
 8000326:	4b19      	ldr	r3, [pc, #100]	; (800038c <MX_ADC1_Init+0xdc>)
 8000328:	2200      	movs	r2, #0
 800032a:	635a      	str	r2, [r3, #52]	; 0x34
  if (HAL_ADC_Init(&hadc1) != HAL_OK)
 800032c:	4817      	ldr	r0, [pc, #92]	; (800038c <MX_ADC1_Init+0xdc>)
 800032e:	f000 fa01 	bl	8000734 <HAL_ADC_Init>
 8000332:	4603      	mov	r3, r0
 8000334:	2b00      	cmp	r3, #0
 8000336:	d001      	beq.n	800033c <MX_ADC1_Init+0x8c>
  {
    Error_Handler();
 8000338:	f000 f878 	bl	800042c <Error_Handler>
  }
  /** Configure the ADC multi-mode 
  */
  multimode.Mode = ADC_MODE_INDEPENDENT;
 800033c:	2300      	movs	r3, #0
 800033e:	61fb      	str	r3, [r7, #28]
  if (HAL_ADCEx_MultiModeConfigChannel(&hadc1, &multimode) != HAL_OK)
 8000340:	f107 031c 	add.w	r3, r7, #28
 8000344:	4619      	mov	r1, r3
 8000346:	4811      	ldr	r0, [pc, #68]	; (800038c <MX_ADC1_Init+0xdc>)
 8000348:	f001 f97e 	bl	8001648 <HAL_ADCEx_MultiModeConfigChannel>
 800034c:	4603      	mov	r3, r0
 800034e:	2b00      	cmp	r3, #0
 8000350:	d001      	beq.n	8000356 <MX_ADC1_Init+0xa6>
  {
    Error_Handler();
 8000352:	f000 f86b 	bl	800042c <Error_Handler>
  }
  /** Configure Regular Channel 
  */
  sConfig.Channel = ADC_CHANNEL_1;
 8000356:	2301      	movs	r3, #1
 8000358:	607b      	str	r3, [r7, #4]
  sConfig.Rank = ADC_REGULAR_RANK_1;
 800035a:	2301      	movs	r3, #1
 800035c:	60bb      	str	r3, [r7, #8]
  sConfig.SingleDiff = ADC_SINGLE_ENDED;
 800035e:	2300      	movs	r3, #0
 8000360:	613b      	str	r3, [r7, #16]
  sConfig.SamplingTime = ADC_SAMPLETIME_61CYCLES_5;
 8000362:	2305      	movs	r3, #5
 8000364:	60fb      	str	r3, [r7, #12]
  sConfig.OffsetNumber = ADC_OFFSET_NONE;
 8000366:	2300      	movs	r3, #0
 8000368:	617b      	str	r3, [r7, #20]
  sConfig.Offset = 0;
 800036a:	2300      	movs	r3, #0
 800036c:	61bb      	str	r3, [r7, #24]
  if (HAL_ADC_ConfigChannel(&hadc1, &sConfig) != HAL_OK)
 800036e:	1d3b      	adds	r3, r7, #4
 8000370:	4619      	mov	r1, r3
 8000372:	4806      	ldr	r0, [pc, #24]	; (800038c <MX_ADC1_Init+0xdc>)
 8000374:	f000 fea6 	bl	80010c4 <HAL_ADC_ConfigChannel>
 8000378:	4603      	mov	r3, r0
 800037a:	2b00      	cmp	r3, #0
 800037c:	d001      	beq.n	8000382 <MX_ADC1_Init+0xd2>
  {
    Error_Handler();
 800037e:	f000 f855 	bl	800042c <Error_Handler>
  }
  /* USER CODE BEGIN ADC1_Init 2 */

  /* USER CODE END ADC1_Init 2 */

}
 8000382:	bf00      	nop
 8000384:	3728      	adds	r7, #40	; 0x28
 8000386:	46bd      	mov	sp, r7
 8000388:	bd80      	pop	{r7, pc}
 800038a:	bf00      	nop
 800038c:	20000028 	.word	0x20000028

08000390 <MX_GPIO_Init>:
  * @brief GPIO Initialization Function
  * @param None
  * @retval None
  */
static void MX_GPIO_Init(void)
{
 8000390:	b580      	push	{r7, lr}
 8000392:	b088      	sub	sp, #32
 8000394:	af00      	add	r7, sp, #0
  GPIO_InitTypeDef GPIO_InitStruct = {0};
 8000396:	f107 030c 	add.w	r3, r7, #12
 800039a:	2200      	movs	r2, #0
 800039c:	601a      	str	r2, [r3, #0]
 800039e:	605a      	str	r2, [r3, #4]
 80003a0:	609a      	str	r2, [r3, #8]
 80003a2:	60da      	str	r2, [r3, #12]
 80003a4:	611a      	str	r2, [r3, #16]

  /* GPIO Ports Clock Enable */
  __HAL_RCC_GPIOA_CLK_ENABLE();
 80003a6:	4b17      	ldr	r3, [pc, #92]	; (8000404 <MX_GPIO_Init+0x74>)
 80003a8:	695b      	ldr	r3, [r3, #20]
 80003aa:	4a16      	ldr	r2, [pc, #88]	; (8000404 <MX_GPIO_Init+0x74>)
 80003ac:	f443 3300 	orr.w	r3, r3, #131072	; 0x20000
 80003b0:	6153      	str	r3, [r2, #20]
 80003b2:	4b14      	ldr	r3, [pc, #80]	; (8000404 <MX_GPIO_Init+0x74>)
 80003b4:	695b      	ldr	r3, [r3, #20]
 80003b6:	f403 3300 	and.w	r3, r3, #131072	; 0x20000
 80003ba:	60bb      	str	r3, [r7, #8]
 80003bc:	68bb      	ldr	r3, [r7, #8]
  __HAL_RCC_GPIOB_CLK_ENABLE();
 80003be:	4b11      	ldr	r3, [pc, #68]	; (8000404 <MX_GPIO_Init+0x74>)
 80003c0:	695b      	ldr	r3, [r3, #20]
 80003c2:	4a10      	ldr	r2, [pc, #64]	; (8000404 <MX_GPIO_Init+0x74>)
 80003c4:	f443 2380 	orr.w	r3, r3, #262144	; 0x40000
 80003c8:	6153      	str	r3, [r2, #20]
 80003ca:	4b0e      	ldr	r3, [pc, #56]	; (8000404 <MX_GPIO_Init+0x74>)
 80003cc:	695b      	ldr	r3, [r3, #20]
 80003ce:	f403 2380 	and.w	r3, r3, #262144	; 0x40000
 80003d2:	607b      	str	r3, [r7, #4]
 80003d4:	687b      	ldr	r3, [r7, #4]

  /*Configure GPIO pin Output Level */
  HAL_GPIO_WritePin(GPIOB, GPIO_PIN_3, GPIO_PIN_RESET);
 80003d6:	2200      	movs	r2, #0
 80003d8:	2108      	movs	r1, #8
 80003da:	480b      	ldr	r0, [pc, #44]	; (8000408 <MX_GPIO_Init+0x78>)
 80003dc:	f001 fd3c 	bl	8001e58 <HAL_GPIO_WritePin>

  /*Configure GPIO pin : PB3 */
  GPIO_InitStruct.Pin = GPIO_PIN_3;
 80003e0:	2308      	movs	r3, #8
 80003e2:	60fb      	str	r3, [r7, #12]
  GPIO_InitStruct.Mode = GPIO_MODE_OUTPUT_PP;
 80003e4:	2301      	movs	r3, #1
 80003e6:	613b      	str	r3, [r7, #16]
  GPIO_InitStruct.Pull = GPIO_NOPULL;
 80003e8:	2300      	movs	r3, #0
 80003ea:	617b      	str	r3, [r7, #20]
  GPIO_InitStruct.Speed = GPIO_SPEED_FREQ_LOW;
 80003ec:	2300      	movs	r3, #0
 80003ee:	61bb      	str	r3, [r7, #24]
  HAL_GPIO_Init(GPIOB, &GPIO_InitStruct);
 80003f0:	f107 030c 	add.w	r3, r7, #12
 80003f4:	4619      	mov	r1, r3
 80003f6:	4804      	ldr	r0, [pc, #16]	; (8000408 <MX_GPIO_Init+0x78>)
 80003f8:	f001 fbbc 	bl	8001b74 <HAL_GPIO_Init>

}
 80003fc:	bf00      	nop
 80003fe:	3720      	adds	r7, #32
 8000400:	46bd      	mov	sp, r7
 8000402:	bd80      	pop	{r7, pc}
 8000404:	40021000 	.word	0x40021000
 8000408:	48000400 	.word	0x48000400

0800040c <HAL_ADC_ConvCpltCallback>:

/* USER CODE BEGIN 4 */
void HAL_ADC_ConvCpltCallback(ADC_HandleTypeDef* hadc1)
{
 800040c:	b580      	push	{r7, lr}
 800040e:	b082      	sub	sp, #8
 8000410:	af00      	add	r7, sp, #0
 8000412:	6078      	str	r0, [r7, #4]
	value_adc=HAL_ADC_GetValue(hadc1);
 8000414:	6878      	ldr	r0, [r7, #4]
 8000416:	f000 fbff 	bl	8000c18 <HAL_ADC_GetValue>
 800041a:	4602      	mov	r2, r0
 800041c:	4b02      	ldr	r3, [pc, #8]	; (8000428 <HAL_ADC_ConvCpltCallback+0x1c>)
 800041e:	601a      	str	r2, [r3, #0]
}
 8000420:	bf00      	nop
 8000422:	3708      	adds	r7, #8
 8000424:	46bd      	mov	sp, r7
 8000426:	bd80      	pop	{r7, pc}
 8000428:	20000078 	.word	0x20000078

0800042c <Error_Handler>:
/**
  * @brief  This function is executed in case of error occurrence.
  * @retval None
  */
void Error_Handler(void)
{
 800042c:	b480      	push	{r7}
 800042e:	af00      	add	r7, sp, #0
  /* USER CODE BEGIN Error_Handler_Debug */
  /* User can add his own implementation to report the HAL error return state */

  /* USER CODE END Error_Handler_Debug */
}
 8000430:	bf00      	nop
 8000432:	46bd      	mov	sp, r7
 8000434:	f85d 7b04 	ldr.w	r7, [sp], #4
 8000438:	4770      	bx	lr
	...

0800043c <HAL_MspInit>:
/* USER CODE END 0 */
/**
  * Initializes the Global MSP.
  */
void HAL_MspInit(void)
{
 800043c:	b480      	push	{r7}
 800043e:	b083      	sub	sp, #12
 8000440:	af00      	add	r7, sp, #0
  /* USER CODE BEGIN MspInit 0 */

  /* USER CODE END MspInit 0 */

  __HAL_RCC_SYSCFG_CLK_ENABLE();
 8000442:	4b0f      	ldr	r3, [pc, #60]	; (8000480 <HAL_MspInit+0x44>)
 8000444:	699b      	ldr	r3, [r3, #24]
 8000446:	4a0e      	ldr	r2, [pc, #56]	; (8000480 <HAL_MspInit+0x44>)
 8000448:	f043 0301 	orr.w	r3, r3, #1
 800044c:	6193      	str	r3, [r2, #24]
 800044e:	4b0c      	ldr	r3, [pc, #48]	; (8000480 <HAL_MspInit+0x44>)
 8000450:	699b      	ldr	r3, [r3, #24]
 8000452:	f003 0301 	and.w	r3, r3, #1
 8000456:	607b      	str	r3, [r7, #4]
 8000458:	687b      	ldr	r3, [r7, #4]
  __HAL_RCC_PWR_CLK_ENABLE();
 800045a:	4b09      	ldr	r3, [pc, #36]	; (8000480 <HAL_MspInit+0x44>)
 800045c:	69db      	ldr	r3, [r3, #28]
 800045e:	4a08      	ldr	r2, [pc, #32]	; (8000480 <HAL_MspInit+0x44>)
 8000460:	f043 5380 	orr.w	r3, r3, #268435456	; 0x10000000
 8000464:	61d3      	str	r3, [r2, #28]
 8000466:	4b06      	ldr	r3, [pc, #24]	; (8000480 <HAL_MspInit+0x44>)
 8000468:	69db      	ldr	r3, [r3, #28]
 800046a:	f003 5380 	and.w	r3, r3, #268435456	; 0x10000000
 800046e:	603b      	str	r3, [r7, #0]
 8000470:	683b      	ldr	r3, [r7, #0]
  /* System interrupt init*/

  /* USER CODE BEGIN MspInit 1 */

  /* USER CODE END MspInit 1 */
}
 8000472:	bf00      	nop
 8000474:	370c      	adds	r7, #12
 8000476:	46bd      	mov	sp, r7
 8000478:	f85d 7b04 	ldr.w	r7, [sp], #4
 800047c:	4770      	bx	lr
 800047e:	bf00      	nop
 8000480:	40021000 	.word	0x40021000

08000484 <HAL_ADC_MspInit>:
* This function configures the hardware resources used in this example
* @param hadc: ADC handle pointer
* @retval None
*/
void HAL_ADC_MspInit(ADC_HandleTypeDef* hadc)
{
 8000484:	b580      	push	{r7, lr}
 8000486:	b08a      	sub	sp, #40	; 0x28
 8000488:	af00      	add	r7, sp, #0
 800048a:	6078      	str	r0, [r7, #4]
  GPIO_InitTypeDef GPIO_InitStruct = {0};
 800048c:	f107 0314 	add.w	r3, r7, #20
 8000490:	2200      	movs	r2, #0
 8000492:	601a      	str	r2, [r3, #0]
 8000494:	605a      	str	r2, [r3, #4]
 8000496:	609a      	str	r2, [r3, #8]
 8000498:	60da      	str	r2, [r3, #12]
 800049a:	611a      	str	r2, [r3, #16]
  if(hadc->Instance==ADC1)
 800049c:	687b      	ldr	r3, [r7, #4]
 800049e:	681b      	ldr	r3, [r3, #0]
 80004a0:	f1b3 4fa0 	cmp.w	r3, #1342177280	; 0x50000000
 80004a4:	d12c      	bne.n	8000500 <HAL_ADC_MspInit+0x7c>
  {
  /* USER CODE BEGIN ADC1_MspInit 0 */

  /* USER CODE END ADC1_MspInit 0 */
    /* Peripheral clock enable */
    __HAL_RCC_ADC12_CLK_ENABLE();
 80004a6:	4b18      	ldr	r3, [pc, #96]	; (8000508 <HAL_ADC_MspInit+0x84>)
 80004a8:	695b      	ldr	r3, [r3, #20]
 80004aa:	4a17      	ldr	r2, [pc, #92]	; (8000508 <HAL_ADC_MspInit+0x84>)
 80004ac:	f043 5380 	orr.w	r3, r3, #268435456	; 0x10000000
 80004b0:	6153      	str	r3, [r2, #20]
 80004b2:	4b15      	ldr	r3, [pc, #84]	; (8000508 <HAL_ADC_MspInit+0x84>)
 80004b4:	695b      	ldr	r3, [r3, #20]
 80004b6:	f003 5380 	and.w	r3, r3, #268435456	; 0x10000000
 80004ba:	613b      	str	r3, [r7, #16]
 80004bc:	693b      	ldr	r3, [r7, #16]
  
    __HAL_RCC_GPIOA_CLK_ENABLE();
 80004be:	4b12      	ldr	r3, [pc, #72]	; (8000508 <HAL_ADC_MspInit+0x84>)
 80004c0:	695b      	ldr	r3, [r3, #20]
 80004c2:	4a11      	ldr	r2, [pc, #68]	; (8000508 <HAL_ADC_MspInit+0x84>)
 80004c4:	f443 3300 	orr.w	r3, r3, #131072	; 0x20000
 80004c8:	6153      	str	r3, [r2, #20]
 80004ca:	4b0f      	ldr	r3, [pc, #60]	; (8000508 <HAL_ADC_MspInit+0x84>)
 80004cc:	695b      	ldr	r3, [r3, #20]
 80004ce:	f403 3300 	and.w	r3, r3, #131072	; 0x20000
 80004d2:	60fb      	str	r3, [r7, #12]
 80004d4:	68fb      	ldr	r3, [r7, #12]
    /**ADC1 GPIO Configuration    
    PA0     ------> ADC1_IN1 
    */
    GPIO_InitStruct.Pin = GPIO_PIN_0;
 80004d6:	2301      	movs	r3, #1
 80004d8:	617b      	str	r3, [r7, #20]
    GPIO_InitStruct.Mode = GPIO_MODE_ANALOG;
 80004da:	2303      	movs	r3, #3
 80004dc:	61bb      	str	r3, [r7, #24]
    GPIO_InitStruct.Pull = GPIO_NOPULL;
 80004de:	2300      	movs	r3, #0
 80004e0:	61fb      	str	r3, [r7, #28]
    HAL_GPIO_Init(GPIOA, &GPIO_InitStruct);
 80004e2:	f107 0314 	add.w	r3, r7, #20
 80004e6:	4619      	mov	r1, r3
 80004e8:	f04f 4090 	mov.w	r0, #1207959552	; 0x48000000
 80004ec:	f001 fb42 	bl	8001b74 <HAL_GPIO_Init>

    /* ADC1 interrupt Init */
    HAL_NVIC_SetPriority(ADC1_2_IRQn, 0, 0);
 80004f0:	2200      	movs	r2, #0
 80004f2:	2100      	movs	r1, #0
 80004f4:	2012      	movs	r0, #18
 80004f6:	f001 fb06 	bl	8001b06 <HAL_NVIC_SetPriority>
    HAL_NVIC_EnableIRQ(ADC1_2_IRQn);
 80004fa:	2012      	movs	r0, #18
 80004fc:	f001 fb1f 	bl	8001b3e <HAL_NVIC_EnableIRQ>
  /* USER CODE BEGIN ADC1_MspInit 1 */

  /* USER CODE END ADC1_MspInit 1 */
  }

}
 8000500:	bf00      	nop
 8000502:	3728      	adds	r7, #40	; 0x28
 8000504:	46bd      	mov	sp, r7
 8000506:	bd80      	pop	{r7, pc}
 8000508:	40021000 	.word	0x40021000

0800050c <NMI_Handler>:
/******************************************************************************/
/**
  * @brief This function handles Non maskable interrupt.
  */
void NMI_Handler(void)
{
 800050c:	b480      	push	{r7}
 800050e:	af00      	add	r7, sp, #0

  /* USER CODE END NonMaskableInt_IRQn 0 */
  /* USER CODE BEGIN NonMaskableInt_IRQn 1 */

  /* USER CODE END NonMaskableInt_IRQn 1 */
}
 8000510:	bf00      	nop
 8000512:	46bd      	mov	sp, r7
 8000514:	f85d 7b04 	ldr.w	r7, [sp], #4
 8000518:	4770      	bx	lr

0800051a <HardFault_Handler>:

/**
  * @brief This function handles Hard fault interrupt.
  */
void HardFault_Handler(void)
{
 800051a:	b480      	push	{r7}
 800051c:	af00      	add	r7, sp, #0
  /* USER CODE BEGIN HardFault_IRQn 0 */

  /* USER CODE END HardFault_IRQn 0 */
  while (1)
 800051e:	e7fe      	b.n	800051e <HardFault_Handler+0x4>

08000520 <MemManage_Handler>:

/**
  * @brief This function handles Memory management fault.
  */
void MemManage_Handler(void)
{
 8000520:	b480      	push	{r7}
 8000522:	af00      	add	r7, sp, #0
  /* USER CODE BEGIN MemoryManagement_IRQn 0 */

  /* USER CODE END MemoryManagement_IRQn 0 */
  while (1)
 8000524:	e7fe      	b.n	8000524 <MemManage_Handler+0x4>

08000526 <BusFault_Handler>:

/**
  * @brief This function handles Pre-fetch fault, memory access fault.
  */
void BusFault_Handler(void)
{
 8000526:	b480      	push	{r7}
 8000528:	af00      	add	r7, sp, #0
  /* USER CODE BEGIN BusFault_IRQn 0 */

  /* USER CODE END BusFault_IRQn 0 */
  while (1)
 800052a:	e7fe      	b.n	800052a <BusFault_Handler+0x4>

0800052c <UsageFault_Handler>:

/**
  * @brief This function handles Undefined instruction or illegal state.
  */
void UsageFault_Handler(void)
{
 800052c:	b480      	push	{r7}
 800052e:	af00      	add	r7, sp, #0
  /* USER CODE BEGIN UsageFault_IRQn 0 */

  /* USER CODE END UsageFault_IRQn 0 */
  while (1)
 8000530:	e7fe      	b.n	8000530 <UsageFault_Handler+0x4>

08000532 <SVC_Handler>:

/**
  * @brief This function handles System service call via SWI instruction.
  */
void SVC_Handler(void)
{
 8000532:	b480      	push	{r7}
 8000534:	af00      	add	r7, sp, #0

  /* USER CODE END SVCall_IRQn 0 */
  /* USER CODE BEGIN SVCall_IRQn 1 */

  /* USER CODE END SVCall_IRQn 1 */
}
 8000536:	bf00      	nop
 8000538:	46bd      	mov	sp, r7
 800053a:	f85d 7b04 	ldr.w	r7, [sp], #4
 800053e:	4770      	bx	lr

08000540 <DebugMon_Handler>:

/**
  * @brief This function handles Debug monitor.
  */
void DebugMon_Handler(void)
{
 8000540:	b480      	push	{r7}
 8000542:	af00      	add	r7, sp, #0

  /* USER CODE END DebugMonitor_IRQn 0 */
  /* USER CODE BEGIN DebugMonitor_IRQn 1 */

  /* USER CODE END DebugMonitor_IRQn 1 */
}
 8000544:	bf00      	nop
 8000546:	46bd      	mov	sp, r7
 8000548:	f85d 7b04 	ldr.w	r7, [sp], #4
 800054c:	4770      	bx	lr

0800054e <PendSV_Handler>:

/**
  * @brief This function handles Pendable request for system service.
  */
void PendSV_Handler(void)
{
 800054e:	b480      	push	{r7}
 8000550:	af00      	add	r7, sp, #0

  /* USER CODE END PendSV_IRQn 0 */
  /* USER CODE BEGIN PendSV_IRQn 1 */

  /* USER CODE END PendSV_IRQn 1 */
}
 8000552:	bf00      	nop
 8000554:	46bd      	mov	sp, r7
 8000556:	f85d 7b04 	ldr.w	r7, [sp], #4
 800055a:	4770      	bx	lr

0800055c <SysTick_Handler>:

/**
  * @brief This function handles System tick timer.
  */
void SysTick_Handler(void)
{
 800055c:	b580      	push	{r7, lr}
 800055e:	af00      	add	r7, sp, #0
  /* USER CODE BEGIN SysTick_IRQn 0 */

  /* USER CODE END SysTick_IRQn 0 */
  HAL_IncTick();
 8000560:	f000 f892 	bl	8000688 <HAL_IncTick>
  /* USER CODE BEGIN SysTick_IRQn 1 */

  /* USER CODE END SysTick_IRQn 1 */
}
 8000564:	bf00      	nop
 8000566:	bd80      	pop	{r7, pc}

08000568 <ADC1_2_IRQHandler>:

/**
  * @brief This function handles ADC1 and ADC2 interrupts.
  */
void ADC1_2_IRQHandler(void)
{
 8000568:	b580      	push	{r7, lr}
 800056a:	af00      	add	r7, sp, #0
  /* USER CODE BEGIN ADC1_2_IRQn 0 */

  /* USER CODE END ADC1_2_IRQn 0 */
  HAL_ADC_IRQHandler(&hadc1);
 800056c:	4802      	ldr	r0, [pc, #8]	; (8000578 <ADC1_2_IRQHandler+0x10>)
 800056e:	f000 fb61 	bl	8000c34 <HAL_ADC_IRQHandler>
  /* USER CODE BEGIN ADC1_2_IRQn 1 */

  /* USER CODE END ADC1_2_IRQn 1 */
}
 8000572:	bf00      	nop
 8000574:	bd80      	pop	{r7, pc}
 8000576:	bf00      	nop
 8000578:	20000028 	.word	0x20000028

0800057c <SystemInit>:
  * @brief  Setup the microcontroller system
  * @param  None
  * @retval None
  */
void SystemInit(void)
{
 800057c:	b480      	push	{r7}
 800057e:	af00      	add	r7, sp, #0
/* FPU settings --------------------------------------------------------------*/
#if (__FPU_PRESENT == 1) && (__FPU_USED == 1)
  SCB->CPACR |= ((3UL << 10*2)|(3UL << 11*2));  /* set CP10 and CP11 Full Access */
 8000580:	4b08      	ldr	r3, [pc, #32]	; (80005a4 <SystemInit+0x28>)
 8000582:	f8d3 3088 	ldr.w	r3, [r3, #136]	; 0x88
 8000586:	4a07      	ldr	r2, [pc, #28]	; (80005a4 <SystemInit+0x28>)
 8000588:	f443 0370 	orr.w	r3, r3, #15728640	; 0xf00000
 800058c:	f8c2 3088 	str.w	r3, [r2, #136]	; 0x88
#endif

#ifdef VECT_TAB_SRAM
  SCB->VTOR = SRAM_BASE | VECT_TAB_OFFSET; /* Vector Table Relocation in Internal SRAM */
#else
  SCB->VTOR = FLASH_BASE | VECT_TAB_OFFSET; /* Vector Table Relocation in Internal FLASH */
 8000590:	4b04      	ldr	r3, [pc, #16]	; (80005a4 <SystemInit+0x28>)
 8000592:	f04f 6200 	mov.w	r2, #134217728	; 0x8000000
 8000596:	609a      	str	r2, [r3, #8]
#endif
}
 8000598:	bf00      	nop
 800059a:	46bd      	mov	sp, r7
 800059c:	f85d 7b04 	ldr.w	r7, [sp], #4
 80005a0:	4770      	bx	lr
 80005a2:	bf00      	nop
 80005a4:	e000ed00 	.word	0xe000ed00

080005a8 <Reset_Handler>:

    .section	.text.Reset_Handler
	.weak	Reset_Handler
	.type	Reset_Handler, %function
Reset_Handler:
  ldr   sp, =_estack    /* Atollic update: set stack pointer */
 80005a8:	f8df d034 	ldr.w	sp, [pc, #52]	; 80005e0 <LoopForever+0x2>

/* Copy the data segment initializers from flash to SRAM */
  movs	r1, #0
 80005ac:	2100      	movs	r1, #0
  b	LoopCopyDataInit
 80005ae:	e003      	b.n	80005b8 <LoopCopyDataInit>

080005b0 <CopyDataInit>:

CopyDataInit:
	ldr	r3, =_sidata
 80005b0:	4b0c      	ldr	r3, [pc, #48]	; (80005e4 <LoopForever+0x6>)
	ldr	r3, [r3, r1]
 80005b2:	585b      	ldr	r3, [r3, r1]
	str	r3, [r0, r1]
 80005b4:	5043      	str	r3, [r0, r1]
	adds	r1, r1, #4
 80005b6:	3104      	adds	r1, #4

080005b8 <LoopCopyDataInit>:

LoopCopyDataInit:
	ldr	r0, =_sdata
 80005b8:	480b      	ldr	r0, [pc, #44]	; (80005e8 <LoopForever+0xa>)
	ldr	r3, =_edata
 80005ba:	4b0c      	ldr	r3, [pc, #48]	; (80005ec <LoopForever+0xe>)
	adds	r2, r0, r1
 80005bc:	1842      	adds	r2, r0, r1
	cmp	r2, r3
 80005be:	429a      	cmp	r2, r3
	bcc	CopyDataInit
 80005c0:	d3f6      	bcc.n	80005b0 <CopyDataInit>
	ldr	r2, =_sbss
 80005c2:	4a0b      	ldr	r2, [pc, #44]	; (80005f0 <LoopForever+0x12>)
	b	LoopFillZerobss
 80005c4:	e002      	b.n	80005cc <LoopFillZerobss>

080005c6 <FillZerobss>:
/* Zero fill the bss segment. */
FillZerobss:
	movs	r3, #0
 80005c6:	2300      	movs	r3, #0
	str	r3, [r2], #4
 80005c8:	f842 3b04 	str.w	r3, [r2], #4

080005cc <LoopFillZerobss>:

LoopFillZerobss:
	ldr	r3, = _ebss
 80005cc:	4b09      	ldr	r3, [pc, #36]	; (80005f4 <LoopForever+0x16>)
	cmp	r2, r3
 80005ce:	429a      	cmp	r2, r3
	bcc	FillZerobss
 80005d0:	d3f9      	bcc.n	80005c6 <FillZerobss>

/* Call the clock system intitialization function.*/
    bl  SystemInit
 80005d2:	f7ff ffd3 	bl	800057c <SystemInit>
/* Call static constructors */
    bl __libc_init_array
 80005d6:	f002 fe85 	bl	80032e4 <__libc_init_array>
/* Call the application's entry point.*/
	bl	main
 80005da:	f7ff fdf5 	bl	80001c8 <main>

080005de <LoopForever>:

LoopForever:
    b LoopForever
 80005de:	e7fe      	b.n	80005de <LoopForever>
  ldr   sp, =_estack    /* Atollic update: set stack pointer */
 80005e0:	20003000 	.word	0x20003000
	ldr	r3, =_sidata
 80005e4:	0800338c 	.word	0x0800338c
	ldr	r0, =_sdata
 80005e8:	20000000 	.word	0x20000000
	ldr	r3, =_edata
 80005ec:	2000000c 	.word	0x2000000c
	ldr	r2, =_sbss
 80005f0:	2000000c 	.word	0x2000000c
	ldr	r3, = _ebss
 80005f4:	20000080 	.word	0x20000080

080005f8 <CAN_RX0_IRQHandler>:
 * @retval : None
*/
    .section	.text.Default_Handler,"ax",%progbits
Default_Handler:
Infinite_Loop:
	b	Infinite_Loop
 80005f8:	e7fe      	b.n	80005f8 <CAN_RX0_IRQHandler>
	...

080005fc <HAL_Init>:
  *         In the default implementation,Systick is used as source of time base.
  *       The tick variable is incremented each 1ms in its ISR.
  * @retval HAL status
  */
HAL_StatusTypeDef HAL_Init(void)
{
 80005fc:	b580      	push	{r7, lr}
 80005fe:	af00      	add	r7, sp, #0
  /* Configure Flash prefetch */
#if (PREFETCH_ENABLE != 0U)
  __HAL_FLASH_PREFETCH_BUFFER_ENABLE();
 8000600:	4b08      	ldr	r3, [pc, #32]	; (8000624 <HAL_Init+0x28>)
 8000602:	681b      	ldr	r3, [r3, #0]
 8000604:	4a07      	ldr	r2, [pc, #28]	; (8000624 <HAL_Init+0x28>)
 8000606:	f043 0310 	orr.w	r3, r3, #16
 800060a:	6013      	str	r3, [r2, #0]
#endif /* PREFETCH_ENABLE */

  /* Set Interrupt Group Priority */
  HAL_NVIC_SetPriorityGrouping(NVIC_PRIORITYGROUP_4);
 800060c:	2003      	movs	r0, #3
 800060e:	f001 fa6f 	bl	8001af0 <HAL_NVIC_SetPriorityGrouping>

  /* Enable systick and configure 1ms tick (default clock after Reset is HSI) */
  HAL_InitTick(TICK_INT_PRIORITY);
 8000612:	2000      	movs	r0, #0
 8000614:	f000 f808 	bl	8000628 <HAL_InitTick>

  /* Init the low level hardware */
  HAL_MspInit();
 8000618:	f7ff ff10 	bl	800043c <HAL_MspInit>

  /* Return function status */
  return HAL_OK;
 800061c:	2300      	movs	r3, #0
}
 800061e:	4618      	mov	r0, r3
 8000620:	bd80      	pop	{r7, pc}
 8000622:	bf00      	nop
 8000624:	40022000 	.word	0x40022000

08000628 <HAL_InitTick>:
  *         implementation  in user file.
  * @param TickPriority Tick interrupt priority.
  * @retval HAL status
  */
__weak HAL_StatusTypeDef HAL_InitTick(uint32_t TickPriority)
{
 8000628:	b580      	push	{r7, lr}
 800062a:	b082      	sub	sp, #8
 800062c:	af00      	add	r7, sp, #0
 800062e:	6078      	str	r0, [r7, #4]
  /* Configure the SysTick to have interrupt in 1ms time basis*/
  if (HAL_SYSTICK_Config(SystemCoreClock / (1000U / uwTickFreq)) > 0U)
 8000630:	4b12      	ldr	r3, [pc, #72]	; (800067c <HAL_InitTick+0x54>)
 8000632:	681a      	ldr	r2, [r3, #0]
 8000634:	4b12      	ldr	r3, [pc, #72]	; (8000680 <HAL_InitTick+0x58>)
 8000636:	781b      	ldrb	r3, [r3, #0]
 8000638:	4619      	mov	r1, r3
 800063a:	f44f 737a 	mov.w	r3, #1000	; 0x3e8
 800063e:	fbb3 f3f1 	udiv	r3, r3, r1
 8000642:	fbb2 f3f3 	udiv	r3, r2, r3
 8000646:	4618      	mov	r0, r3
 8000648:	f001 fa87 	bl	8001b5a <HAL_SYSTICK_Config>
 800064c:	4603      	mov	r3, r0
 800064e:	2b00      	cmp	r3, #0
 8000650:	d001      	beq.n	8000656 <HAL_InitTick+0x2e>
  {
    return HAL_ERROR;
 8000652:	2301      	movs	r3, #1
 8000654:	e00e      	b.n	8000674 <HAL_InitTick+0x4c>
  }

  /* Configure the SysTick IRQ priority */
  if (TickPriority < (1UL << __NVIC_PRIO_BITS))
 8000656:	687b      	ldr	r3, [r7, #4]
 8000658:	2b0f      	cmp	r3, #15
 800065a:	d80a      	bhi.n	8000672 <HAL_InitTick+0x4a>
  {
    HAL_NVIC_SetPriority(SysTick_IRQn, TickPriority, 0U);
 800065c:	2200      	movs	r2, #0
 800065e:	6879      	ldr	r1, [r7, #4]
 8000660:	f04f 30ff 	mov.w	r0, #4294967295
 8000664:	f001 fa4f 	bl	8001b06 <HAL_NVIC_SetPriority>
    uwTickPrio = TickPriority;
 8000668:	4a06      	ldr	r2, [pc, #24]	; (8000684 <HAL_InitTick+0x5c>)
 800066a:	687b      	ldr	r3, [r7, #4]
 800066c:	6013      	str	r3, [r2, #0]
  else
  {
    return HAL_ERROR;
  }
   /* Return function status */
  return HAL_OK;
 800066e:	2300      	movs	r3, #0
 8000670:	e000      	b.n	8000674 <HAL_InitTick+0x4c>
    return HAL_ERROR;
 8000672:	2301      	movs	r3, #1
}
 8000674:	4618      	mov	r0, r3
 8000676:	3708      	adds	r7, #8
 8000678:	46bd      	mov	sp, r7
 800067a:	bd80      	pop	{r7, pc}
 800067c:	20000000 	.word	0x20000000
 8000680:	20000008 	.word	0x20000008
 8000684:	20000004 	.word	0x20000004

08000688 <HAL_IncTick>:
  * @note This function is declared as __weak to be overwritten in case of other 
  *         implementations  in user file.
  * @retval None
  */
__weak void HAL_IncTick(void)
{
 8000688:	b480      	push	{r7}
 800068a:	af00      	add	r7, sp, #0
  uwTick += uwTickFreq;
 800068c:	4b06      	ldr	r3, [pc, #24]	; (80006a8 <HAL_IncTick+0x20>)
 800068e:	781b      	ldrb	r3, [r3, #0]
 8000690:	461a      	mov	r2, r3
 8000692:	4b06      	ldr	r3, [pc, #24]	; (80006ac <HAL_IncTick+0x24>)
 8000694:	681b      	ldr	r3, [r3, #0]
 8000696:	4413      	add	r3, r2
 8000698:	4a04      	ldr	r2, [pc, #16]	; (80006ac <HAL_IncTick+0x24>)
 800069a:	6013      	str	r3, [r2, #0]
}
 800069c:	bf00      	nop
 800069e:	46bd      	mov	sp, r7
 80006a0:	f85d 7b04 	ldr.w	r7, [sp], #4
 80006a4:	4770      	bx	lr
 80006a6:	bf00      	nop
 80006a8:	20000008 	.word	0x20000008
 80006ac:	2000007c 	.word	0x2000007c

080006b0 <HAL_GetTick>:
  * @note   The function is declared as __Weak  to be overwritten  in case of other 
  *         implementations  in user file.
  * @retval tick value
  */
__weak uint32_t HAL_GetTick(void)
{
 80006b0:	b480      	push	{r7}
 80006b2:	af00      	add	r7, sp, #0
  return uwTick;  
 80006b4:	4b03      	ldr	r3, [pc, #12]	; (80006c4 <HAL_GetTick+0x14>)
 80006b6:	681b      	ldr	r3, [r3, #0]
}
 80006b8:	4618      	mov	r0, r3
 80006ba:	46bd      	mov	sp, r7
 80006bc:	f85d 7b04 	ldr.w	r7, [sp], #4
 80006c0:	4770      	bx	lr
 80006c2:	bf00      	nop
 80006c4:	2000007c 	.word	0x2000007c

080006c8 <HAL_Delay>:
  *         implementations  in user file.
  * @param  Delay specifies the delay time length, in milliseconds.
  * @retval None
  */
__weak void HAL_Delay(uint32_t Delay)
{
 80006c8:	b580      	push	{r7, lr}
 80006ca:	b084      	sub	sp, #16
 80006cc:	af00      	add	r7, sp, #0
 80006ce:	6078      	str	r0, [r7, #4]
  uint32_t tickstart = HAL_GetTick();
 80006d0:	f7ff ffee 	bl	80006b0 <HAL_GetTick>
 80006d4:	60b8      	str	r0, [r7, #8]
  uint32_t wait = Delay;
 80006d6:	687b      	ldr	r3, [r7, #4]
 80006d8:	60fb      	str	r3, [r7, #12]
  
  /* Add freq to guarantee minimum wait */
  if (wait < HAL_MAX_DELAY)
 80006da:	68fb      	ldr	r3, [r7, #12]
 80006dc:	f1b3 3fff 	cmp.w	r3, #4294967295
 80006e0:	d005      	beq.n	80006ee <HAL_Delay+0x26>
  {
    wait += (uint32_t)(uwTickFreq);
 80006e2:	4b09      	ldr	r3, [pc, #36]	; (8000708 <HAL_Delay+0x40>)
 80006e4:	781b      	ldrb	r3, [r3, #0]
 80006e6:	461a      	mov	r2, r3
 80006e8:	68fb      	ldr	r3, [r7, #12]
 80006ea:	4413      	add	r3, r2
 80006ec:	60fb      	str	r3, [r7, #12]
  }
  
  while((HAL_GetTick() - tickstart) < wait)
 80006ee:	bf00      	nop
 80006f0:	f7ff ffde 	bl	80006b0 <HAL_GetTick>
 80006f4:	4602      	mov	r2, r0
 80006f6:	68bb      	ldr	r3, [r7, #8]
 80006f8:	1ad3      	subs	r3, r2, r3
 80006fa:	68fa      	ldr	r2, [r7, #12]
 80006fc:	429a      	cmp	r2, r3
 80006fe:	d8f7      	bhi.n	80006f0 <HAL_Delay+0x28>
  {
  }
}
 8000700:	bf00      	nop
 8000702:	3710      	adds	r7, #16
 8000704:	46bd      	mov	sp, r7
 8000706:	bd80      	pop	{r7, pc}
 8000708:	20000008 	.word	0x20000008

0800070c <HAL_ADC_LevelOutOfWindowCallback>:
  * @brief  Analog watchdog callback in non blocking mode. 
  * @param  hadc ADC handle
  * @retval None
  */
__weak void HAL_ADC_LevelOutOfWindowCallback(ADC_HandleTypeDef* hadc)
{
 800070c:	b480      	push	{r7}
 800070e:	b083      	sub	sp, #12
 8000710:	af00      	add	r7, sp, #0
 8000712:	6078      	str	r0, [r7, #4]
  UNUSED(hadc);

  /* NOTE : This function should not be modified. When the callback is needed,
            function HAL_ADC_LevelOoutOfWindowCallback must be implemented in the user file.
  */
}
 8000714:	bf00      	nop
 8000716:	370c      	adds	r7, #12
 8000718:	46bd      	mov	sp, r7
 800071a:	f85d 7b04 	ldr.w	r7, [sp], #4
 800071e:	4770      	bx	lr

08000720 <HAL_ADC_ErrorCallback>:
  *        (ADC conversion with interruption or transfer by DMA)
  * @param  hadc ADC handle
  * @retval None
  */
__weak void HAL_ADC_ErrorCallback(ADC_HandleTypeDef *hadc)
{
 8000720:	b480      	push	{r7}
 8000722:	b083      	sub	sp, #12
 8000724:	af00      	add	r7, sp, #0
 8000726:	6078      	str	r0, [r7, #4]
  UNUSED(hadc);

  /* NOTE : This function should not be modified. When the callback is needed,
            function HAL_ADC_ErrorCallback must be implemented in the user file.
  */
}
 8000728:	bf00      	nop
 800072a:	370c      	adds	r7, #12
 800072c:	46bd      	mov	sp, r7
 800072e:	f85d 7b04 	ldr.w	r7, [sp], #4
 8000732:	4770      	bx	lr

08000734 <HAL_ADC_Init>:
  *         without  disabling the other ADCs sharing the same common group.
  * @param  hadc ADC handle
  * @retval HAL status
  */
HAL_StatusTypeDef HAL_ADC_Init(ADC_HandleTypeDef* hadc)
{
 8000734:	b580      	push	{r7, lr}
 8000736:	b09a      	sub	sp, #104	; 0x68
 8000738:	af00      	add	r7, sp, #0
 800073a:	6078      	str	r0, [r7, #4]
  HAL_StatusTypeDef tmp_hal_status = HAL_OK;
 800073c:	2300      	movs	r3, #0
 800073e:	f887 3067 	strb.w	r3, [r7, #103]	; 0x67
  ADC_Common_TypeDef *tmpADC_Common;
  ADC_HandleTypeDef tmphadcSharingSameCommonRegister;
  uint32_t tmpCFGR = 0U;
 8000742:	2300      	movs	r3, #0
 8000744:	663b      	str	r3, [r7, #96]	; 0x60
  __IO uint32_t wait_loop_index = 0U;
 8000746:	2300      	movs	r3, #0
 8000748:	60bb      	str	r3, [r7, #8]
  
  /* Check ADC handle */
  if(hadc == NULL)
 800074a:	687b      	ldr	r3, [r7, #4]
 800074c:	2b00      	cmp	r3, #0
 800074e:	d101      	bne.n	8000754 <HAL_ADC_Init+0x20>
  {
    return HAL_ERROR;
 8000750:	2301      	movs	r3, #1
 8000752:	e172      	b.n	8000a3a <HAL_ADC_Init+0x306>
  assert_param(IS_FUNCTIONAL_STATE(hadc->Init.DMAContinuousRequests));
  assert_param(IS_ADC_EOC_SELECTION(hadc->Init.EOCSelection));
  assert_param(IS_ADC_OVERRUN(hadc->Init.Overrun));
  assert_param(IS_FUNCTIONAL_STATE(hadc->Init.LowPowerAutoWait));
  
  if(hadc->Init.ScanConvMode != ADC_SCAN_DISABLE)
 8000754:	687b      	ldr	r3, [r7, #4]
 8000756:	691b      	ldr	r3, [r3, #16]
 8000758:	2b00      	cmp	r3, #0
      assert_param(IS_ADC_REGULAR_DISCONT_NUMBER(hadc->Init.NbrOfDiscConversion));
    }
  }
    
  /* Configuration of ADC core parameters and ADC MSP related parameters */
  if (HAL_IS_BIT_CLR(hadc->State, HAL_ADC_STATE_ERROR_INTERNAL))
 800075a:	687b      	ldr	r3, [r7, #4]
 800075c:	6c1b      	ldr	r3, [r3, #64]	; 0x40
 800075e:	f003 0310 	and.w	r3, r3, #16
 8000762:	2b00      	cmp	r3, #0
 8000764:	d176      	bne.n	8000854 <HAL_ADC_Init+0x120>
    /* procedure.                                                             */
    
    /* Actions performed only if ADC is coming from state reset:              */
    /* - Initialization of ADC MSP                                            */
    /* - ADC voltage regulator enable                                         */
    if (hadc->State == HAL_ADC_STATE_RESET)
 8000766:	687b      	ldr	r3, [r7, #4]
 8000768:	6c1b      	ldr	r3, [r3, #64]	; 0x40
 800076a:	2b00      	cmp	r3, #0
 800076c:	d152      	bne.n	8000814 <HAL_ADC_Init+0xe0>
    {
      /* Initialize ADC error code */
      ADC_CLEAR_ERRORCODE(hadc);
 800076e:	687b      	ldr	r3, [r7, #4]
 8000770:	2200      	movs	r2, #0
 8000772:	645a      	str	r2, [r3, #68]	; 0x44
      
      /* Initialize HAL ADC API internal variables */
      hadc->InjectionConfig.ChannelCount = 0U;
 8000774:	687b      	ldr	r3, [r7, #4]
 8000776:	2200      	movs	r2, #0
 8000778:	64da      	str	r2, [r3, #76]	; 0x4c
      hadc->InjectionConfig.ContextQueue = 0U;
 800077a:	687b      	ldr	r3, [r7, #4]
 800077c:	2200      	movs	r2, #0
 800077e:	649a      	str	r2, [r3, #72]	; 0x48
      
      /* Allocate lock resource and initialize it */
      hadc->Lock = HAL_UNLOCKED;
 8000780:	687b      	ldr	r3, [r7, #4]
 8000782:	2200      	movs	r2, #0
 8000784:	f883 203c 	strb.w	r2, [r3, #60]	; 0x3c
    
    /* Init the low level hardware */
    hadc->MspInitCallback(hadc);
#else
    /* Init the low level hardware */
    HAL_ADC_MspInit(hadc);
 8000788:	6878      	ldr	r0, [r7, #4]
 800078a:	f7ff fe7b 	bl	8000484 <HAL_ADC_MspInit>
#endif /* USE_HAL_ADC_REGISTER_CALLBACKS */
      
      /* Enable voltage regulator (if disabled at this step) */
      if (HAL_IS_BIT_CLR(hadc->Instance->CR, ADC_CR_ADVREGEN_0))
 800078e:	687b      	ldr	r3, [r7, #4]
 8000790:	681b      	ldr	r3, [r3, #0]
 8000792:	689b      	ldr	r3, [r3, #8]
 8000794:	f003 5380 	and.w	r3, r3, #268435456	; 0x10000000
 8000798:	2b00      	cmp	r3, #0
 800079a:	d13b      	bne.n	8000814 <HAL_ADC_Init+0xe0>
        /*       enabling the ADC. This temporization must be implemented by  */ 
        /*       software and is equal to 10 us in the worst case             */
        /*       process/temperature/power supply.                            */
        
        /* Disable the ADC (if not already disabled) */
        tmp_hal_status = ADC_Disable(hadc);
 800079c:	6878      	ldr	r0, [r7, #4]
 800079e:	f001 f877 	bl	8001890 <ADC_Disable>
 80007a2:	4603      	mov	r3, r0
 80007a4:	f887 3067 	strb.w	r3, [r7, #103]	; 0x67
        
        /* Check if ADC is effectively disabled */
        /* Configuration of ADC parameters if previous preliminary actions    */ 
        /* are correctly completed.                                           */
        if (HAL_IS_BIT_CLR(hadc->State, HAL_ADC_STATE_ERROR_INTERNAL) &&
 80007a8:	687b      	ldr	r3, [r7, #4]
 80007aa:	6c1b      	ldr	r3, [r3, #64]	; 0x40
 80007ac:	f003 0310 	and.w	r3, r3, #16
 80007b0:	2b00      	cmp	r3, #0
 80007b2:	d12f      	bne.n	8000814 <HAL_ADC_Init+0xe0>
 80007b4:	f897 3067 	ldrb.w	r3, [r7, #103]	; 0x67
 80007b8:	2b00      	cmp	r3, #0
 80007ba:	d12b      	bne.n	8000814 <HAL_ADC_Init+0xe0>
            (tmp_hal_status == HAL_OK)                                  )
        {
          /* Set ADC state */
          ADC_STATE_CLR_SET(hadc->State,
 80007bc:	687b      	ldr	r3, [r7, #4]
 80007be:	6c1b      	ldr	r3, [r3, #64]	; 0x40
 80007c0:	f423 5388 	bic.w	r3, r3, #4352	; 0x1100
 80007c4:	f023 0302 	bic.w	r3, r3, #2
 80007c8:	f043 0202 	orr.w	r2, r3, #2
 80007cc:	687b      	ldr	r3, [r7, #4]
 80007ce:	641a      	str	r2, [r3, #64]	; 0x40
                            HAL_ADC_STATE_REG_BUSY | HAL_ADC_STATE_INJ_BUSY,
                            HAL_ADC_STATE_BUSY_INTERNAL);
          
          /* Set the intermediate state before moving the ADC voltage         */
          /* regulator to state enable.                                       */
          CLEAR_BIT(hadc->Instance->CR, (ADC_CR_ADVREGEN_1 | ADC_CR_ADVREGEN_0));
 80007d0:	687b      	ldr	r3, [r7, #4]
 80007d2:	681b      	ldr	r3, [r3, #0]
 80007d4:	689a      	ldr	r2, [r3, #8]
 80007d6:	687b      	ldr	r3, [r7, #4]
 80007d8:	681b      	ldr	r3, [r3, #0]
 80007da:	f022 5240 	bic.w	r2, r2, #805306368	; 0x30000000
 80007de:	609a      	str	r2, [r3, #8]
          /* Set ADVREGEN bits to 0x01U */
          SET_BIT(hadc->Instance->CR, ADC_CR_ADVREGEN_0);
 80007e0:	687b      	ldr	r3, [r7, #4]
 80007e2:	681b      	ldr	r3, [r3, #0]
 80007e4:	689a      	ldr	r2, [r3, #8]
 80007e6:	687b      	ldr	r3, [r7, #4]
 80007e8:	681b      	ldr	r3, [r3, #0]
 80007ea:	f042 5280 	orr.w	r2, r2, #268435456	; 0x10000000
 80007ee:	609a      	str	r2, [r3, #8]
          
          /* Delay for ADC stabilization time.                                */
          /* Compute number of CPU cycles to wait for */
          wait_loop_index = (ADC_STAB_DELAY_US * (SystemCoreClock / 1000000U));
 80007f0:	4b94      	ldr	r3, [pc, #592]	; (8000a44 <HAL_ADC_Init+0x310>)
 80007f2:	681b      	ldr	r3, [r3, #0]
 80007f4:	4a94      	ldr	r2, [pc, #592]	; (8000a48 <HAL_ADC_Init+0x314>)
 80007f6:	fba2 2303 	umull	r2, r3, r2, r3
 80007fa:	0c9a      	lsrs	r2, r3, #18
 80007fc:	4613      	mov	r3, r2
 80007fe:	009b      	lsls	r3, r3, #2
 8000800:	4413      	add	r3, r2
 8000802:	005b      	lsls	r3, r3, #1
 8000804:	60bb      	str	r3, [r7, #8]
          while(wait_loop_index != 0U)
 8000806:	e002      	b.n	800080e <HAL_ADC_Init+0xda>
          {
            wait_loop_index--;
 8000808:	68bb      	ldr	r3, [r7, #8]
 800080a:	3b01      	subs	r3, #1
 800080c:	60bb      	str	r3, [r7, #8]
          while(wait_loop_index != 0U)
 800080e:	68bb      	ldr	r3, [r7, #8]
 8000810:	2b00      	cmp	r3, #0
 8000812:	d1f9      	bne.n	8000808 <HAL_ADC_Init+0xd4>
    }
    
    /* Verification that ADC voltage regulator is correctly enabled, whether  */
    /* or not ADC is coming from state reset (if any potential problem of     */
    /* clocking, voltage regulator would not be enabled).                     */
    if (HAL_IS_BIT_CLR(hadc->Instance->CR, ADC_CR_ADVREGEN_0) ||
 8000814:	687b      	ldr	r3, [r7, #4]
 8000816:	681b      	ldr	r3, [r3, #0]
 8000818:	689b      	ldr	r3, [r3, #8]
 800081a:	f003 5380 	and.w	r3, r3, #268435456	; 0x10000000
 800081e:	2b00      	cmp	r3, #0
 8000820:	d007      	beq.n	8000832 <HAL_ADC_Init+0xfe>
        HAL_IS_BIT_SET(hadc->Instance->CR, ADC_CR_ADVREGEN_1)   )
 8000822:	687b      	ldr	r3, [r7, #4]
 8000824:	681b      	ldr	r3, [r3, #0]
 8000826:	689b      	ldr	r3, [r3, #8]
 8000828:	f003 5300 	and.w	r3, r3, #536870912	; 0x20000000
    if (HAL_IS_BIT_CLR(hadc->Instance->CR, ADC_CR_ADVREGEN_0) ||
 800082c:	f1b3 5f00 	cmp.w	r3, #536870912	; 0x20000000
 8000830:	d110      	bne.n	8000854 <HAL_ADC_Init+0x120>
    {
      /* Update ADC state machine to error */
      ADC_STATE_CLR_SET(hadc->State,
 8000832:	687b      	ldr	r3, [r7, #4]
 8000834:	6c1b      	ldr	r3, [r3, #64]	; 0x40
 8000836:	f023 0312 	bic.w	r3, r3, #18
 800083a:	f043 0210 	orr.w	r2, r3, #16
 800083e:	687b      	ldr	r3, [r7, #4]
 8000840:	641a      	str	r2, [r3, #64]	; 0x40
                        HAL_ADC_STATE_BUSY_INTERNAL,
                        HAL_ADC_STATE_ERROR_INTERNAL);
      
      /* Set ADC error code to ADC IP internal error */
      SET_BIT(hadc->ErrorCode, HAL_ADC_ERROR_INTERNAL);
 8000842:	687b      	ldr	r3, [r7, #4]
 8000844:	6c5b      	ldr	r3, [r3, #68]	; 0x44
 8000846:	f043 0201 	orr.w	r2, r3, #1
 800084a:	687b      	ldr	r3, [r7, #4]
 800084c:	645a      	str	r2, [r3, #68]	; 0x44
      
      tmp_hal_status = HAL_ERROR;
 800084e:	2301      	movs	r3, #1
 8000850:	f887 3067 	strb.w	r3, [r7, #103]	; 0x67
  
  /* Configuration of ADC parameters if previous preliminary actions are      */ 
  /* correctly completed and if there is no conversion on going on regular    */
  /* group (ADC may already be enabled at this point if HAL_ADC_Init() is     */
  /* called to update a parameter on the fly).                                */
  if (HAL_IS_BIT_CLR(hadc->State, HAL_ADC_STATE_ERROR_INTERNAL) &&
 8000854:	687b      	ldr	r3, [r7, #4]
 8000856:	6c1b      	ldr	r3, [r3, #64]	; 0x40
 8000858:	f003 0310 	and.w	r3, r3, #16
 800085c:	2b00      	cmp	r3, #0
 800085e:	f040 80df 	bne.w	8000a20 <HAL_ADC_Init+0x2ec>
 8000862:	f897 3067 	ldrb.w	r3, [r7, #103]	; 0x67
 8000866:	2b00      	cmp	r3, #0
 8000868:	f040 80da 	bne.w	8000a20 <HAL_ADC_Init+0x2ec>
      (tmp_hal_status == HAL_OK)                                &&
      (ADC_IS_CONVERSION_ONGOING_REGULAR(hadc) == RESET)          )
 800086c:	687b      	ldr	r3, [r7, #4]
 800086e:	681b      	ldr	r3, [r3, #0]
 8000870:	689b      	ldr	r3, [r3, #8]
 8000872:	f003 0304 	and.w	r3, r3, #4
      (tmp_hal_status == HAL_OK)                                &&
 8000876:	2b00      	cmp	r3, #0
 8000878:	f040 80d2 	bne.w	8000a20 <HAL_ADC_Init+0x2ec>
  {
    /* Set ADC state */
    ADC_STATE_CLR_SET(hadc->State,
 800087c:	687b      	ldr	r3, [r7, #4]
 800087e:	6c1b      	ldr	r3, [r3, #64]	; 0x40
 8000880:	f423 7381 	bic.w	r3, r3, #258	; 0x102
 8000884:	f043 0202 	orr.w	r2, r3, #2
 8000888:	687b      	ldr	r3, [r7, #4]
 800088a:	641a      	str	r2, [r3, #64]	; 0x40
    /* Configuration of common ADC parameters                                 */
    
    /* Pointer to the common control register to which is belonging hadc      */
    /* (Depending on STM32F3 product, there may be up to 4 ADC and 2 common   */
    /* control registers)                                                     */
    tmpADC_Common = ADC_COMMON_REGISTER(hadc);
 800088c:	4b6f      	ldr	r3, [pc, #444]	; (8000a4c <HAL_ADC_Init+0x318>)
 800088e:	65fb      	str	r3, [r7, #92]	; 0x5c
    
    /* Set handle of the other ADC sharing the same common register           */
    ADC_COMMON_ADC_OTHER(hadc, &tmphadcSharingSameCommonRegister);
 8000890:	687b      	ldr	r3, [r7, #4]
 8000892:	681b      	ldr	r3, [r3, #0]
 8000894:	f1b3 4fa0 	cmp.w	r3, #1342177280	; 0x50000000
 8000898:	d102      	bne.n	80008a0 <HAL_ADC_Init+0x16c>
 800089a:	4b6d      	ldr	r3, [pc, #436]	; (8000a50 <HAL_ADC_Init+0x31c>)
 800089c:	60fb      	str	r3, [r7, #12]
 800089e:	e002      	b.n	80008a6 <HAL_ADC_Init+0x172>
 80008a0:	f04f 43a0 	mov.w	r3, #1342177280	; 0x50000000
 80008a4:	60fb      	str	r3, [r7, #12]
    
    
    /* Parameters update conditioned to ADC state:                            */
    /* Parameters that can be updated only when ADC is disabled:              */
    /*  - Multimode clock configuration                                       */
    if ((ADC_IS_ENABLE(hadc) == RESET)                                   &&
 80008a6:	687b      	ldr	r3, [r7, #4]
 80008a8:	681b      	ldr	r3, [r3, #0]
 80008aa:	689b      	ldr	r3, [r3, #8]
 80008ac:	f003 0303 	and.w	r3, r3, #3
 80008b0:	2b01      	cmp	r3, #1
 80008b2:	d108      	bne.n	80008c6 <HAL_ADC_Init+0x192>
 80008b4:	687b      	ldr	r3, [r7, #4]
 80008b6:	681b      	ldr	r3, [r3, #0]
 80008b8:	681b      	ldr	r3, [r3, #0]
 80008ba:	f003 0301 	and.w	r3, r3, #1
 80008be:	2b01      	cmp	r3, #1
 80008c0:	d101      	bne.n	80008c6 <HAL_ADC_Init+0x192>
 80008c2:	2301      	movs	r3, #1
 80008c4:	e000      	b.n	80008c8 <HAL_ADC_Init+0x194>
 80008c6:	2300      	movs	r3, #0
 80008c8:	2b00      	cmp	r3, #0
 80008ca:	d11c      	bne.n	8000906 <HAL_ADC_Init+0x1d2>
        ((tmphadcSharingSameCommonRegister.Instance == NULL)         ||
 80008cc:	68fb      	ldr	r3, [r7, #12]
    if ((ADC_IS_ENABLE(hadc) == RESET)                                   &&
 80008ce:	2b00      	cmp	r3, #0
 80008d0:	d010      	beq.n	80008f4 <HAL_ADC_Init+0x1c0>
         (ADC_IS_ENABLE(&tmphadcSharingSameCommonRegister) == RESET)   )   )
 80008d2:	68fb      	ldr	r3, [r7, #12]
 80008d4:	689b      	ldr	r3, [r3, #8]
 80008d6:	f003 0303 	and.w	r3, r3, #3
 80008da:	2b01      	cmp	r3, #1
 80008dc:	d107      	bne.n	80008ee <HAL_ADC_Init+0x1ba>
 80008de:	68fb      	ldr	r3, [r7, #12]
 80008e0:	681b      	ldr	r3, [r3, #0]
 80008e2:	f003 0301 	and.w	r3, r3, #1
 80008e6:	2b01      	cmp	r3, #1
 80008e8:	d101      	bne.n	80008ee <HAL_ADC_Init+0x1ba>
 80008ea:	2301      	movs	r3, #1
 80008ec:	e000      	b.n	80008f0 <HAL_ADC_Init+0x1bc>
 80008ee:	2300      	movs	r3, #0
        ((tmphadcSharingSameCommonRegister.Instance == NULL)         ||
 80008f0:	2b00      	cmp	r3, #0
 80008f2:	d108      	bne.n	8000906 <HAL_ADC_Init+0x1d2>
      /*     into HAL_ADCEx_MultiModeConfigChannel() )                        */
      /*   - internal measurement paths: Vbat, temperature sensor, Vref       */
      /*     (set into HAL_ADC_ConfigChannel() or                             */
      /*     HAL_ADCEx_InjectedConfigChannel() )                              */
     
      MODIFY_REG(tmpADC_Common->CCR       ,
 80008f4:	6dfb      	ldr	r3, [r7, #92]	; 0x5c
 80008f6:	689b      	ldr	r3, [r3, #8]
 80008f8:	f423 3240 	bic.w	r2, r3, #196608	; 0x30000
 80008fc:	687b      	ldr	r3, [r7, #4]
 80008fe:	685b      	ldr	r3, [r3, #4]
 8000900:	431a      	orrs	r2, r3
 8000902:	6dfb      	ldr	r3, [r7, #92]	; 0x5c
 8000904:	609a      	str	r2, [r3, #8]
    /*  - external trigger to start conversion                                */
    /*  - external trigger polarity                                           */
    /*  - continuous conversion mode                                          */
    /*  - overrun                                                             */
    /*  - discontinuous mode                                                  */
    SET_BIT(tmpCFGR, ADC_CFGR_CONTINUOUS((uint32_t)hadc->Init.ContinuousConvMode) |
 8000906:	687b      	ldr	r3, [r7, #4]
 8000908:	7e5b      	ldrb	r3, [r3, #25]
 800090a:	035b      	lsls	r3, r3, #13
 800090c:	687a      	ldr	r2, [r7, #4]
 800090e:	6b52      	ldr	r2, [r2, #52]	; 0x34
 8000910:	2a01      	cmp	r2, #1
 8000912:	d002      	beq.n	800091a <HAL_ADC_Init+0x1e6>
 8000914:	f44f 5280 	mov.w	r2, #4096	; 0x1000
 8000918:	e000      	b.n	800091c <HAL_ADC_Init+0x1e8>
 800091a:	2200      	movs	r2, #0
 800091c:	431a      	orrs	r2, r3
 800091e:	687b      	ldr	r3, [r7, #4]
 8000920:	68db      	ldr	r3, [r3, #12]
 8000922:	431a      	orrs	r2, r3
 8000924:	687b      	ldr	r3, [r7, #4]
 8000926:	689b      	ldr	r3, [r3, #8]
 8000928:	4313      	orrs	r3, r2
 800092a:	6e3a      	ldr	r2, [r7, #96]	; 0x60
 800092c:	4313      	orrs	r3, r2
 800092e:	663b      	str	r3, [r7, #96]	; 0x60
                     ADC_CFGR_OVERRUN(hadc->Init.Overrun)               |
                     hadc->Init.DataAlign                               |
                     hadc->Init.Resolution                               );
    
    /* Enable discontinuous mode only if continuous mode is disabled */
    if (hadc->Init.DiscontinuousConvMode == ENABLE)
 8000930:	687b      	ldr	r3, [r7, #4]
 8000932:	f893 3020 	ldrb.w	r3, [r3, #32]
 8000936:	2b01      	cmp	r3, #1
 8000938:	d11b      	bne.n	8000972 <HAL_ADC_Init+0x23e>
    {
      if (hadc->Init.ContinuousConvMode == DISABLE)
 800093a:	687b      	ldr	r3, [r7, #4]
 800093c:	7e5b      	ldrb	r3, [r3, #25]
 800093e:	2b00      	cmp	r3, #0
 8000940:	d109      	bne.n	8000956 <HAL_ADC_Init+0x222>
      {
        /* Enable the selected ADC regular discontinuous mode */
        /* Set the number of channels to be converted in discontinuous mode */
        SET_BIT(tmpCFGR, ADC_CFGR_DISCEN                                            |
 8000942:	687b      	ldr	r3, [r7, #4]
 8000944:	6a5b      	ldr	r3, [r3, #36]	; 0x24
 8000946:	3b01      	subs	r3, #1
 8000948:	045a      	lsls	r2, r3, #17
 800094a:	6e3b      	ldr	r3, [r7, #96]	; 0x60
 800094c:	4313      	orrs	r3, r2
 800094e:	f443 3380 	orr.w	r3, r3, #65536	; 0x10000
 8000952:	663b      	str	r3, [r7, #96]	; 0x60
 8000954:	e00d      	b.n	8000972 <HAL_ADC_Init+0x23e>
        /* ADC regular group discontinuous was intended to be enabled,        */
        /* but ADC regular group modes continuous and sequencer discontinuous */
        /* cannot be enabled simultaneously.                                  */
        
        /* Update ADC state machine to error */
        ADC_STATE_CLR_SET(hadc->State,
 8000956:	687b      	ldr	r3, [r7, #4]
 8000958:	6c1b      	ldr	r3, [r3, #64]	; 0x40
 800095a:	f023 0322 	bic.w	r3, r3, #34	; 0x22
 800095e:	f043 0220 	orr.w	r2, r3, #32
 8000962:	687b      	ldr	r3, [r7, #4]
 8000964:	641a      	str	r2, [r3, #64]	; 0x40
                          HAL_ADC_STATE_BUSY_INTERNAL,
                          HAL_ADC_STATE_ERROR_CONFIG);
        
        /* Set ADC error code to ADC IP internal error */
        SET_BIT(hadc->ErrorCode, HAL_ADC_ERROR_INTERNAL);
 8000966:	687b      	ldr	r3, [r7, #4]
 8000968:	6c5b      	ldr	r3, [r3, #68]	; 0x44
 800096a:	f043 0201 	orr.w	r2, r3, #1
 800096e:	687b      	ldr	r3, [r7, #4]
 8000970:	645a      	str	r2, [r3, #68]	; 0x44
    /* Enable external trigger if trigger selection is different of software  */
    /* start.                                                                 */
    /* Note: This configuration keeps the hardware feature of parameter       */
    /*       ExternalTrigConvEdge "trigger edge none" equivalent to           */
    /*       software start.                                                  */
    if (hadc->Init.ExternalTrigConv != ADC_SOFTWARE_START)
 8000972:	687b      	ldr	r3, [r7, #4]
 8000974:	6a9b      	ldr	r3, [r3, #40]	; 0x28
 8000976:	2b01      	cmp	r3, #1
 8000978:	d007      	beq.n	800098a <HAL_ADC_Init+0x256>
    {
      SET_BIT(tmpCFGR, ADC_CFGR_EXTSEL_SET(hadc, hadc->Init.ExternalTrigConv) |
 800097a:	687b      	ldr	r3, [r7, #4]
 800097c:	6a9a      	ldr	r2, [r3, #40]	; 0x28
 800097e:	687b      	ldr	r3, [r7, #4]
 8000980:	6adb      	ldr	r3, [r3, #44]	; 0x2c
 8000982:	4313      	orrs	r3, r2
 8000984:	6e3a      	ldr	r2, [r7, #96]	; 0x60
 8000986:	4313      	orrs	r3, r2
 8000988:	663b      	str	r3, [r7, #96]	; 0x60
    /* Parameters update conditioned to ADC state:                            */
    /* Parameters that can be updated when ADC is disabled or enabled without */
    /* conversion on going on regular and injected groups:                    */
    /*  - DMA continuous request                                              */
    /*  - LowPowerAutoWait feature                                            */
    if (ADC_IS_CONVERSION_ONGOING_REGULAR_INJECTED(hadc) == RESET)
 800098a:	687b      	ldr	r3, [r7, #4]
 800098c:	681b      	ldr	r3, [r3, #0]
 800098e:	689b      	ldr	r3, [r3, #8]
 8000990:	f003 030c 	and.w	r3, r3, #12
 8000994:	2b00      	cmp	r3, #0
 8000996:	d114      	bne.n	80009c2 <HAL_ADC_Init+0x28e>
    {
      CLEAR_BIT(hadc->Instance->CFGR, ADC_CFGR_AUTDLY |
 8000998:	687b      	ldr	r3, [r7, #4]
 800099a:	681b      	ldr	r3, [r3, #0]
 800099c:	68db      	ldr	r3, [r3, #12]
 800099e:	687a      	ldr	r2, [r7, #4]
 80009a0:	6812      	ldr	r2, [r2, #0]
 80009a2:	f423 4380 	bic.w	r3, r3, #16384	; 0x4000
 80009a6:	f023 0302 	bic.w	r3, r3, #2
 80009aa:	60d3      	str	r3, [r2, #12]
                                      ADC_CFGR_DMACFG  );
      
      SET_BIT(tmpCFGR, ADC_CFGR_AUTOWAIT((uint32_t)hadc->Init.LowPowerAutoWait) |
 80009ac:	687b      	ldr	r3, [r7, #4]
 80009ae:	7e1b      	ldrb	r3, [r3, #24]
 80009b0:	039a      	lsls	r2, r3, #14
 80009b2:	687b      	ldr	r3, [r7, #4]
 80009b4:	f893 3030 	ldrb.w	r3, [r3, #48]	; 0x30
 80009b8:	005b      	lsls	r3, r3, #1
 80009ba:	4313      	orrs	r3, r2
 80009bc:	6e3a      	ldr	r2, [r7, #96]	; 0x60
 80009be:	4313      	orrs	r3, r2
 80009c0:	663b      	str	r3, [r7, #96]	; 0x60
                       ADC_CFGR_DMACONTREQ((uint32_t)hadc->Init.DMAContinuousRequests) );
    }
    
    /* Update ADC configuration register with previous settings */
    MODIFY_REG(hadc->Instance->CFGR,
 80009c2:	687b      	ldr	r3, [r7, #4]
 80009c4:	681b      	ldr	r3, [r3, #0]
 80009c6:	68da      	ldr	r2, [r3, #12]
 80009c8:	4b22      	ldr	r3, [pc, #136]	; (8000a54 <HAL_ADC_Init+0x320>)
 80009ca:	4013      	ands	r3, r2
 80009cc:	687a      	ldr	r2, [r7, #4]
 80009ce:	6812      	ldr	r2, [r2, #0]
 80009d0:	6e39      	ldr	r1, [r7, #96]	; 0x60
 80009d2:	430b      	orrs	r3, r1
 80009d4:	60d3      	str	r3, [r2, #12]
    /*   Parameter "NbrOfConversion" is discarded.                            */
    /*   Note: Scan mode is not present by hardware on this device, but       */
    /*   emulated by software for alignment over all STM32 devices.           */
    /* - if scan mode is enabled, regular channels sequence length is set to  */
    /*   parameter "NbrOfConversion"                                          */   
    if (hadc->Init.ScanConvMode == ADC_SCAN_ENABLE)
 80009d6:	687b      	ldr	r3, [r7, #4]
 80009d8:	691b      	ldr	r3, [r3, #16]
 80009da:	2b01      	cmp	r3, #1
 80009dc:	d10c      	bne.n	80009f8 <HAL_ADC_Init+0x2c4>
    {
      /* Set number of ranks in regular group sequencer */     
      MODIFY_REG(hadc->Instance->SQR1                     ,
 80009de:	687b      	ldr	r3, [r7, #4]
 80009e0:	681b      	ldr	r3, [r3, #0]
 80009e2:	6b1b      	ldr	r3, [r3, #48]	; 0x30
 80009e4:	f023 010f 	bic.w	r1, r3, #15
 80009e8:	687b      	ldr	r3, [r7, #4]
 80009ea:	69db      	ldr	r3, [r3, #28]
 80009ec:	1e5a      	subs	r2, r3, #1
 80009ee:	687b      	ldr	r3, [r7, #4]
 80009f0:	681b      	ldr	r3, [r3, #0]
 80009f2:	430a      	orrs	r2, r1
 80009f4:	631a      	str	r2, [r3, #48]	; 0x30
 80009f6:	e007      	b.n	8000a08 <HAL_ADC_Init+0x2d4>
                 ADC_SQR1_L                               ,
                 (hadc->Init.NbrOfConversion - (uint8_t)1U) );  
    }
    else
    {
      CLEAR_BIT(hadc->Instance->SQR1, ADC_SQR1_L);
 80009f8:	687b      	ldr	r3, [r7, #4]
 80009fa:	681b      	ldr	r3, [r3, #0]
 80009fc:	6b1a      	ldr	r2, [r3, #48]	; 0x30
 80009fe:	687b      	ldr	r3, [r7, #4]
 8000a00:	681b      	ldr	r3, [r3, #0]
 8000a02:	f022 020f 	bic.w	r2, r2, #15
 8000a06:	631a      	str	r2, [r3, #48]	; 0x30
    }
    
    /* Set ADC error code to none */
    ADC_CLEAR_ERRORCODE(hadc);
 8000a08:	687b      	ldr	r3, [r7, #4]
 8000a0a:	2200      	movs	r2, #0
 8000a0c:	645a      	str	r2, [r3, #68]	; 0x44
    
    /* Set the ADC state */
    ADC_STATE_CLR_SET(hadc->State,
 8000a0e:	687b      	ldr	r3, [r7, #4]
 8000a10:	6c1b      	ldr	r3, [r3, #64]	; 0x40
 8000a12:	f023 0303 	bic.w	r3, r3, #3
 8000a16:	f043 0201 	orr.w	r2, r3, #1
 8000a1a:	687b      	ldr	r3, [r7, #4]
 8000a1c:	641a      	str	r2, [r3, #64]	; 0x40
 8000a1e:	e00a      	b.n	8000a36 <HAL_ADC_Init+0x302>
                      HAL_ADC_STATE_READY);
  }
  else
  {
    /* Update ADC state machine to error */
    ADC_STATE_CLR_SET(hadc->State,
 8000a20:	687b      	ldr	r3, [r7, #4]
 8000a22:	6c1b      	ldr	r3, [r3, #64]	; 0x40
 8000a24:	f023 0312 	bic.w	r3, r3, #18
 8000a28:	f043 0210 	orr.w	r2, r3, #16
 8000a2c:	687b      	ldr	r3, [r7, #4]
 8000a2e:	641a      	str	r2, [r3, #64]	; 0x40
                      HAL_ADC_STATE_BUSY_INTERNAL,
                      HAL_ADC_STATE_ERROR_INTERNAL);
    
    tmp_hal_status = HAL_ERROR; 
 8000a30:	2301      	movs	r3, #1
 8000a32:	f887 3067 	strb.w	r3, [r7, #103]	; 0x67
  }
  
  
  /* Return function status */
  return tmp_hal_status;
 8000a36:	f897 3067 	ldrb.w	r3, [r7, #103]	; 0x67
}
 8000a3a:	4618      	mov	r0, r3
 8000a3c:	3768      	adds	r7, #104	; 0x68
 8000a3e:	46bd      	mov	sp, r7
 8000a40:	bd80      	pop	{r7, pc}
 8000a42:	bf00      	nop
 8000a44:	20000000 	.word	0x20000000
 8000a48:	431bde83 	.word	0x431bde83
 8000a4c:	50000300 	.word	0x50000300
 8000a50:	50000100 	.word	0x50000100
 8000a54:	fff0c007 	.word	0xfff0c007

08000a58 <HAL_ADC_Start_IT>:
  *         For ADC master, ADC is enabled and multimode conversion is started.
  * @param  hadc ADC handle
  * @retval HAL status
  */
HAL_StatusTypeDef HAL_ADC_Start_IT(ADC_HandleTypeDef* hadc)
{
 8000a58:	b580      	push	{r7, lr}
 8000a5a:	b084      	sub	sp, #16
 8000a5c:	af00      	add	r7, sp, #0
 8000a5e:	6078      	str	r0, [r7, #4]
  HAL_StatusTypeDef tmp_hal_status = HAL_OK;
 8000a60:	2300      	movs	r3, #0
 8000a62:	73fb      	strb	r3, [r7, #15]
  
  /* Check the parameters */
  assert_param(IS_ADC_ALL_INSTANCE(hadc->Instance));
  
  /* Perform ADC enable and conversion start if no conversion is on going */
  if (ADC_IS_CONVERSION_ONGOING_REGULAR(hadc) == RESET)
 8000a64:	687b      	ldr	r3, [r7, #4]
 8000a66:	681b      	ldr	r3, [r3, #0]
 8000a68:	689b      	ldr	r3, [r3, #8]
 8000a6a:	f003 0304 	and.w	r3, r3, #4
 8000a6e:	2b00      	cmp	r3, #0
 8000a70:	f040 80c6 	bne.w	8000c00 <HAL_ADC_Start_IT+0x1a8>
  {
    /* Process locked */
    __HAL_LOCK(hadc);
 8000a74:	687b      	ldr	r3, [r7, #4]
 8000a76:	f893 303c 	ldrb.w	r3, [r3, #60]	; 0x3c
 8000a7a:	2b01      	cmp	r3, #1
 8000a7c:	d101      	bne.n	8000a82 <HAL_ADC_Start_IT+0x2a>
 8000a7e:	2302      	movs	r3, #2
 8000a80:	e0c1      	b.n	8000c06 <HAL_ADC_Start_IT+0x1ae>
 8000a82:	687b      	ldr	r3, [r7, #4]
 8000a84:	2201      	movs	r2, #1
 8000a86:	f883 203c 	strb.w	r2, [r3, #60]	; 0x3c
    
    /* Enable the ADC peripheral */
    tmp_hal_status = ADC_Enable(hadc);
 8000a8a:	6878      	ldr	r0, [r7, #4]
 8000a8c:	f000 fea2 	bl	80017d4 <ADC_Enable>
 8000a90:	4603      	mov	r3, r0
 8000a92:	73fb      	strb	r3, [r7, #15]
    
    /* Start conversion if ADC is effectively enabled */
    if (tmp_hal_status == HAL_OK)
 8000a94:	7bfb      	ldrb	r3, [r7, #15]
 8000a96:	2b00      	cmp	r3, #0
 8000a98:	f040 80ad 	bne.w	8000bf6 <HAL_ADC_Start_IT+0x19e>
    {
      /* Set ADC state                                                        */
      /* - Clear state bitfield related to regular group conversion results   */
      /* - Set state bitfield related to regular operation                    */
      ADC_STATE_CLR_SET(hadc->State,
 8000a9c:	687b      	ldr	r3, [r7, #4]
 8000a9e:	6c1b      	ldr	r3, [r3, #64]	; 0x40
 8000aa0:	f423 6370 	bic.w	r3, r3, #3840	; 0xf00
 8000aa4:	f023 0301 	bic.w	r3, r3, #1
 8000aa8:	f443 7280 	orr.w	r2, r3, #256	; 0x100
 8000aac:	687b      	ldr	r3, [r7, #4]
 8000aae:	641a      	str	r2, [r3, #64]	; 0x40
                        HAL_ADC_STATE_REG_BUSY);
      
      /* Set group injected state (from auto-injection) and multimode state   */
      /* for all cases of multimode: independent mode, multimode ADC master   */
      /* or multimode ADC slave (for devices with several ADCs):              */
      if (ADC_NONMULTIMODE_OR_MULTIMODEMASTER(hadc))
 8000ab0:	4b57      	ldr	r3, [pc, #348]	; (8000c10 <HAL_ADC_Start_IT+0x1b8>)
 8000ab2:	689b      	ldr	r3, [r3, #8]
 8000ab4:	f003 031f 	and.w	r3, r3, #31
 8000ab8:	2b00      	cmp	r3, #0
 8000aba:	d004      	beq.n	8000ac6 <HAL_ADC_Start_IT+0x6e>
 8000abc:	687b      	ldr	r3, [r7, #4]
 8000abe:	681b      	ldr	r3, [r3, #0]
 8000ac0:	f1b3 4fa0 	cmp.w	r3, #1342177280	; 0x50000000
 8000ac4:	d115      	bne.n	8000af2 <HAL_ADC_Start_IT+0x9a>
      {
        /* Set ADC state (ADC independent or master) */
        CLEAR_BIT(hadc->State, HAL_ADC_STATE_MULTIMODE_SLAVE);
 8000ac6:	687b      	ldr	r3, [r7, #4]
 8000ac8:	6c1b      	ldr	r3, [r3, #64]	; 0x40
 8000aca:	f423 1280 	bic.w	r2, r3, #1048576	; 0x100000
 8000ace:	687b      	ldr	r3, [r7, #4]
 8000ad0:	641a      	str	r2, [r3, #64]	; 0x40
        
        /* If conversions on group regular are also triggering group injected,*/
        /* update ADC state.                                                  */
        if (READ_BIT(hadc->Instance->CFGR, ADC_CFGR_JAUTO) != RESET)
 8000ad2:	687b      	ldr	r3, [r7, #4]
 8000ad4:	681b      	ldr	r3, [r3, #0]
 8000ad6:	68db      	ldr	r3, [r3, #12]
 8000ad8:	f003 7300 	and.w	r3, r3, #33554432	; 0x2000000
 8000adc:	2b00      	cmp	r3, #0
 8000ade:	d027      	beq.n	8000b30 <HAL_ADC_Start_IT+0xd8>
        {
          ADC_STATE_CLR_SET(hadc->State, HAL_ADC_STATE_INJ_EOC, HAL_ADC_STATE_INJ_BUSY);  
 8000ae0:	687b      	ldr	r3, [r7, #4]
 8000ae2:	6c1b      	ldr	r3, [r3, #64]	; 0x40
 8000ae4:	f423 5340 	bic.w	r3, r3, #12288	; 0x3000
 8000ae8:	f443 5280 	orr.w	r2, r3, #4096	; 0x1000
 8000aec:	687b      	ldr	r3, [r7, #4]
 8000aee:	641a      	str	r2, [r3, #64]	; 0x40
        if (READ_BIT(hadc->Instance->CFGR, ADC_CFGR_JAUTO) != RESET)
 8000af0:	e01e      	b.n	8000b30 <HAL_ADC_Start_IT+0xd8>
        }
      }
      else
      {
        /* Set ADC state (ADC slave) */
        SET_BIT(hadc->State, HAL_ADC_STATE_MULTIMODE_SLAVE);
 8000af2:	687b      	ldr	r3, [r7, #4]
 8000af4:	6c1b      	ldr	r3, [r3, #64]	; 0x40
 8000af6:	f443 1280 	orr.w	r2, r3, #1048576	; 0x100000
 8000afa:	687b      	ldr	r3, [r7, #4]
 8000afc:	641a      	str	r2, [r3, #64]	; 0x40
        
        /* If conversions on group regular are also triggering group injected,*/
        /* update ADC state.                                                  */
        if (ADC_MULTIMODE_AUTO_INJECTED(hadc))
 8000afe:	687b      	ldr	r3, [r7, #4]
 8000b00:	681b      	ldr	r3, [r3, #0]
 8000b02:	f1b3 4fa0 	cmp.w	r3, #1342177280	; 0x50000000
 8000b06:	d004      	beq.n	8000b12 <HAL_ADC_Start_IT+0xba>
 8000b08:	687b      	ldr	r3, [r7, #4]
 8000b0a:	681b      	ldr	r3, [r3, #0]
 8000b0c:	4a41      	ldr	r2, [pc, #260]	; (8000c14 <HAL_ADC_Start_IT+0x1bc>)
 8000b0e:	4293      	cmp	r3, r2
 8000b10:	d10e      	bne.n	8000b30 <HAL_ADC_Start_IT+0xd8>
 8000b12:	f04f 43a0 	mov.w	r3, #1342177280	; 0x50000000
 8000b16:	68db      	ldr	r3, [r3, #12]
 8000b18:	f003 7300 	and.w	r3, r3, #33554432	; 0x2000000
 8000b1c:	2b00      	cmp	r3, #0
 8000b1e:	d007      	beq.n	8000b30 <HAL_ADC_Start_IT+0xd8>
        {
          ADC_STATE_CLR_SET(hadc->State, HAL_ADC_STATE_INJ_EOC, HAL_ADC_STATE_INJ_BUSY);
 8000b20:	687b      	ldr	r3, [r7, #4]
 8000b22:	6c1b      	ldr	r3, [r3, #64]	; 0x40
 8000b24:	f423 5340 	bic.w	r3, r3, #12288	; 0x3000
 8000b28:	f443 5280 	orr.w	r2, r3, #4096	; 0x1000
 8000b2c:	687b      	ldr	r3, [r7, #4]
 8000b2e:	641a      	str	r2, [r3, #64]	; 0x40
        }
      }
      
      /* State machine update: Check if an injected conversion is ongoing */
      if (HAL_IS_BIT_SET(hadc->State, HAL_ADC_STATE_INJ_BUSY))
 8000b30:	687b      	ldr	r3, [r7, #4]
 8000b32:	6c1b      	ldr	r3, [r3, #64]	; 0x40
 8000b34:	f403 5380 	and.w	r3, r3, #4096	; 0x1000
 8000b38:	f5b3 5f80 	cmp.w	r3, #4096	; 0x1000
 8000b3c:	d106      	bne.n	8000b4c <HAL_ADC_Start_IT+0xf4>
      {
        /* Reset ADC error code fields related to conversions on group regular*/
        CLEAR_BIT(hadc->ErrorCode, (HAL_ADC_ERROR_OVR | HAL_ADC_ERROR_DMA));         
 8000b3e:	687b      	ldr	r3, [r7, #4]
 8000b40:	6c5b      	ldr	r3, [r3, #68]	; 0x44
 8000b42:	f023 0206 	bic.w	r2, r3, #6
 8000b46:	687b      	ldr	r3, [r7, #4]
 8000b48:	645a      	str	r2, [r3, #68]	; 0x44
 8000b4a:	e002      	b.n	8000b52 <HAL_ADC_Start_IT+0xfa>
      }
      else
      {
        /* Reset ADC all error code fields */
        ADC_CLEAR_ERRORCODE(hadc);
 8000b4c:	687b      	ldr	r3, [r7, #4]
 8000b4e:	2200      	movs	r2, #0
 8000b50:	645a      	str	r2, [r3, #68]	; 0x44
      }
      
      /* Process unlocked */
      /* Unlock before starting ADC conversions: in case of potential         */
      /* interruption, to let the process to ADC IRQ Handler.                 */
      __HAL_UNLOCK(hadc);
 8000b52:	687b      	ldr	r3, [r7, #4]
 8000b54:	2200      	movs	r2, #0
 8000b56:	f883 203c 	strb.w	r2, [r3, #60]	; 0x3c
      
      /* Clear regular group conversion flag and overrun flag */
      /* (To ensure of no unknown state from potential previous ADC           */
      /* operations)                                                          */
      __HAL_ADC_CLEAR_FLAG(hadc, (ADC_FLAG_EOC | ADC_FLAG_EOS | ADC_FLAG_OVR));
 8000b5a:	687b      	ldr	r3, [r7, #4]
 8000b5c:	681b      	ldr	r3, [r3, #0]
 8000b5e:	221c      	movs	r2, #28
 8000b60:	601a      	str	r2, [r3, #0]
      
      /* Enable ADC end of conversion interrupt */
      /* Enable ADC overrun interrupt */  
      switch(hadc->Init.EOCSelection)
 8000b62:	687b      	ldr	r3, [r7, #4]
 8000b64:	695b      	ldr	r3, [r3, #20]
 8000b66:	2b08      	cmp	r3, #8
 8000b68:	d110      	bne.n	8000b8c <HAL_ADC_Start_IT+0x134>
      {
        case ADC_EOC_SEQ_CONV: 
          __HAL_ADC_DISABLE_IT(hadc, ADC_IT_EOC);
 8000b6a:	687b      	ldr	r3, [r7, #4]
 8000b6c:	681b      	ldr	r3, [r3, #0]
 8000b6e:	685a      	ldr	r2, [r3, #4]
 8000b70:	687b      	ldr	r3, [r7, #4]
 8000b72:	681b      	ldr	r3, [r3, #0]
 8000b74:	f022 0204 	bic.w	r2, r2, #4
 8000b78:	605a      	str	r2, [r3, #4]
          __HAL_ADC_ENABLE_IT(hadc, (ADC_IT_EOS));
 8000b7a:	687b      	ldr	r3, [r7, #4]
 8000b7c:	681b      	ldr	r3, [r3, #0]
 8000b7e:	685a      	ldr	r2, [r3, #4]
 8000b80:	687b      	ldr	r3, [r7, #4]
 8000b82:	681b      	ldr	r3, [r3, #0]
 8000b84:	f042 0208 	orr.w	r2, r2, #8
 8000b88:	605a      	str	r2, [r3, #4]
          break;
 8000b8a:	e008      	b.n	8000b9e <HAL_ADC_Start_IT+0x146>
        /* case ADC_EOC_SINGLE_CONV */
        default:
          __HAL_ADC_ENABLE_IT(hadc, (ADC_IT_EOC | ADC_IT_EOS));
 8000b8c:	687b      	ldr	r3, [r7, #4]
 8000b8e:	681b      	ldr	r3, [r3, #0]
 8000b90:	685a      	ldr	r2, [r3, #4]
 8000b92:	687b      	ldr	r3, [r7, #4]
 8000b94:	681b      	ldr	r3, [r3, #0]
 8000b96:	f042 020c 	orr.w	r2, r2, #12
 8000b9a:	605a      	str	r2, [r3, #4]
          break;
 8000b9c:	bf00      	nop
      /* If overrun is set to overwrite previous data (default setting),      */
      /* overrun interrupt is not activated (overrun event is not considered  */
      /* as an error).                                                        */
      /* (cf ref manual "Managing conversions without using the DMA and       */
      /* without overrun ")                                                   */
      if (hadc->Init.Overrun == ADC_OVR_DATA_PRESERVED)
 8000b9e:	687b      	ldr	r3, [r7, #4]
 8000ba0:	6b5b      	ldr	r3, [r3, #52]	; 0x34
 8000ba2:	2b01      	cmp	r3, #1
 8000ba4:	d107      	bne.n	8000bb6 <HAL_ADC_Start_IT+0x15e>
      {
        __HAL_ADC_DISABLE_IT(hadc, ADC_IT_OVR);
 8000ba6:	687b      	ldr	r3, [r7, #4]
 8000ba8:	681b      	ldr	r3, [r3, #0]
 8000baa:	685a      	ldr	r2, [r3, #4]
 8000bac:	687b      	ldr	r3, [r7, #4]
 8000bae:	681b      	ldr	r3, [r3, #0]
 8000bb0:	f022 0210 	bic.w	r2, r2, #16
 8000bb4:	605a      	str	r2, [r3, #4]
      /* If external trigger has been selected, conversion will start at next */
      /* trigger event.                                                       */
      /* Case of multimode enabled (for devices with several ADCs):           */
      /*  - if ADC is slave, ADC is enabled only (conversion is not started). */
      /*  - if ADC is master, ADC is enabled and conversion is started.       */
      if (ADC_NONMULTIMODE_REG_OR_MULTIMODEMASTER(hadc))
 8000bb6:	4b16      	ldr	r3, [pc, #88]	; (8000c10 <HAL_ADC_Start_IT+0x1b8>)
 8000bb8:	689b      	ldr	r3, [r3, #8]
 8000bba:	f003 031f 	and.w	r3, r3, #31
 8000bbe:	2b00      	cmp	r3, #0
 8000bc0:	d010      	beq.n	8000be4 <HAL_ADC_Start_IT+0x18c>
 8000bc2:	4b13      	ldr	r3, [pc, #76]	; (8000c10 <HAL_ADC_Start_IT+0x1b8>)
 8000bc4:	689b      	ldr	r3, [r3, #8]
 8000bc6:	f003 031f 	and.w	r3, r3, #31
 8000bca:	2b05      	cmp	r3, #5
 8000bcc:	d00a      	beq.n	8000be4 <HAL_ADC_Start_IT+0x18c>
 8000bce:	4b10      	ldr	r3, [pc, #64]	; (8000c10 <HAL_ADC_Start_IT+0x1b8>)
 8000bd0:	689b      	ldr	r3, [r3, #8]
 8000bd2:	f003 031f 	and.w	r3, r3, #31
 8000bd6:	2b09      	cmp	r3, #9
 8000bd8:	d004      	beq.n	8000be4 <HAL_ADC_Start_IT+0x18c>
 8000bda:	687b      	ldr	r3, [r7, #4]
 8000bdc:	681b      	ldr	r3, [r3, #0]
 8000bde:	f1b3 4fa0 	cmp.w	r3, #1342177280	; 0x50000000
 8000be2:	d10f      	bne.n	8000c04 <HAL_ADC_Start_IT+0x1ac>
      {
        SET_BIT(hadc->Instance->CR, ADC_CR_ADSTART);
 8000be4:	687b      	ldr	r3, [r7, #4]
 8000be6:	681b      	ldr	r3, [r3, #0]
 8000be8:	689a      	ldr	r2, [r3, #8]
 8000bea:	687b      	ldr	r3, [r7, #4]
 8000bec:	681b      	ldr	r3, [r3, #0]
 8000bee:	f042 0204 	orr.w	r2, r2, #4
 8000bf2:	609a      	str	r2, [r3, #8]
 8000bf4:	e006      	b.n	8000c04 <HAL_ADC_Start_IT+0x1ac>
      }
    }
    else
    {
      /* Process unlocked */
      __HAL_UNLOCK(hadc);
 8000bf6:	687b      	ldr	r3, [r7, #4]
 8000bf8:	2200      	movs	r2, #0
 8000bfa:	f883 203c 	strb.w	r2, [r3, #60]	; 0x3c
 8000bfe:	e001      	b.n	8000c04 <HAL_ADC_Start_IT+0x1ac>
    }
  }
  else
  {
    tmp_hal_status = HAL_BUSY;
 8000c00:	2302      	movs	r3, #2
 8000c02:	73fb      	strb	r3, [r7, #15]
  }
  
  /* Return function status */
  return tmp_hal_status;
 8000c04:	7bfb      	ldrb	r3, [r7, #15]
}
 8000c06:	4618      	mov	r0, r3
 8000c08:	3710      	adds	r7, #16
 8000c0a:	46bd      	mov	sp, r7
 8000c0c:	bd80      	pop	{r7, pc}
 8000c0e:	bf00      	nop
 8000c10:	50000300 	.word	0x50000300
 8000c14:	50000100 	.word	0x50000100

08000c18 <HAL_ADC_GetValue>:
  *         or @ref __HAL_ADC_CLEAR_FLAG(&hadc, ADC_FLAG_EOS).
  * @param  hadc ADC handle
  * @retval ADC group regular conversion data
  */
uint32_t HAL_ADC_GetValue(ADC_HandleTypeDef* hadc)
{
 8000c18:	b480      	push	{r7}
 8000c1a:	b083      	sub	sp, #12
 8000c1c:	af00      	add	r7, sp, #0
 8000c1e:	6078      	str	r0, [r7, #4]

  /* Note: ADC flag EOC is not cleared here by software because               */
  /*       automatically cleared by hardware when reading register DR.        */
  
  /* Return ADC converted value */ 
  return hadc->Instance->DR;
 8000c20:	687b      	ldr	r3, [r7, #4]
 8000c22:	681b      	ldr	r3, [r3, #0]
 8000c24:	6c1b      	ldr	r3, [r3, #64]	; 0x40
}
 8000c26:	4618      	mov	r0, r3
 8000c28:	370c      	adds	r7, #12
 8000c2a:	46bd      	mov	sp, r7
 8000c2c:	f85d 7b04 	ldr.w	r7, [sp], #4
 8000c30:	4770      	bx	lr
	...

08000c34 <HAL_ADC_IRQHandler>:
  * @brief  Handles ADC interrupt request.  
  * @param  hadc ADC handle
  * @retval None
  */
void HAL_ADC_IRQHandler(ADC_HandleTypeDef* hadc)
{
 8000c34:	b580      	push	{r7, lr}
 8000c36:	b086      	sub	sp, #24
 8000c38:	af00      	add	r7, sp, #0
 8000c3a:	6078      	str	r0, [r7, #4]
  uint32_t overrun_error = 0U; /* flag set if overrun occurrence has to be considered as an error */
 8000c3c:	2300      	movs	r3, #0
 8000c3e:	617b      	str	r3, [r7, #20]
  ADC_Common_TypeDef *tmpADC_Common;
  uint32_t tmp_cfgr     = 0x0U;
 8000c40:	2300      	movs	r3, #0
 8000c42:	613b      	str	r3, [r7, #16]
  uint32_t tmp_cfgr_jqm = 0x0U;
 8000c44:	2300      	movs	r3, #0
 8000c46:	60fb      	str	r3, [r7, #12]
  assert_param(IS_ADC_ALL_INSTANCE(hadc->Instance));
  assert_param(IS_FUNCTIONAL_STATE(hadc->Init.ContinuousConvMode));
  assert_param(IS_ADC_EOC_SELECTION(hadc->Init.EOCSelection));
  
  /* ========== Check End of Conversion flag for regular group ========== */
  if( (__HAL_ADC_GET_FLAG(hadc, ADC_FLAG_EOC) && __HAL_ADC_GET_IT_SOURCE(hadc, ADC_IT_EOC)) || 
 8000c48:	687b      	ldr	r3, [r7, #4]
 8000c4a:	681b      	ldr	r3, [r3, #0]
 8000c4c:	681b      	ldr	r3, [r3, #0]
 8000c4e:	f003 0304 	and.w	r3, r3, #4
 8000c52:	2b04      	cmp	r3, #4
 8000c54:	d106      	bne.n	8000c64 <HAL_ADC_IRQHandler+0x30>
 8000c56:	687b      	ldr	r3, [r7, #4]
 8000c58:	681b      	ldr	r3, [r3, #0]
 8000c5a:	685b      	ldr	r3, [r3, #4]
 8000c5c:	f003 0304 	and.w	r3, r3, #4
 8000c60:	2b04      	cmp	r3, #4
 8000c62:	d00d      	beq.n	8000c80 <HAL_ADC_IRQHandler+0x4c>
      (__HAL_ADC_GET_FLAG(hadc, ADC_FLAG_EOS) && __HAL_ADC_GET_IT_SOURCE(hadc, ADC_IT_EOS))   )
 8000c64:	687b      	ldr	r3, [r7, #4]
 8000c66:	681b      	ldr	r3, [r3, #0]
 8000c68:	681b      	ldr	r3, [r3, #0]
 8000c6a:	f003 0308 	and.w	r3, r3, #8
  if( (__HAL_ADC_GET_FLAG(hadc, ADC_FLAG_EOC) && __HAL_ADC_GET_IT_SOURCE(hadc, ADC_IT_EOC)) || 
 8000c6e:	2b08      	cmp	r3, #8
 8000c70:	d17a      	bne.n	8000d68 <HAL_ADC_IRQHandler+0x134>
      (__HAL_ADC_GET_FLAG(hadc, ADC_FLAG_EOS) && __HAL_ADC_GET_IT_SOURCE(hadc, ADC_IT_EOS))   )
 8000c72:	687b      	ldr	r3, [r7, #4]
 8000c74:	681b      	ldr	r3, [r3, #0]
 8000c76:	685b      	ldr	r3, [r3, #4]
 8000c78:	f003 0308 	and.w	r3, r3, #8
 8000c7c:	2b08      	cmp	r3, #8
 8000c7e:	d173      	bne.n	8000d68 <HAL_ADC_IRQHandler+0x134>
  {
    /* Update state machine on conversion status if not in error state */
    if (HAL_IS_BIT_CLR(hadc->State, HAL_ADC_STATE_ERROR_INTERNAL))
 8000c80:	687b      	ldr	r3, [r7, #4]
 8000c82:	6c1b      	ldr	r3, [r3, #64]	; 0x40
 8000c84:	f003 0310 	and.w	r3, r3, #16
 8000c88:	2b00      	cmp	r3, #0
 8000c8a:	d105      	bne.n	8000c98 <HAL_ADC_IRQHandler+0x64>
    {
      /* Set ADC state */
      SET_BIT(hadc->State, HAL_ADC_STATE_REG_EOC); 
 8000c8c:	687b      	ldr	r3, [r7, #4]
 8000c8e:	6c1b      	ldr	r3, [r3, #64]	; 0x40
 8000c90:	f443 7200 	orr.w	r2, r3, #512	; 0x200
 8000c94:	687b      	ldr	r3, [r7, #4]
 8000c96:	641a      	str	r2, [r3, #64]	; 0x40
    }
    
    /* Get relevant register CFGR in ADC instance of ADC master or slave    */
    /* in function of multimode state (for devices with multimode           */
    /* available).                                                          */
    if (ADC_NONMULTIMODE_REG_OR_MULTIMODEMASTER(hadc))
 8000c98:	4b88      	ldr	r3, [pc, #544]	; (8000ebc <HAL_ADC_IRQHandler+0x288>)
 8000c9a:	689b      	ldr	r3, [r3, #8]
 8000c9c:	f003 031f 	and.w	r3, r3, #31
 8000ca0:	2b00      	cmp	r3, #0
 8000ca2:	d010      	beq.n	8000cc6 <HAL_ADC_IRQHandler+0x92>
 8000ca4:	4b85      	ldr	r3, [pc, #532]	; (8000ebc <HAL_ADC_IRQHandler+0x288>)
 8000ca6:	689b      	ldr	r3, [r3, #8]
 8000ca8:	f003 031f 	and.w	r3, r3, #31
 8000cac:	2b05      	cmp	r3, #5
 8000cae:	d00a      	beq.n	8000cc6 <HAL_ADC_IRQHandler+0x92>
 8000cb0:	4b82      	ldr	r3, [pc, #520]	; (8000ebc <HAL_ADC_IRQHandler+0x288>)
 8000cb2:	689b      	ldr	r3, [r3, #8]
 8000cb4:	f003 031f 	and.w	r3, r3, #31
 8000cb8:	2b09      	cmp	r3, #9
 8000cba:	d004      	beq.n	8000cc6 <HAL_ADC_IRQHandler+0x92>
 8000cbc:	687b      	ldr	r3, [r7, #4]
 8000cbe:	681b      	ldr	r3, [r3, #0]
 8000cc0:	f1b3 4fa0 	cmp.w	r3, #1342177280	; 0x50000000
 8000cc4:	d104      	bne.n	8000cd0 <HAL_ADC_IRQHandler+0x9c>
    {
      tmp_cfgr = READ_REG(hadc->Instance->CFGR); 
 8000cc6:	687b      	ldr	r3, [r7, #4]
 8000cc8:	681b      	ldr	r3, [r3, #0]
 8000cca:	68db      	ldr	r3, [r3, #12]
 8000ccc:	613b      	str	r3, [r7, #16]
 8000cce:	e003      	b.n	8000cd8 <HAL_ADC_IRQHandler+0xa4>
    }
    else
    {
      tmp_cfgr = READ_REG(ADC_MASTER_INSTANCE(hadc)->CFGR);
 8000cd0:	f04f 43a0 	mov.w	r3, #1342177280	; 0x50000000
 8000cd4:	68db      	ldr	r3, [r3, #12]
 8000cd6:	613b      	str	r3, [r7, #16]
    }
    
    /* Disable interruption if no further conversion upcoming by regular      */
    /* external trigger or by continuous mode,                                */
    /* and if scan sequence if completed.                                     */
    if(ADC_IS_SOFTWARE_START_REGULAR(hadc)         && 
 8000cd8:	687b      	ldr	r3, [r7, #4]
 8000cda:	681b      	ldr	r3, [r3, #0]
 8000cdc:	68db      	ldr	r3, [r3, #12]
 8000cde:	f403 6340 	and.w	r3, r3, #3072	; 0xc00
 8000ce2:	2b00      	cmp	r3, #0
 8000ce4:	d139      	bne.n	8000d5a <HAL_ADC_IRQHandler+0x126>
       (READ_BIT(tmp_cfgr, ADC_CFGR_CONT) == RESET)  )
 8000ce6:	693b      	ldr	r3, [r7, #16]
 8000ce8:	f403 5300 	and.w	r3, r3, #8192	; 0x2000
    if(ADC_IS_SOFTWARE_START_REGULAR(hadc)         && 
 8000cec:	2b00      	cmp	r3, #0
 8000cee:	d134      	bne.n	8000d5a <HAL_ADC_IRQHandler+0x126>
    {
      /* If End of Sequence is reached, disable interrupts */
      if( __HAL_ADC_GET_FLAG(hadc, ADC_FLAG_EOS) )
 8000cf0:	687b      	ldr	r3, [r7, #4]
 8000cf2:	681b      	ldr	r3, [r3, #0]
 8000cf4:	681b      	ldr	r3, [r3, #0]
 8000cf6:	f003 0308 	and.w	r3, r3, #8
 8000cfa:	2b08      	cmp	r3, #8
 8000cfc:	d12d      	bne.n	8000d5a <HAL_ADC_IRQHandler+0x126>
      {
        /* Allowed to modify bits ADC_IT_EOC/ADC_IT_EOS only if bit           */
        /* ADSTART==0 (no conversion on going)                                */
        if (ADC_IS_CONVERSION_ONGOING_REGULAR(hadc) == RESET)
 8000cfe:	687b      	ldr	r3, [r7, #4]
 8000d00:	681b      	ldr	r3, [r3, #0]
 8000d02:	689b      	ldr	r3, [r3, #8]
 8000d04:	f003 0304 	and.w	r3, r3, #4
 8000d08:	2b00      	cmp	r3, #0
 8000d0a:	d11a      	bne.n	8000d42 <HAL_ADC_IRQHandler+0x10e>
        {
          /* Disable ADC end of sequence conversion interrupt */
          /* Note: Overrun interrupt was enabled with EOC interrupt in        */
          /* HAL_Start_IT(), but is not disabled here because can be used     */
          /* by overrun IRQ process below.                                    */
          __HAL_ADC_DISABLE_IT(hadc, ADC_IT_EOC | ADC_IT_EOS);
 8000d0c:	687b      	ldr	r3, [r7, #4]
 8000d0e:	681b      	ldr	r3, [r3, #0]
 8000d10:	685a      	ldr	r2, [r3, #4]
 8000d12:	687b      	ldr	r3, [r7, #4]
 8000d14:	681b      	ldr	r3, [r3, #0]
 8000d16:	f022 020c 	bic.w	r2, r2, #12
 8000d1a:	605a      	str	r2, [r3, #4]
          
          /* Set ADC state */
          CLEAR_BIT(hadc->State, HAL_ADC_STATE_REG_BUSY);   
 8000d1c:	687b      	ldr	r3, [r7, #4]
 8000d1e:	6c1b      	ldr	r3, [r3, #64]	; 0x40
 8000d20:	f423 7280 	bic.w	r2, r3, #256	; 0x100
 8000d24:	687b      	ldr	r3, [r7, #4]
 8000d26:	641a      	str	r2, [r3, #64]	; 0x40
          
          if (HAL_IS_BIT_CLR(hadc->State, HAL_ADC_STATE_INJ_BUSY))
 8000d28:	687b      	ldr	r3, [r7, #4]
 8000d2a:	6c1b      	ldr	r3, [r3, #64]	; 0x40
 8000d2c:	f403 5380 	and.w	r3, r3, #4096	; 0x1000
 8000d30:	2b00      	cmp	r3, #0
 8000d32:	d112      	bne.n	8000d5a <HAL_ADC_IRQHandler+0x126>
          {
            SET_BIT(hadc->State, HAL_ADC_STATE_READY);
 8000d34:	687b      	ldr	r3, [r7, #4]
 8000d36:	6c1b      	ldr	r3, [r3, #64]	; 0x40
 8000d38:	f043 0201 	orr.w	r2, r3, #1
 8000d3c:	687b      	ldr	r3, [r7, #4]
 8000d3e:	641a      	str	r2, [r3, #64]	; 0x40
 8000d40:	e00b      	b.n	8000d5a <HAL_ADC_IRQHandler+0x126>
          }
        }
        else
        {
          /* Update ADC state machine to error */
          SET_BIT(hadc->State, HAL_ADC_STATE_ERROR_INTERNAL);
 8000d42:	687b      	ldr	r3, [r7, #4]
 8000d44:	6c1b      	ldr	r3, [r3, #64]	; 0x40
 8000d46:	f043 0210 	orr.w	r2, r3, #16
 8000d4a:	687b      	ldr	r3, [r7, #4]
 8000d4c:	641a      	str	r2, [r3, #64]	; 0x40
        
          /* Set ADC error code to ADC IP internal error */
          SET_BIT(hadc->ErrorCode, HAL_ADC_ERROR_INTERNAL);
 8000d4e:	687b      	ldr	r3, [r7, #4]
 8000d50:	6c5b      	ldr	r3, [r3, #68]	; 0x44
 8000d52:	f043 0201 	orr.w	r2, r3, #1
 8000d56:	687b      	ldr	r3, [r7, #4]
 8000d58:	645a      	str	r2, [r3, #68]	; 0x44
    /*       from EOC or EOS, possibility to use:                             */
    /*        " if( __HAL_ADC_GET_FLAG(&hadc, ADC_FLAG_EOS)) "                */
#if (USE_HAL_ADC_REGISTER_CALLBACKS == 1)
      hadc->ConvCpltCallback(hadc);
#else
      HAL_ADC_ConvCpltCallback(hadc);
 8000d5a:	6878      	ldr	r0, [r7, #4]
 8000d5c:	f7ff fb56 	bl	800040c <HAL_ADC_ConvCpltCallback>
    /* Note: in case of overrun set to ADC_OVR_DATA_PRESERVED, end of         */
    /*       conversion flags clear induces the release of the preserved      */
    /*       data.                                                            */
    /*       Therefore, if the preserved data value is needed, it must be     */
    /*       read preliminarily into HAL_ADC_ConvCpltCallback().              */
    __HAL_ADC_CLEAR_FLAG(hadc, (ADC_FLAG_EOC | ADC_FLAG_EOS) );
 8000d60:	687b      	ldr	r3, [r7, #4]
 8000d62:	681b      	ldr	r3, [r3, #0]
 8000d64:	220c      	movs	r2, #12
 8000d66:	601a      	str	r2, [r3, #0]
  }
  
  
  /* ========== Check End of Conversion flag for injected group ========== */
  if( (__HAL_ADC_GET_FLAG(hadc, ADC_FLAG_JEOC) && __HAL_ADC_GET_IT_SOURCE(hadc, ADC_IT_JEOC)) ||   
 8000d68:	687b      	ldr	r3, [r7, #4]
 8000d6a:	681b      	ldr	r3, [r3, #0]
 8000d6c:	681b      	ldr	r3, [r3, #0]
 8000d6e:	f003 0320 	and.w	r3, r3, #32
 8000d72:	2b20      	cmp	r3, #32
 8000d74:	d106      	bne.n	8000d84 <HAL_ADC_IRQHandler+0x150>
 8000d76:	687b      	ldr	r3, [r7, #4]
 8000d78:	681b      	ldr	r3, [r3, #0]
 8000d7a:	685b      	ldr	r3, [r3, #4]
 8000d7c:	f003 0320 	and.w	r3, r3, #32
 8000d80:	2b20      	cmp	r3, #32
 8000d82:	d00f      	beq.n	8000da4 <HAL_ADC_IRQHandler+0x170>
      (__HAL_ADC_GET_FLAG(hadc, ADC_FLAG_JEOS) && __HAL_ADC_GET_IT_SOURCE(hadc, ADC_IT_JEOS))   )
 8000d84:	687b      	ldr	r3, [r7, #4]
 8000d86:	681b      	ldr	r3, [r3, #0]
 8000d88:	681b      	ldr	r3, [r3, #0]
 8000d8a:	f003 0340 	and.w	r3, r3, #64	; 0x40
  if( (__HAL_ADC_GET_FLAG(hadc, ADC_FLAG_JEOC) && __HAL_ADC_GET_IT_SOURCE(hadc, ADC_IT_JEOC)) ||   
 8000d8e:	2b40      	cmp	r3, #64	; 0x40
 8000d90:	f040 80a9 	bne.w	8000ee6 <HAL_ADC_IRQHandler+0x2b2>
      (__HAL_ADC_GET_FLAG(hadc, ADC_FLAG_JEOS) && __HAL_ADC_GET_IT_SOURCE(hadc, ADC_IT_JEOS))   )
 8000d94:	687b      	ldr	r3, [r7, #4]
 8000d96:	681b      	ldr	r3, [r3, #0]
 8000d98:	685b      	ldr	r3, [r3, #4]
 8000d9a:	f003 0340 	and.w	r3, r3, #64	; 0x40
 8000d9e:	2b40      	cmp	r3, #64	; 0x40
 8000da0:	f040 80a1 	bne.w	8000ee6 <HAL_ADC_IRQHandler+0x2b2>
  {
    /* Set ADC state */
    SET_BIT(hadc->State, HAL_ADC_STATE_INJ_EOC);
 8000da4:	687b      	ldr	r3, [r7, #4]
 8000da6:	6c1b      	ldr	r3, [r3, #64]	; 0x40
 8000da8:	f443 5200 	orr.w	r2, r3, #8192	; 0x2000
 8000dac:	687b      	ldr	r3, [r7, #4]
 8000dae:	641a      	str	r2, [r3, #64]	; 0x40
        
    /* Get relevant register CFGR in ADC instance of ADC master or slave      */
    /* in function of multimode state (for devices with multimode             */
    /* available).                                                            */
    if (ADC_NONMULTIMODE_REG_OR_MULTIMODEMASTER(hadc))
 8000db0:	4b42      	ldr	r3, [pc, #264]	; (8000ebc <HAL_ADC_IRQHandler+0x288>)
 8000db2:	689b      	ldr	r3, [r3, #8]
 8000db4:	f003 031f 	and.w	r3, r3, #31
 8000db8:	2b00      	cmp	r3, #0
 8000dba:	d010      	beq.n	8000dde <HAL_ADC_IRQHandler+0x1aa>
 8000dbc:	4b3f      	ldr	r3, [pc, #252]	; (8000ebc <HAL_ADC_IRQHandler+0x288>)
 8000dbe:	689b      	ldr	r3, [r3, #8]
 8000dc0:	f003 031f 	and.w	r3, r3, #31
 8000dc4:	2b05      	cmp	r3, #5
 8000dc6:	d00a      	beq.n	8000dde <HAL_ADC_IRQHandler+0x1aa>
 8000dc8:	4b3c      	ldr	r3, [pc, #240]	; (8000ebc <HAL_ADC_IRQHandler+0x288>)
 8000dca:	689b      	ldr	r3, [r3, #8]
 8000dcc:	f003 031f 	and.w	r3, r3, #31
 8000dd0:	2b09      	cmp	r3, #9
 8000dd2:	d004      	beq.n	8000dde <HAL_ADC_IRQHandler+0x1aa>
 8000dd4:	687b      	ldr	r3, [r7, #4]
 8000dd6:	681b      	ldr	r3, [r3, #0]
 8000dd8:	f1b3 4fa0 	cmp.w	r3, #1342177280	; 0x50000000
 8000ddc:	d104      	bne.n	8000de8 <HAL_ADC_IRQHandler+0x1b4>
    {
      tmp_cfgr = READ_REG(hadc->Instance->CFGR); 
 8000dde:	687b      	ldr	r3, [r7, #4]
 8000de0:	681b      	ldr	r3, [r3, #0]
 8000de2:	68db      	ldr	r3, [r3, #12]
 8000de4:	613b      	str	r3, [r7, #16]
 8000de6:	e003      	b.n	8000df0 <HAL_ADC_IRQHandler+0x1bc>
    }
    else
    {
      tmp_cfgr = READ_REG(ADC_MASTER_INSTANCE(hadc)->CFGR);
 8000de8:	f04f 43a0 	mov.w	r3, #1342177280	; 0x50000000
 8000dec:	68db      	ldr	r3, [r3, #12]
 8000dee:	613b      	str	r3, [r7, #16]
    /* Disable interruption if no further conversion upcoming by injected     */
    /* external trigger or by automatic injected conversion with regular      */
    /* group having no further conversion upcoming (same conditions as        */
    /* regular group interruption disabling above),                           */
    /* and if injected scan sequence is completed.                            */
    if(ADC_IS_SOFTWARE_START_INJECTED(hadc)                   ||
 8000df0:	687b      	ldr	r3, [r7, #4]
 8000df2:	681b      	ldr	r3, [r3, #0]
 8000df4:	6cdb      	ldr	r3, [r3, #76]	; 0x4c
 8000df6:	f003 03c0 	and.w	r3, r3, #192	; 0xc0
 8000dfa:	2b00      	cmp	r3, #0
 8000dfc:	d010      	beq.n	8000e20 <HAL_ADC_IRQHandler+0x1ec>
       ((READ_BIT (tmp_cfgr, ADC_CFGR_JAUTO) == RESET)    &&
 8000dfe:	693b      	ldr	r3, [r7, #16]
 8000e00:	f003 7300 	and.w	r3, r3, #33554432	; 0x2000000
    if(ADC_IS_SOFTWARE_START_INJECTED(hadc)                   ||
 8000e04:	2b00      	cmp	r3, #0
 8000e06:	d167      	bne.n	8000ed8 <HAL_ADC_IRQHandler+0x2a4>
        (ADC_IS_SOFTWARE_START_REGULAR(hadc)          &&
 8000e08:	687b      	ldr	r3, [r7, #4]
 8000e0a:	681b      	ldr	r3, [r3, #0]
 8000e0c:	68db      	ldr	r3, [r3, #12]
 8000e0e:	f403 6340 	and.w	r3, r3, #3072	; 0xc00
       ((READ_BIT (tmp_cfgr, ADC_CFGR_JAUTO) == RESET)    &&
 8000e12:	2b00      	cmp	r3, #0
 8000e14:	d160      	bne.n	8000ed8 <HAL_ADC_IRQHandler+0x2a4>
        (READ_BIT (tmp_cfgr, ADC_CFGR_CONT) == RESET)   )   )   )
 8000e16:	693b      	ldr	r3, [r7, #16]
 8000e18:	f403 5300 	and.w	r3, r3, #8192	; 0x2000
        (ADC_IS_SOFTWARE_START_REGULAR(hadc)          &&
 8000e1c:	2b00      	cmp	r3, #0
 8000e1e:	d15b      	bne.n	8000ed8 <HAL_ADC_IRQHandler+0x2a4>
    {
      /* If End of Sequence is reached, disable interrupts */
      if( __HAL_ADC_GET_FLAG(hadc, ADC_FLAG_JEOS))
 8000e20:	687b      	ldr	r3, [r7, #4]
 8000e22:	681b      	ldr	r3, [r3, #0]
 8000e24:	681b      	ldr	r3, [r3, #0]
 8000e26:	f003 0340 	and.w	r3, r3, #64	; 0x40
 8000e2a:	2b40      	cmp	r3, #64	; 0x40
 8000e2c:	d154      	bne.n	8000ed8 <HAL_ADC_IRQHandler+0x2a4>
      {
        
        /* Get relevant register CFGR in ADC instance of ADC master or slave  */
        /* in function of multimode state (for devices with multimode         */
        /* available).                                                        */
        if (ADC_NONMULTIMODE_INJ_OR_MULTIMODEMASTER(hadc))
 8000e2e:	4b23      	ldr	r3, [pc, #140]	; (8000ebc <HAL_ADC_IRQHandler+0x288>)
 8000e30:	689b      	ldr	r3, [r3, #8]
 8000e32:	f003 031f 	and.w	r3, r3, #31
 8000e36:	2b00      	cmp	r3, #0
 8000e38:	d010      	beq.n	8000e5c <HAL_ADC_IRQHandler+0x228>
 8000e3a:	4b20      	ldr	r3, [pc, #128]	; (8000ebc <HAL_ADC_IRQHandler+0x288>)
 8000e3c:	689b      	ldr	r3, [r3, #8]
 8000e3e:	f003 031f 	and.w	r3, r3, #31
 8000e42:	2b06      	cmp	r3, #6
 8000e44:	d00a      	beq.n	8000e5c <HAL_ADC_IRQHandler+0x228>
 8000e46:	4b1d      	ldr	r3, [pc, #116]	; (8000ebc <HAL_ADC_IRQHandler+0x288>)
 8000e48:	689b      	ldr	r3, [r3, #8]
 8000e4a:	f003 031f 	and.w	r3, r3, #31
 8000e4e:	2b07      	cmp	r3, #7
 8000e50:	d004      	beq.n	8000e5c <HAL_ADC_IRQHandler+0x228>
 8000e52:	687b      	ldr	r3, [r7, #4]
 8000e54:	681b      	ldr	r3, [r3, #0]
 8000e56:	f1b3 4fa0 	cmp.w	r3, #1342177280	; 0x50000000
 8000e5a:	d104      	bne.n	8000e66 <HAL_ADC_IRQHandler+0x232>
        {
          tmp_cfgr_jqm = READ_REG(hadc->Instance->CFGR); 
 8000e5c:	687b      	ldr	r3, [r7, #4]
 8000e5e:	681b      	ldr	r3, [r3, #0]
 8000e60:	68db      	ldr	r3, [r3, #12]
 8000e62:	60fb      	str	r3, [r7, #12]
 8000e64:	e003      	b.n	8000e6e <HAL_ADC_IRQHandler+0x23a>
        }
        else
        {
          tmp_cfgr_jqm = READ_REG(ADC_MASTER_INSTANCE(hadc)->CFGR);
 8000e66:	f04f 43a0 	mov.w	r3, #1342177280	; 0x50000000
 8000e6a:	68db      	ldr	r3, [r3, #12]
 8000e6c:	60fb      	str	r3, [r7, #12]
        /* when the last context has been fully processed, JSQR is reset      */
        /* by the hardware. Even if no injected conversion is planned to come */
        /* (queue empty, triggers are ignored), it can start again            */
        /* immediately after setting a new context (JADSTART is still set).   */
        /* Therefore, state of HAL ADC injected group is kept to busy.        */
        if(READ_BIT(tmp_cfgr_jqm, ADC_CFGR_JQM) == RESET)
 8000e6e:	68fb      	ldr	r3, [r7, #12]
 8000e70:	f403 1300 	and.w	r3, r3, #2097152	; 0x200000
 8000e74:	2b00      	cmp	r3, #0
 8000e76:	d12f      	bne.n	8000ed8 <HAL_ADC_IRQHandler+0x2a4>
        {
          /* Allowed to modify bits ADC_IT_JEOC/ADC_IT_JEOS only if bit       */
          /* JADSTART==0 (no conversion on going)                             */
          if (ADC_IS_CONVERSION_ONGOING_INJECTED(hadc) == RESET)
 8000e78:	687b      	ldr	r3, [r7, #4]
 8000e7a:	681b      	ldr	r3, [r3, #0]
 8000e7c:	689b      	ldr	r3, [r3, #8]
 8000e7e:	f003 0308 	and.w	r3, r3, #8
 8000e82:	2b00      	cmp	r3, #0
 8000e84:	d11c      	bne.n	8000ec0 <HAL_ADC_IRQHandler+0x28c>
          {
            /* Disable ADC end of sequence conversion interrupt  */
            __HAL_ADC_DISABLE_IT(hadc, ADC_IT_JEOC | ADC_IT_JEOS);
 8000e86:	687b      	ldr	r3, [r7, #4]
 8000e88:	681b      	ldr	r3, [r3, #0]
 8000e8a:	685a      	ldr	r2, [r3, #4]
 8000e8c:	687b      	ldr	r3, [r7, #4]
 8000e8e:	681b      	ldr	r3, [r3, #0]
 8000e90:	f022 0260 	bic.w	r2, r2, #96	; 0x60
 8000e94:	605a      	str	r2, [r3, #4]
            
            /* Set ADC state */
            CLEAR_BIT(hadc->State, HAL_ADC_STATE_INJ_BUSY);
 8000e96:	687b      	ldr	r3, [r7, #4]
 8000e98:	6c1b      	ldr	r3, [r3, #64]	; 0x40
 8000e9a:	f423 5280 	bic.w	r2, r3, #4096	; 0x1000
 8000e9e:	687b      	ldr	r3, [r7, #4]
 8000ea0:	641a      	str	r2, [r3, #64]	; 0x40

            if (HAL_IS_BIT_CLR(hadc->State, HAL_ADC_STATE_REG_BUSY))
 8000ea2:	687b      	ldr	r3, [r7, #4]
 8000ea4:	6c1b      	ldr	r3, [r3, #64]	; 0x40
 8000ea6:	f403 7380 	and.w	r3, r3, #256	; 0x100
 8000eaa:	2b00      	cmp	r3, #0
 8000eac:	d114      	bne.n	8000ed8 <HAL_ADC_IRQHandler+0x2a4>
            { 
              SET_BIT(hadc->State, HAL_ADC_STATE_READY);
 8000eae:	687b      	ldr	r3, [r7, #4]
 8000eb0:	6c1b      	ldr	r3, [r3, #64]	; 0x40
 8000eb2:	f043 0201 	orr.w	r2, r3, #1
 8000eb6:	687b      	ldr	r3, [r7, #4]
 8000eb8:	641a      	str	r2, [r3, #64]	; 0x40
 8000eba:	e00d      	b.n	8000ed8 <HAL_ADC_IRQHandler+0x2a4>
 8000ebc:	50000300 	.word	0x50000300
            }
          }
          else
          {
            /* Update ADC state machine to error */
            SET_BIT(hadc->State, HAL_ADC_STATE_ERROR_INTERNAL);
 8000ec0:	687b      	ldr	r3, [r7, #4]
 8000ec2:	6c1b      	ldr	r3, [r3, #64]	; 0x40
 8000ec4:	f043 0210 	orr.w	r2, r3, #16
 8000ec8:	687b      	ldr	r3, [r7, #4]
 8000eca:	641a      	str	r2, [r3, #64]	; 0x40
          
            /* Set ADC error code to ADC IP internal error */
            SET_BIT(hadc->ErrorCode, HAL_ADC_ERROR_INTERNAL);
 8000ecc:	687b      	ldr	r3, [r7, #4]
 8000ece:	6c5b      	ldr	r3, [r3, #68]	; 0x44
 8000ed0:	f043 0201 	orr.w	r2, r3, #1
 8000ed4:	687b      	ldr	r3, [r7, #4]
 8000ed6:	645a      	str	r2, [r3, #68]	; 0x44
    /*       from JEOC or JEOS, possibility to use:                           */
    /*        " if( __HAL_ADC_GET_FLAG(&hadc, ADC_FLAG_JEOS)) "               */
#if (USE_HAL_ADC_REGISTER_CALLBACKS == 1)
      hadc->InjectedConvCpltCallback(hadc);
#else
      HAL_ADCEx_InjectedConvCpltCallback(hadc);
 8000ed8:	6878      	ldr	r0, [r7, #4]
 8000eda:	f000 f8cb 	bl	8001074 <HAL_ADCEx_InjectedConvCpltCallback>
#endif /* USE_HAL_ADC_REGISTER_CALLBACKS */
    
    /* Clear injected group conversion flag */
    __HAL_ADC_CLEAR_FLAG(hadc, ADC_FLAG_JEOC | ADC_FLAG_JEOS);
 8000ede:	687b      	ldr	r3, [r7, #4]
 8000ee0:	681b      	ldr	r3, [r3, #0]
 8000ee2:	2260      	movs	r2, #96	; 0x60
 8000ee4:	601a      	str	r2, [r3, #0]
  }
  
  /* ========== Check analog watchdog 1 flag ========== */
  if (__HAL_ADC_GET_FLAG(hadc, ADC_FLAG_AWD1) && __HAL_ADC_GET_IT_SOURCE(hadc, ADC_IT_AWD1))
 8000ee6:	687b      	ldr	r3, [r7, #4]
 8000ee8:	681b      	ldr	r3, [r3, #0]
 8000eea:	681b      	ldr	r3, [r3, #0]
 8000eec:	f003 0380 	and.w	r3, r3, #128	; 0x80
 8000ef0:	2b80      	cmp	r3, #128	; 0x80
 8000ef2:	d113      	bne.n	8000f1c <HAL_ADC_IRQHandler+0x2e8>
 8000ef4:	687b      	ldr	r3, [r7, #4]
 8000ef6:	681b      	ldr	r3, [r3, #0]
 8000ef8:	685b      	ldr	r3, [r3, #4]
 8000efa:	f003 0380 	and.w	r3, r3, #128	; 0x80
 8000efe:	2b80      	cmp	r3, #128	; 0x80
 8000f00:	d10c      	bne.n	8000f1c <HAL_ADC_IRQHandler+0x2e8>
  {
    /* Set ADC state */
    SET_BIT(hadc->State, HAL_ADC_STATE_AWD1);
 8000f02:	687b      	ldr	r3, [r7, #4]
 8000f04:	6c1b      	ldr	r3, [r3, #64]	; 0x40
 8000f06:	f443 3280 	orr.w	r2, r3, #65536	; 0x10000
 8000f0a:	687b      	ldr	r3, [r7, #4]
 8000f0c:	641a      	str	r2, [r3, #64]	; 0x40
    
    /* Level out of window 1 callback */
#if (USE_HAL_ADC_REGISTER_CALLBACKS == 1)
      hadc->LevelOutOfWindowCallback(hadc);
#else
      HAL_ADC_LevelOutOfWindowCallback(hadc);
 8000f0e:	6878      	ldr	r0, [r7, #4]
 8000f10:	f7ff fbfc 	bl	800070c <HAL_ADC_LevelOutOfWindowCallback>
#endif /* USE_HAL_ADC_REGISTER_CALLBACKS */
    /* Clear ADC analog watchdog flag */ 
    __HAL_ADC_CLEAR_FLAG(hadc, ADC_FLAG_AWD1);
 8000f14:	687b      	ldr	r3, [r7, #4]
 8000f16:	681b      	ldr	r3, [r3, #0]
 8000f18:	2280      	movs	r2, #128	; 0x80
 8000f1a:	601a      	str	r2, [r3, #0]
  }
  
  /* ========== Check analog watchdog 2 flag ========== */
  if (__HAL_ADC_GET_FLAG(hadc, ADC_FLAG_AWD2) && __HAL_ADC_GET_IT_SOURCE(hadc, ADC_IT_AWD2))
 8000f1c:	687b      	ldr	r3, [r7, #4]
 8000f1e:	681b      	ldr	r3, [r3, #0]
 8000f20:	681b      	ldr	r3, [r3, #0]
 8000f22:	f403 7380 	and.w	r3, r3, #256	; 0x100
 8000f26:	f5b3 7f80 	cmp.w	r3, #256	; 0x100
 8000f2a:	d115      	bne.n	8000f58 <HAL_ADC_IRQHandler+0x324>
 8000f2c:	687b      	ldr	r3, [r7, #4]
 8000f2e:	681b      	ldr	r3, [r3, #0]
 8000f30:	685b      	ldr	r3, [r3, #4]
 8000f32:	f403 7380 	and.w	r3, r3, #256	; 0x100
 8000f36:	f5b3 7f80 	cmp.w	r3, #256	; 0x100
 8000f3a:	d10d      	bne.n	8000f58 <HAL_ADC_IRQHandler+0x324>
  {
    /* Set ADC state */
    SET_BIT(hadc->State, HAL_ADC_STATE_AWD2);
 8000f3c:	687b      	ldr	r3, [r7, #4]
 8000f3e:	6c1b      	ldr	r3, [r3, #64]	; 0x40
 8000f40:	f443 3200 	orr.w	r2, r3, #131072	; 0x20000
 8000f44:	687b      	ldr	r3, [r7, #4]
 8000f46:	641a      	str	r2, [r3, #64]	; 0x40
    
    /* Level out of window 2 callback */
    HAL_ADCEx_LevelOutOfWindow2Callback(hadc);
 8000f48:	6878      	ldr	r0, [r7, #4]
 8000f4a:	f000 f8a7 	bl	800109c <HAL_ADCEx_LevelOutOfWindow2Callback>
    /* Clear ADC analog watchdog flag */ 
    __HAL_ADC_CLEAR_FLAG(hadc, ADC_FLAG_AWD2);
 8000f4e:	687b      	ldr	r3, [r7, #4]
 8000f50:	681b      	ldr	r3, [r3, #0]
 8000f52:	f44f 7280 	mov.w	r2, #256	; 0x100
 8000f56:	601a      	str	r2, [r3, #0]
  } 
  
  /* ========== Check analog watchdog 3 flag ========== */
  if (__HAL_ADC_GET_FLAG(hadc, ADC_FLAG_AWD3) && __HAL_ADC_GET_IT_SOURCE(hadc, ADC_IT_AWD3)) 
 8000f58:	687b      	ldr	r3, [r7, #4]
 8000f5a:	681b      	ldr	r3, [r3, #0]
 8000f5c:	681b      	ldr	r3, [r3, #0]
 8000f5e:	f403 7300 	and.w	r3, r3, #512	; 0x200
 8000f62:	f5b3 7f00 	cmp.w	r3, #512	; 0x200
 8000f66:	d115      	bne.n	8000f94 <HAL_ADC_IRQHandler+0x360>
 8000f68:	687b      	ldr	r3, [r7, #4]
 8000f6a:	681b      	ldr	r3, [r3, #0]
 8000f6c:	685b      	ldr	r3, [r3, #4]
 8000f6e:	f403 7300 	and.w	r3, r3, #512	; 0x200
 8000f72:	f5b3 7f00 	cmp.w	r3, #512	; 0x200
 8000f76:	d10d      	bne.n	8000f94 <HAL_ADC_IRQHandler+0x360>
  {
    /* Set ADC state */
    SET_BIT(hadc->State, HAL_ADC_STATE_AWD3);
 8000f78:	687b      	ldr	r3, [r7, #4]
 8000f7a:	6c1b      	ldr	r3, [r3, #64]	; 0x40
 8000f7c:	f443 2280 	orr.w	r2, r3, #262144	; 0x40000
 8000f80:	687b      	ldr	r3, [r7, #4]
 8000f82:	641a      	str	r2, [r3, #64]	; 0x40
    
    /* Level out of window 3 callback */
    HAL_ADCEx_LevelOutOfWindow3Callback(hadc);
 8000f84:	6878      	ldr	r0, [r7, #4]
 8000f86:	f000 f893 	bl	80010b0 <HAL_ADCEx_LevelOutOfWindow3Callback>
    /* Clear ADC analog watchdog flag */ 
    __HAL_ADC_CLEAR_FLAG(hadc, ADC_FLAG_AWD3);
 8000f8a:	687b      	ldr	r3, [r7, #4]
 8000f8c:	681b      	ldr	r3, [r3, #0]
 8000f8e:	f44f 7200 	mov.w	r2, #512	; 0x200
 8000f92:	601a      	str	r2, [r3, #0]
  }
  
  /* ========== Check Overrun flag ========== */
  if(__HAL_ADC_GET_FLAG(hadc, ADC_FLAG_OVR) && __HAL_ADC_GET_IT_SOURCE(hadc, ADC_IT_OVR))
 8000f94:	687b      	ldr	r3, [r7, #4]
 8000f96:	681b      	ldr	r3, [r3, #0]
 8000f98:	681b      	ldr	r3, [r3, #0]
 8000f9a:	f003 0310 	and.w	r3, r3, #16
 8000f9e:	2b10      	cmp	r3, #16
 8000fa0:	d13d      	bne.n	800101e <HAL_ADC_IRQHandler+0x3ea>
 8000fa2:	687b      	ldr	r3, [r7, #4]
 8000fa4:	681b      	ldr	r3, [r3, #0]
 8000fa6:	685b      	ldr	r3, [r3, #4]
 8000fa8:	f003 0310 	and.w	r3, r3, #16
 8000fac:	2b10      	cmp	r3, #16
 8000fae:	d136      	bne.n	800101e <HAL_ADC_IRQHandler+0x3ea>
    /* overrun event is not considered as an error.                           */
    /* (cf ref manual "Managing conversions without using the DMA and         */
    /* without overrun ")                                                     */
    /* Exception for usage with DMA overrun event always considered as an     */
    /* error.                                                                 */
    if (hadc->Init.Overrun == ADC_OVR_DATA_PRESERVED)
 8000fb0:	687b      	ldr	r3, [r7, #4]
 8000fb2:	6b5b      	ldr	r3, [r3, #52]	; 0x34
 8000fb4:	2b01      	cmp	r3, #1
 8000fb6:	d102      	bne.n	8000fbe <HAL_ADC_IRQHandler+0x38a>
    {
      overrun_error = 1U;
 8000fb8:	2301      	movs	r3, #1
 8000fba:	617b      	str	r3, [r7, #20]
 8000fbc:	e019      	b.n	8000ff2 <HAL_ADC_IRQHandler+0x3be>
    else
    {
      /* Pointer to the common control register to which is belonging hadc    */
      /* (Depending on STM32F3 product, there may be up to 4 ADC and 2 common */
      /* control registers)                                                   */
      tmpADC_Common = ADC_COMMON_REGISTER(hadc);
 8000fbe:	4b2c      	ldr	r3, [pc, #176]	; (8001070 <HAL_ADC_IRQHandler+0x43c>)
 8000fc0:	60bb      	str	r3, [r7, #8]
      
      /* Check DMA configuration, depending on MultiMode set or not */
      if (READ_BIT(tmpADC_Common->CCR, ADC_CCR_MULTI) == ADC_MODE_INDEPENDENT)
 8000fc2:	68bb      	ldr	r3, [r7, #8]
 8000fc4:	689b      	ldr	r3, [r3, #8]
 8000fc6:	f003 031f 	and.w	r3, r3, #31
 8000fca:	2b00      	cmp	r3, #0
 8000fcc:	d109      	bne.n	8000fe2 <HAL_ADC_IRQHandler+0x3ae>
      {
        if (HAL_IS_BIT_SET(hadc->Instance->CFGR, ADC_CFGR_DMAEN))
 8000fce:	687b      	ldr	r3, [r7, #4]
 8000fd0:	681b      	ldr	r3, [r3, #0]
 8000fd2:	68db      	ldr	r3, [r3, #12]
 8000fd4:	f003 0301 	and.w	r3, r3, #1
 8000fd8:	2b01      	cmp	r3, #1
 8000fda:	d10a      	bne.n	8000ff2 <HAL_ADC_IRQHandler+0x3be>
        {
          overrun_error = 1U;  
 8000fdc:	2301      	movs	r3, #1
 8000fde:	617b      	str	r3, [r7, #20]
 8000fe0:	e007      	b.n	8000ff2 <HAL_ADC_IRQHandler+0x3be>
        }
      }
      else
      {
        /* MultiMode is enabled, Common Control Register MDMA bits must be checked */
        if (READ_BIT(tmpADC_Common->CCR, ADC_CCR_MDMA) != RESET)
 8000fe2:	68bb      	ldr	r3, [r7, #8]
 8000fe4:	689b      	ldr	r3, [r3, #8]
 8000fe6:	f403 4340 	and.w	r3, r3, #49152	; 0xc000
 8000fea:	2b00      	cmp	r3, #0
 8000fec:	d001      	beq.n	8000ff2 <HAL_ADC_IRQHandler+0x3be>
        {
          overrun_error = 1U;  
 8000fee:	2301      	movs	r3, #1
 8000ff0:	617b      	str	r3, [r7, #20]
        }
      }
    }
    
    if (overrun_error == 1U)
 8000ff2:	697b      	ldr	r3, [r7, #20]
 8000ff4:	2b01      	cmp	r3, #1
 8000ff6:	d10e      	bne.n	8001016 <HAL_ADC_IRQHandler+0x3e2>
    {
      /* Update ADC state machine to error */
      SET_BIT(hadc->State, HAL_ADC_STATE_REG_OVR);
 8000ff8:	687b      	ldr	r3, [r7, #4]
 8000ffa:	6c1b      	ldr	r3, [r3, #64]	; 0x40
 8000ffc:	f443 6280 	orr.w	r2, r3, #1024	; 0x400
 8001000:	687b      	ldr	r3, [r7, #4]
 8001002:	641a      	str	r2, [r3, #64]	; 0x40
    
      /* Set ADC error code to ADC IP internal error */
      SET_BIT(hadc->ErrorCode, HAL_ADC_ERROR_OVR);
 8001004:	687b      	ldr	r3, [r7, #4]
 8001006:	6c5b      	ldr	r3, [r3, #68]	; 0x44
 8001008:	f043 0202 	orr.w	r2, r3, #2
 800100c:	687b      	ldr	r3, [r7, #4]
 800100e:	645a      	str	r2, [r3, #68]	; 0x44
      
      /* Error callback */ 
#if (USE_HAL_ADC_REGISTER_CALLBACKS == 1)
      hadc->ErrorCallback(hadc);
#else
      HAL_ADC_ErrorCallback(hadc);
 8001010:	6878      	ldr	r0, [r7, #4]
 8001012:	f7ff fb85 	bl	8000720 <HAL_ADC_ErrorCallback>
#endif /* USE_HAL_ADC_REGISTER_CALLBACKS */
    }
    
    /* Clear the Overrun flag */
    __HAL_ADC_CLEAR_FLAG(hadc, ADC_FLAG_OVR);
 8001016:	687b      	ldr	r3, [r7, #4]
 8001018:	681b      	ldr	r3, [r3, #0]
 800101a:	2210      	movs	r2, #16
 800101c:	601a      	str	r2, [r3, #0]

  }
  
  
  /* ========== Check Injected context queue overflow flag ========== */
  if(__HAL_ADC_GET_FLAG(hadc, ADC_FLAG_JQOVF) && __HAL_ADC_GET_IT_SOURCE(hadc, ADC_IT_JQOVF))
 800101e:	687b      	ldr	r3, [r7, #4]
 8001020:	681b      	ldr	r3, [r3, #0]
 8001022:	681b      	ldr	r3, [r3, #0]
 8001024:	f403 6380 	and.w	r3, r3, #1024	; 0x400
 8001028:	f5b3 6f80 	cmp.w	r3, #1024	; 0x400
 800102c:	d11b      	bne.n	8001066 <HAL_ADC_IRQHandler+0x432>
 800102e:	687b      	ldr	r3, [r7, #4]
 8001030:	681b      	ldr	r3, [r3, #0]
 8001032:	685b      	ldr	r3, [r3, #4]
 8001034:	f403 6380 	and.w	r3, r3, #1024	; 0x400
 8001038:	f5b3 6f80 	cmp.w	r3, #1024	; 0x400
 800103c:	d113      	bne.n	8001066 <HAL_ADC_IRQHandler+0x432>
  {
      /* Update ADC state machine to error */
      SET_BIT(hadc->State, HAL_ADC_STATE_INJ_JQOVF);
 800103e:	687b      	ldr	r3, [r7, #4]
 8001040:	6c1b      	ldr	r3, [r3, #64]	; 0x40
 8001042:	f443 4280 	orr.w	r2, r3, #16384	; 0x4000
 8001046:	687b      	ldr	r3, [r7, #4]
 8001048:	641a      	str	r2, [r3, #64]	; 0x40
    
      /* Set ADC error code to ADC IP internal error */
      SET_BIT(hadc->ErrorCode, HAL_ADC_ERROR_JQOVF);
 800104a:	687b      	ldr	r3, [r7, #4]
 800104c:	6c5b      	ldr	r3, [r3, #68]	; 0x44
 800104e:	f043 0208 	orr.w	r2, r3, #8
 8001052:	687b      	ldr	r3, [r7, #4]
 8001054:	645a      	str	r2, [r3, #68]	; 0x44
    
    /* Clear the Injected context queue overflow flag */
    __HAL_ADC_CLEAR_FLAG(hadc, ADC_FLAG_JQOVF);
 8001056:	687b      	ldr	r3, [r7, #4]
 8001058:	681b      	ldr	r3, [r3, #0]
 800105a:	f44f 6280 	mov.w	r2, #1024	; 0x400
 800105e:	601a      	str	r2, [r3, #0]
    
    /* Error callback */ 
    HAL_ADCEx_InjectedQueueOverflowCallback(hadc);
 8001060:	6878      	ldr	r0, [r7, #4]
 8001062:	f000 f811 	bl	8001088 <HAL_ADCEx_InjectedQueueOverflowCallback>
  }
  
}
 8001066:	bf00      	nop
 8001068:	3718      	adds	r7, #24
 800106a:	46bd      	mov	sp, r7
 800106c:	bd80      	pop	{r7, pc}
 800106e:	bf00      	nop
 8001070:	50000300 	.word	0x50000300

08001074 <HAL_ADCEx_InjectedConvCpltCallback>:
  * @brief  Injected conversion complete callback in non blocking mode 
  * @param  hadc ADC handle
  * @retval None
  */
__weak void HAL_ADCEx_InjectedConvCpltCallback(ADC_HandleTypeDef* hadc)
{
 8001074:	b480      	push	{r7}
 8001076:	b083      	sub	sp, #12
 8001078:	af00      	add	r7, sp, #0
 800107a:	6078      	str	r0, [r7, #4]
  UNUSED(hadc);

  /* NOTE : This function Should not be modified, when the callback is needed,
            the HAL_ADCEx_InjectedConvCpltCallback could be implemented in the user file
  */
}
 800107c:	bf00      	nop
 800107e:	370c      	adds	r7, #12
 8001080:	46bd      	mov	sp, r7
 8001082:	f85d 7b04 	ldr.w	r7, [sp], #4
 8001086:	4770      	bx	lr

08001088 <HAL_ADCEx_InjectedQueueOverflowCallback>:
            contexts).
  * @param  hadc ADC handle
  * @retval None
  */
__weak void HAL_ADCEx_InjectedQueueOverflowCallback(ADC_HandleTypeDef* hadc)
{
 8001088:	b480      	push	{r7}
 800108a:	b083      	sub	sp, #12
 800108c:	af00      	add	r7, sp, #0
 800108e:	6078      	str	r0, [r7, #4]

  /* NOTE : This function should not be modified. When the callback is needed,
            function HAL_ADCEx_InjectedQueueOverflowCallback must be implemented 
            in the user file.
  */
}
 8001090:	bf00      	nop
 8001092:	370c      	adds	r7, #12
 8001094:	46bd      	mov	sp, r7
 8001096:	f85d 7b04 	ldr.w	r7, [sp], #4
 800109a:	4770      	bx	lr

0800109c <HAL_ADCEx_LevelOutOfWindow2Callback>:
  * @brief  Analog watchdog 2 callback in non blocking mode. 
  * @param  hadc ADC handle
  * @retval None
  */
__weak void HAL_ADCEx_LevelOutOfWindow2Callback(ADC_HandleTypeDef* hadc)
{
 800109c:	b480      	push	{r7}
 800109e:	b083      	sub	sp, #12
 80010a0:	af00      	add	r7, sp, #0
 80010a2:	6078      	str	r0, [r7, #4]
  UNUSED(hadc);

  /* NOTE : This function should not be modified. When the callback is needed,
            function HAL_ADC_LevelOoutOfWindow2Callback must be implemented in the user file.
  */
}
 80010a4:	bf00      	nop
 80010a6:	370c      	adds	r7, #12
 80010a8:	46bd      	mov	sp, r7
 80010aa:	f85d 7b04 	ldr.w	r7, [sp], #4
 80010ae:	4770      	bx	lr

080010b0 <HAL_ADCEx_LevelOutOfWindow3Callback>:
  * @brief  Analog watchdog 3 callback in non blocking mode. 
  * @param  hadc ADC handle
  * @retval None
  */
__weak void HAL_ADCEx_LevelOutOfWindow3Callback(ADC_HandleTypeDef* hadc)
{
 80010b0:	b480      	push	{r7}
 80010b2:	b083      	sub	sp, #12
 80010b4:	af00      	add	r7, sp, #0
 80010b6:	6078      	str	r0, [r7, #4]
  UNUSED(hadc);

  /* NOTE : This function should not be modified. When the callback is needed,
            function HAL_ADC_LevelOoutOfWindow3Callback must be implemented in the user file.
  */
}
 80010b8:	bf00      	nop
 80010ba:	370c      	adds	r7, #12
 80010bc:	46bd      	mov	sp, r7
 80010be:	f85d 7b04 	ldr.w	r7, [sp], #4
 80010c2:	4770      	bx	lr

080010c4 <HAL_ADC_ConfigChannel>:
  * @param  hadc ADC handle
  * @param  sConfig Structure ADC channel for regular group.
  * @retval HAL status
  */
HAL_StatusTypeDef HAL_ADC_ConfigChannel(ADC_HandleTypeDef* hadc, ADC_ChannelConfTypeDef* sConfig)
{
 80010c4:	b480      	push	{r7}
 80010c6:	b09b      	sub	sp, #108	; 0x6c
 80010c8:	af00      	add	r7, sp, #0
 80010ca:	6078      	str	r0, [r7, #4]
 80010cc:	6039      	str	r1, [r7, #0]
  HAL_StatusTypeDef tmp_hal_status = HAL_OK;
 80010ce:	2300      	movs	r3, #0
 80010d0:	f887 3067 	strb.w	r3, [r7, #103]	; 0x67
  ADC_Common_TypeDef *tmpADC_Common;
  ADC_HandleTypeDef tmphadcSharingSameCommonRegister;
  uint32_t tmpOffsetShifted;
  __IO uint32_t wait_loop_index = 0U;
 80010d4:	2300      	movs	r3, #0
 80010d6:	60bb      	str	r3, [r7, #8]
  {
    assert_param(IS_ADC_DIFF_CHANNEL(sConfig->Channel));
  }
  
  /* Process locked */
  __HAL_LOCK(hadc);
 80010d8:	687b      	ldr	r3, [r7, #4]
 80010da:	f893 303c 	ldrb.w	r3, [r3, #60]	; 0x3c
 80010de:	2b01      	cmp	r3, #1
 80010e0:	d101      	bne.n	80010e6 <HAL_ADC_ConfigChannel+0x22>
 80010e2:	2302      	movs	r3, #2
 80010e4:	e2a5      	b.n	8001632 <HAL_ADC_ConfigChannel+0x56e>
 80010e6:	687b      	ldr	r3, [r7, #4]
 80010e8:	2201      	movs	r2, #1
 80010ea:	f883 203c 	strb.w	r2, [r3, #60]	; 0x3c
  /* Parameters update conditioned to ADC state:                              */
  /* Parameters that can be updated when ADC is disabled or enabled without   */
  /* conversion on going on regular group:                                    */
  /*  - Channel number                                                        */
  /*  - Channel rank                                                          */
  if (ADC_IS_CONVERSION_ONGOING_REGULAR(hadc) == RESET)
 80010ee:	687b      	ldr	r3, [r7, #4]
 80010f0:	681b      	ldr	r3, [r3, #0]
 80010f2:	689b      	ldr	r3, [r3, #8]
 80010f4:	f003 0304 	and.w	r3, r3, #4
 80010f8:	2b00      	cmp	r3, #0
 80010fa:	f040 8289 	bne.w	8001610 <HAL_ADC_ConfigChannel+0x54c>
  {
    /* Regular sequence configuration */
    /* For Rank 1 to 4U */
    if (sConfig->Rank < 5U)
 80010fe:	683b      	ldr	r3, [r7, #0]
 8001100:	685b      	ldr	r3, [r3, #4]
 8001102:	2b04      	cmp	r3, #4
 8001104:	d81c      	bhi.n	8001140 <HAL_ADC_ConfigChannel+0x7c>
    {
      MODIFY_REG(hadc->Instance->SQR1,
 8001106:	687b      	ldr	r3, [r7, #4]
 8001108:	681b      	ldr	r3, [r3, #0]
 800110a:	6b19      	ldr	r1, [r3, #48]	; 0x30
 800110c:	683b      	ldr	r3, [r7, #0]
 800110e:	685a      	ldr	r2, [r3, #4]
 8001110:	4613      	mov	r3, r2
 8001112:	005b      	lsls	r3, r3, #1
 8001114:	4413      	add	r3, r2
 8001116:	005b      	lsls	r3, r3, #1
 8001118:	461a      	mov	r2, r3
 800111a:	231f      	movs	r3, #31
 800111c:	4093      	lsls	r3, r2
 800111e:	43db      	mvns	r3, r3
 8001120:	4019      	ands	r1, r3
 8001122:	683b      	ldr	r3, [r7, #0]
 8001124:	6818      	ldr	r0, [r3, #0]
 8001126:	683b      	ldr	r3, [r7, #0]
 8001128:	685a      	ldr	r2, [r3, #4]
 800112a:	4613      	mov	r3, r2
 800112c:	005b      	lsls	r3, r3, #1
 800112e:	4413      	add	r3, r2
 8001130:	005b      	lsls	r3, r3, #1
 8001132:	fa00 f203 	lsl.w	r2, r0, r3
 8001136:	687b      	ldr	r3, [r7, #4]
 8001138:	681b      	ldr	r3, [r3, #0]
 800113a:	430a      	orrs	r2, r1
 800113c:	631a      	str	r2, [r3, #48]	; 0x30
 800113e:	e063      	b.n	8001208 <HAL_ADC_ConfigChannel+0x144>
                 ADC_SQR1_RK(ADC_SQR2_SQ5, sConfig->Rank)    ,
                 ADC_SQR1_RK(sConfig->Channel, sConfig->Rank) );
    }
    /* For Rank 5 to 9U */
    else if (sConfig->Rank < 10U)
 8001140:	683b      	ldr	r3, [r7, #0]
 8001142:	685b      	ldr	r3, [r3, #4]
 8001144:	2b09      	cmp	r3, #9
 8001146:	d81e      	bhi.n	8001186 <HAL_ADC_ConfigChannel+0xc2>
    {
      MODIFY_REG(hadc->Instance->SQR2,
 8001148:	687b      	ldr	r3, [r7, #4]
 800114a:	681b      	ldr	r3, [r3, #0]
 800114c:	6b59      	ldr	r1, [r3, #52]	; 0x34
 800114e:	683b      	ldr	r3, [r7, #0]
 8001150:	685a      	ldr	r2, [r3, #4]
 8001152:	4613      	mov	r3, r2
 8001154:	005b      	lsls	r3, r3, #1
 8001156:	4413      	add	r3, r2
 8001158:	005b      	lsls	r3, r3, #1
 800115a:	3b1e      	subs	r3, #30
 800115c:	221f      	movs	r2, #31
 800115e:	fa02 f303 	lsl.w	r3, r2, r3
 8001162:	43db      	mvns	r3, r3
 8001164:	4019      	ands	r1, r3
 8001166:	683b      	ldr	r3, [r7, #0]
 8001168:	6818      	ldr	r0, [r3, #0]
 800116a:	683b      	ldr	r3, [r7, #0]
 800116c:	685a      	ldr	r2, [r3, #4]
 800116e:	4613      	mov	r3, r2
 8001170:	005b      	lsls	r3, r3, #1
 8001172:	4413      	add	r3, r2
 8001174:	005b      	lsls	r3, r3, #1
 8001176:	3b1e      	subs	r3, #30
 8001178:	fa00 f203 	lsl.w	r2, r0, r3
 800117c:	687b      	ldr	r3, [r7, #4]
 800117e:	681b      	ldr	r3, [r3, #0]
 8001180:	430a      	orrs	r2, r1
 8001182:	635a      	str	r2, [r3, #52]	; 0x34
 8001184:	e040      	b.n	8001208 <HAL_ADC_ConfigChannel+0x144>
                 ADC_SQR2_RK(ADC_SQR2_SQ5, sConfig->Rank)    ,
                 ADC_SQR2_RK(sConfig->Channel, sConfig->Rank) );
    }
    /* For Rank 10 to 14U */
    else if (sConfig->Rank < 15U)
 8001186:	683b      	ldr	r3, [r7, #0]
 8001188:	685b      	ldr	r3, [r3, #4]
 800118a:	2b0e      	cmp	r3, #14
 800118c:	d81e      	bhi.n	80011cc <HAL_ADC_ConfigChannel+0x108>
    {
      MODIFY_REG(hadc->Instance->SQR3                        ,
 800118e:	687b      	ldr	r3, [r7, #4]
 8001190:	681b      	ldr	r3, [r3, #0]
 8001192:	6b99      	ldr	r1, [r3, #56]	; 0x38
 8001194:	683b      	ldr	r3, [r7, #0]
 8001196:	685a      	ldr	r2, [r3, #4]
 8001198:	4613      	mov	r3, r2
 800119a:	005b      	lsls	r3, r3, #1
 800119c:	4413      	add	r3, r2
 800119e:	005b      	lsls	r3, r3, #1
 80011a0:	3b3c      	subs	r3, #60	; 0x3c
 80011a2:	221f      	movs	r2, #31
 80011a4:	fa02 f303 	lsl.w	r3, r2, r3
 80011a8:	43db      	mvns	r3, r3
 80011aa:	4019      	ands	r1, r3
 80011ac:	683b      	ldr	r3, [r7, #0]
 80011ae:	6818      	ldr	r0, [r3, #0]
 80011b0:	683b      	ldr	r3, [r7, #0]
 80011b2:	685a      	ldr	r2, [r3, #4]
 80011b4:	4613      	mov	r3, r2
 80011b6:	005b      	lsls	r3, r3, #1
 80011b8:	4413      	add	r3, r2
 80011ba:	005b      	lsls	r3, r3, #1
 80011bc:	3b3c      	subs	r3, #60	; 0x3c
 80011be:	fa00 f203 	lsl.w	r2, r0, r3
 80011c2:	687b      	ldr	r3, [r7, #4]
 80011c4:	681b      	ldr	r3, [r3, #0]
 80011c6:	430a      	orrs	r2, r1
 80011c8:	639a      	str	r2, [r3, #56]	; 0x38
 80011ca:	e01d      	b.n	8001208 <HAL_ADC_ConfigChannel+0x144>
                 ADC_SQR3_RK(sConfig->Channel, sConfig->Rank) );
    }
    /* For Rank 15 to 16U */
    else
    {   
      MODIFY_REG(hadc->Instance->SQR4                        ,
 80011cc:	687b      	ldr	r3, [r7, #4]
 80011ce:	681b      	ldr	r3, [r3, #0]
 80011d0:	6bd9      	ldr	r1, [r3, #60]	; 0x3c
 80011d2:	683b      	ldr	r3, [r7, #0]
 80011d4:	685a      	ldr	r2, [r3, #4]
 80011d6:	4613      	mov	r3, r2
 80011d8:	005b      	lsls	r3, r3, #1
 80011da:	4413      	add	r3, r2
 80011dc:	005b      	lsls	r3, r3, #1
 80011de:	3b5a      	subs	r3, #90	; 0x5a
 80011e0:	221f      	movs	r2, #31
 80011e2:	fa02 f303 	lsl.w	r3, r2, r3
 80011e6:	43db      	mvns	r3, r3
 80011e8:	4019      	ands	r1, r3
 80011ea:	683b      	ldr	r3, [r7, #0]
 80011ec:	6818      	ldr	r0, [r3, #0]
 80011ee:	683b      	ldr	r3, [r7, #0]
 80011f0:	685a      	ldr	r2, [r3, #4]
 80011f2:	4613      	mov	r3, r2
 80011f4:	005b      	lsls	r3, r3, #1
 80011f6:	4413      	add	r3, r2
 80011f8:	005b      	lsls	r3, r3, #1
 80011fa:	3b5a      	subs	r3, #90	; 0x5a
 80011fc:	fa00 f203 	lsl.w	r2, r0, r3
 8001200:	687b      	ldr	r3, [r7, #4]
 8001202:	681b      	ldr	r3, [r3, #0]
 8001204:	430a      	orrs	r2, r1
 8001206:	63da      	str	r2, [r3, #60]	; 0x3c
  /* Parameters update conditioned to ADC state:                              */
  /* Parameters that can be updated when ADC is disabled or enabled without   */
  /* conversion on going on regular group:                                    */
  /*  - Channel sampling time                                                 */
  /*  - Channel offset                                                        */
  if (ADC_IS_CONVERSION_ONGOING_REGULAR_INJECTED(hadc) == RESET)
 8001208:	687b      	ldr	r3, [r7, #4]
 800120a:	681b      	ldr	r3, [r3, #0]
 800120c:	689b      	ldr	r3, [r3, #8]
 800120e:	f003 030c 	and.w	r3, r3, #12
 8001212:	2b00      	cmp	r3, #0
 8001214:	f040 80e5 	bne.w	80013e2 <HAL_ADC_ConfigChannel+0x31e>
  {
    /* Channel sampling time configuration */
    /* For channels 10 to 18U */
    if (sConfig->Channel >= ADC_CHANNEL_10)
 8001218:	683b      	ldr	r3, [r7, #0]
 800121a:	681b      	ldr	r3, [r3, #0]
 800121c:	2b09      	cmp	r3, #9
 800121e:	d91c      	bls.n	800125a <HAL_ADC_ConfigChannel+0x196>
    {
      MODIFY_REG(hadc->Instance->SMPR2                             ,
 8001220:	687b      	ldr	r3, [r7, #4]
 8001222:	681b      	ldr	r3, [r3, #0]
 8001224:	6999      	ldr	r1, [r3, #24]
 8001226:	683b      	ldr	r3, [r7, #0]
 8001228:	681a      	ldr	r2, [r3, #0]
 800122a:	4613      	mov	r3, r2
 800122c:	005b      	lsls	r3, r3, #1
 800122e:	4413      	add	r3, r2
 8001230:	3b1e      	subs	r3, #30
 8001232:	2207      	movs	r2, #7
 8001234:	fa02 f303 	lsl.w	r3, r2, r3
 8001238:	43db      	mvns	r3, r3
 800123a:	4019      	ands	r1, r3
 800123c:	683b      	ldr	r3, [r7, #0]
 800123e:	6898      	ldr	r0, [r3, #8]
 8001240:	683b      	ldr	r3, [r7, #0]
 8001242:	681a      	ldr	r2, [r3, #0]
 8001244:	4613      	mov	r3, r2
 8001246:	005b      	lsls	r3, r3, #1
 8001248:	4413      	add	r3, r2
 800124a:	3b1e      	subs	r3, #30
 800124c:	fa00 f203 	lsl.w	r2, r0, r3
 8001250:	687b      	ldr	r3, [r7, #4]
 8001252:	681b      	ldr	r3, [r3, #0]
 8001254:	430a      	orrs	r2, r1
 8001256:	619a      	str	r2, [r3, #24]
 8001258:	e019      	b.n	800128e <HAL_ADC_ConfigChannel+0x1ca>
                 ADC_SMPR2(ADC_SMPR2_SMP10, sConfig->Channel)      ,
                 ADC_SMPR2(sConfig->SamplingTime, sConfig->Channel) );
    }
    else /* For channels 1 to 9U */
    {
      MODIFY_REG(hadc->Instance->SMPR1                             ,
 800125a:	687b      	ldr	r3, [r7, #4]
 800125c:	681b      	ldr	r3, [r3, #0]
 800125e:	6959      	ldr	r1, [r3, #20]
 8001260:	683b      	ldr	r3, [r7, #0]
 8001262:	681a      	ldr	r2, [r3, #0]
 8001264:	4613      	mov	r3, r2
 8001266:	005b      	lsls	r3, r3, #1
 8001268:	4413      	add	r3, r2
 800126a:	2207      	movs	r2, #7
 800126c:	fa02 f303 	lsl.w	r3, r2, r3
 8001270:	43db      	mvns	r3, r3
 8001272:	4019      	ands	r1, r3
 8001274:	683b      	ldr	r3, [r7, #0]
 8001276:	6898      	ldr	r0, [r3, #8]
 8001278:	683b      	ldr	r3, [r7, #0]
 800127a:	681a      	ldr	r2, [r3, #0]
 800127c:	4613      	mov	r3, r2
 800127e:	005b      	lsls	r3, r3, #1
 8001280:	4413      	add	r3, r2
 8001282:	fa00 f203 	lsl.w	r2, r0, r3
 8001286:	687b      	ldr	r3, [r7, #4]
 8001288:	681b      	ldr	r3, [r3, #0]
 800128a:	430a      	orrs	r2, r1
 800128c:	615a      	str	r2, [r3, #20]
    /* Configure the offset: offset enable/disable, channel, offset value */

    /* Shift the offset in function of the selected ADC resolution. */
    /* Offset has to be left-aligned on bit 11U, the LSB (right bits) are set  */
    /* to 0.                                                                  */
    tmpOffsetShifted = ADC_OFFSET_SHIFT_RESOLUTION(hadc, sConfig->Offset);
 800128e:	683b      	ldr	r3, [r7, #0]
 8001290:	695a      	ldr	r2, [r3, #20]
 8001292:	687b      	ldr	r3, [r7, #4]
 8001294:	681b      	ldr	r3, [r3, #0]
 8001296:	68db      	ldr	r3, [r3, #12]
 8001298:	08db      	lsrs	r3, r3, #3
 800129a:	f003 0303 	and.w	r3, r3, #3
 800129e:	005b      	lsls	r3, r3, #1
 80012a0:	fa02 f303 	lsl.w	r3, r2, r3
 80012a4:	663b      	str	r3, [r7, #96]	; 0x60
    
    /* Configure the selected offset register:                                */
    /* - Enable offset                                                        */
    /* - Set channel number                                                   */
    /* - Set offset value                                                     */
    switch (sConfig->OffsetNumber)
 80012a6:	683b      	ldr	r3, [r7, #0]
 80012a8:	691b      	ldr	r3, [r3, #16]
 80012aa:	3b01      	subs	r3, #1
 80012ac:	2b03      	cmp	r3, #3
 80012ae:	d84f      	bhi.n	8001350 <HAL_ADC_ConfigChannel+0x28c>
 80012b0:	a201      	add	r2, pc, #4	; (adr r2, 80012b8 <HAL_ADC_ConfigChannel+0x1f4>)
 80012b2:	f852 f023 	ldr.w	pc, [r2, r3, lsl #2]
 80012b6:	bf00      	nop
 80012b8:	080012c9 	.word	0x080012c9
 80012bc:	080012eb 	.word	0x080012eb
 80012c0:	0800130d 	.word	0x0800130d
 80012c4:	0800132f 	.word	0x0800132f
    {
    case ADC_OFFSET_1:
      /* Configure offset register 1U */
      MODIFY_REG(hadc->Instance->OFR1               ,
 80012c8:	687b      	ldr	r3, [r7, #4]
 80012ca:	681b      	ldr	r3, [r3, #0]
 80012cc:	6e1a      	ldr	r2, [r3, #96]	; 0x60
 80012ce:	4b9e      	ldr	r3, [pc, #632]	; (8001548 <HAL_ADC_ConfigChannel+0x484>)
 80012d0:	4013      	ands	r3, r2
 80012d2:	683a      	ldr	r2, [r7, #0]
 80012d4:	6812      	ldr	r2, [r2, #0]
 80012d6:	0691      	lsls	r1, r2, #26
 80012d8:	6e3a      	ldr	r2, [r7, #96]	; 0x60
 80012da:	430a      	orrs	r2, r1
 80012dc:	431a      	orrs	r2, r3
 80012de:	687b      	ldr	r3, [r7, #4]
 80012e0:	681b      	ldr	r3, [r3, #0]
 80012e2:	f042 4200 	orr.w	r2, r2, #2147483648	; 0x80000000
 80012e6:	661a      	str	r2, [r3, #96]	; 0x60
                 ADC_OFR1_OFFSET1_CH |
                 ADC_OFR1_OFFSET1                   ,
                 ADC_OFR1_OFFSET1_EN               |
                 ADC_OFR_CHANNEL(sConfig->Channel) |
                 tmpOffsetShifted                    );
      break;
 80012e8:	e07e      	b.n	80013e8 <HAL_ADC_ConfigChannel+0x324>
    
    case ADC_OFFSET_2:
      /* Configure offset register 2U */
      MODIFY_REG(hadc->Instance->OFR2               ,
 80012ea:	687b      	ldr	r3, [r7, #4]
 80012ec:	681b      	ldr	r3, [r3, #0]
 80012ee:	6e5a      	ldr	r2, [r3, #100]	; 0x64
 80012f0:	4b95      	ldr	r3, [pc, #596]	; (8001548 <HAL_ADC_ConfigChannel+0x484>)
 80012f2:	4013      	ands	r3, r2
 80012f4:	683a      	ldr	r2, [r7, #0]
 80012f6:	6812      	ldr	r2, [r2, #0]
 80012f8:	0691      	lsls	r1, r2, #26
 80012fa:	6e3a      	ldr	r2, [r7, #96]	; 0x60
 80012fc:	430a      	orrs	r2, r1
 80012fe:	431a      	orrs	r2, r3
 8001300:	687b      	ldr	r3, [r7, #4]
 8001302:	681b      	ldr	r3, [r3, #0]
 8001304:	f042 4200 	orr.w	r2, r2, #2147483648	; 0x80000000
 8001308:	665a      	str	r2, [r3, #100]	; 0x64
                 ADC_OFR2_OFFSET2_CH |
                 ADC_OFR2_OFFSET2                   ,
                 ADC_OFR2_OFFSET2_EN               |
                 ADC_OFR_CHANNEL(sConfig->Channel) |
                 tmpOffsetShifted                    );
      break;
 800130a:	e06d      	b.n	80013e8 <HAL_ADC_ConfigChannel+0x324>
        
    case ADC_OFFSET_3:
      /* Configure offset register 3U */
      MODIFY_REG(hadc->Instance->OFR3               ,
 800130c:	687b      	ldr	r3, [r7, #4]
 800130e:	681b      	ldr	r3, [r3, #0]
 8001310:	6e9a      	ldr	r2, [r3, #104]	; 0x68
 8001312:	4b8d      	ldr	r3, [pc, #564]	; (8001548 <HAL_ADC_ConfigChannel+0x484>)
 8001314:	4013      	ands	r3, r2
 8001316:	683a      	ldr	r2, [r7, #0]
 8001318:	6812      	ldr	r2, [r2, #0]
 800131a:	0691      	lsls	r1, r2, #26
 800131c:	6e3a      	ldr	r2, [r7, #96]	; 0x60
 800131e:	430a      	orrs	r2, r1
 8001320:	431a      	orrs	r2, r3
 8001322:	687b      	ldr	r3, [r7, #4]
 8001324:	681b      	ldr	r3, [r3, #0]
 8001326:	f042 4200 	orr.w	r2, r2, #2147483648	; 0x80000000
 800132a:	669a      	str	r2, [r3, #104]	; 0x68
                 ADC_OFR3_OFFSET3_CH |
                 ADC_OFR3_OFFSET3                   ,
                 ADC_OFR3_OFFSET3_EN               |
                 ADC_OFR_CHANNEL(sConfig->Channel) |
                 tmpOffsetShifted                    );
      break;
 800132c:	e05c      	b.n	80013e8 <HAL_ADC_ConfigChannel+0x324>
    
    case ADC_OFFSET_4:
      /* Configure offset register 4U */
      MODIFY_REG(hadc->Instance->OFR4               ,
 800132e:	687b      	ldr	r3, [r7, #4]
 8001330:	681b      	ldr	r3, [r3, #0]
 8001332:	6eda      	ldr	r2, [r3, #108]	; 0x6c
 8001334:	4b84      	ldr	r3, [pc, #528]	; (8001548 <HAL_ADC_ConfigChannel+0x484>)
 8001336:	4013      	ands	r3, r2
 8001338:	683a      	ldr	r2, [r7, #0]
 800133a:	6812      	ldr	r2, [r2, #0]
 800133c:	0691      	lsls	r1, r2, #26
 800133e:	6e3a      	ldr	r2, [r7, #96]	; 0x60
 8001340:	430a      	orrs	r2, r1
 8001342:	431a      	orrs	r2, r3
 8001344:	687b      	ldr	r3, [r7, #4]
 8001346:	681b      	ldr	r3, [r3, #0]
 8001348:	f042 4200 	orr.w	r2, r2, #2147483648	; 0x80000000
 800134c:	66da      	str	r2, [r3, #108]	; 0x6c
                 ADC_OFR4_OFFSET4_CH |
                 ADC_OFR4_OFFSET4                   ,
                 ADC_OFR4_OFFSET4_EN               |
                 ADC_OFR_CHANNEL(sConfig->Channel) |
                 tmpOffsetShifted                    );
      break;
 800134e:	e04b      	b.n	80013e8 <HAL_ADC_ConfigChannel+0x324>
    
    /* Case ADC_OFFSET_NONE */
    default :
    /* Scan OFR1, OFR2, OFR3, OFR4 to check if the selected channel is        */
    /* enabled. If this is the case, offset OFRx is disabled.                 */
      if (((hadc->Instance->OFR1) & ADC_OFR1_OFFSET1_CH) == ADC_OFR_CHANNEL(sConfig->Channel))
 8001350:	687b      	ldr	r3, [r7, #4]
 8001352:	681b      	ldr	r3, [r3, #0]
 8001354:	6e1b      	ldr	r3, [r3, #96]	; 0x60
 8001356:	f003 42f8 	and.w	r2, r3, #2080374784	; 0x7c000000
 800135a:	683b      	ldr	r3, [r7, #0]
 800135c:	681b      	ldr	r3, [r3, #0]
 800135e:	069b      	lsls	r3, r3, #26
 8001360:	429a      	cmp	r2, r3
 8001362:	d107      	bne.n	8001374 <HAL_ADC_ConfigChannel+0x2b0>
      {
        /* Disable offset OFR1*/
        CLEAR_BIT(hadc->Instance->OFR1, ADC_OFR1_OFFSET1_EN);
 8001364:	687b      	ldr	r3, [r7, #4]
 8001366:	681b      	ldr	r3, [r3, #0]
 8001368:	6e1a      	ldr	r2, [r3, #96]	; 0x60
 800136a:	687b      	ldr	r3, [r7, #4]
 800136c:	681b      	ldr	r3, [r3, #0]
 800136e:	f022 4200 	bic.w	r2, r2, #2147483648	; 0x80000000
 8001372:	661a      	str	r2, [r3, #96]	; 0x60
      }
      if (((hadc->Instance->OFR2) & ADC_OFR2_OFFSET2_CH) == ADC_OFR_CHANNEL(sConfig->Channel))
 8001374:	687b      	ldr	r3, [r7, #4]
 8001376:	681b      	ldr	r3, [r3, #0]
 8001378:	6e5b      	ldr	r3, [r3, #100]	; 0x64
 800137a:	f003 42f8 	and.w	r2, r3, #2080374784	; 0x7c000000
 800137e:	683b      	ldr	r3, [r7, #0]
 8001380:	681b      	ldr	r3, [r3, #0]
 8001382:	069b      	lsls	r3, r3, #26
 8001384:	429a      	cmp	r2, r3
 8001386:	d107      	bne.n	8001398 <HAL_ADC_ConfigChannel+0x2d4>
      {
        /* Disable offset OFR2*/
        CLEAR_BIT(hadc->Instance->OFR2, ADC_OFR2_OFFSET2_EN); 
 8001388:	687b      	ldr	r3, [r7, #4]
 800138a:	681b      	ldr	r3, [r3, #0]
 800138c:	6e5a      	ldr	r2, [r3, #100]	; 0x64
 800138e:	687b      	ldr	r3, [r7, #4]
 8001390:	681b      	ldr	r3, [r3, #0]
 8001392:	f022 4200 	bic.w	r2, r2, #2147483648	; 0x80000000
 8001396:	665a      	str	r2, [r3, #100]	; 0x64
      }
      if (((hadc->Instance->OFR3) & ADC_OFR3_OFFSET3_CH) == ADC_OFR_CHANNEL(sConfig->Channel))
 8001398:	687b      	ldr	r3, [r7, #4]
 800139a:	681b      	ldr	r3, [r3, #0]
 800139c:	6e9b      	ldr	r3, [r3, #104]	; 0x68
 800139e:	f003 42f8 	and.w	r2, r3, #2080374784	; 0x7c000000
 80013a2:	683b      	ldr	r3, [r7, #0]
 80013a4:	681b      	ldr	r3, [r3, #0]
 80013a6:	069b      	lsls	r3, r3, #26
 80013a8:	429a      	cmp	r2, r3
 80013aa:	d107      	bne.n	80013bc <HAL_ADC_ConfigChannel+0x2f8>
      {
        /* Disable offset OFR3*/
        CLEAR_BIT(hadc->Instance->OFR3, ADC_OFR3_OFFSET3_EN);
 80013ac:	687b      	ldr	r3, [r7, #4]
 80013ae:	681b      	ldr	r3, [r3, #0]
 80013b0:	6e9a      	ldr	r2, [r3, #104]	; 0x68
 80013b2:	687b      	ldr	r3, [r7, #4]
 80013b4:	681b      	ldr	r3, [r3, #0]
 80013b6:	f022 4200 	bic.w	r2, r2, #2147483648	; 0x80000000
 80013ba:	669a      	str	r2, [r3, #104]	; 0x68
      }
      if (((hadc->Instance->OFR4) & ADC_OFR4_OFFSET4_CH) == ADC_OFR_CHANNEL(sConfig->Channel))
 80013bc:	687b      	ldr	r3, [r7, #4]
 80013be:	681b      	ldr	r3, [r3, #0]
 80013c0:	6edb      	ldr	r3, [r3, #108]	; 0x6c
 80013c2:	f003 42f8 	and.w	r2, r3, #2080374784	; 0x7c000000
 80013c6:	683b      	ldr	r3, [r7, #0]
 80013c8:	681b      	ldr	r3, [r3, #0]
 80013ca:	069b      	lsls	r3, r3, #26
 80013cc:	429a      	cmp	r2, r3
 80013ce:	d10a      	bne.n	80013e6 <HAL_ADC_ConfigChannel+0x322>
      {
        /* Disable offset OFR4*/
        CLEAR_BIT(hadc->Instance->OFR4, ADC_OFR4_OFFSET4_EN);
 80013d0:	687b      	ldr	r3, [r7, #4]
 80013d2:	681b      	ldr	r3, [r3, #0]
 80013d4:	6eda      	ldr	r2, [r3, #108]	; 0x6c
 80013d6:	687b      	ldr	r3, [r7, #4]
 80013d8:	681b      	ldr	r3, [r3, #0]
 80013da:	f022 4200 	bic.w	r2, r2, #2147483648	; 0x80000000
 80013de:	66da      	str	r2, [r3, #108]	; 0x6c
      }
      break;
 80013e0:	e001      	b.n	80013e6 <HAL_ADC_ConfigChannel+0x322>
    }

  }
 80013e2:	bf00      	nop
 80013e4:	e000      	b.n	80013e8 <HAL_ADC_ConfigChannel+0x324>
      break;
 80013e6:	bf00      	nop

  /* Parameters update conditioned to ADC state:                              */
  /* Parameters that can be updated only when ADC is disabled:                */
  /*  - Single or differential mode                                           */
  /*  - Internal measurement channels: Vbat/VrefInt/TempSensor                */
  if (ADC_IS_ENABLE(hadc) == RESET)
 80013e8:	687b      	ldr	r3, [r7, #4]
 80013ea:	681b      	ldr	r3, [r3, #0]
 80013ec:	689b      	ldr	r3, [r3, #8]
 80013ee:	f003 0303 	and.w	r3, r3, #3
 80013f2:	2b01      	cmp	r3, #1
 80013f4:	d108      	bne.n	8001408 <HAL_ADC_ConfigChannel+0x344>
 80013f6:	687b      	ldr	r3, [r7, #4]
 80013f8:	681b      	ldr	r3, [r3, #0]
 80013fa:	681b      	ldr	r3, [r3, #0]
 80013fc:	f003 0301 	and.w	r3, r3, #1
 8001400:	2b01      	cmp	r3, #1
 8001402:	d101      	bne.n	8001408 <HAL_ADC_ConfigChannel+0x344>
 8001404:	2301      	movs	r3, #1
 8001406:	e000      	b.n	800140a <HAL_ADC_ConfigChannel+0x346>
 8001408:	2300      	movs	r3, #0
 800140a:	2b00      	cmp	r3, #0
 800140c:	f040 810b 	bne.w	8001626 <HAL_ADC_ConfigChannel+0x562>
  {
    /* Configuration of differential mode */
    if (sConfig->SingleDiff != ADC_DIFFERENTIAL_ENDED)
 8001410:	683b      	ldr	r3, [r7, #0]
 8001412:	68db      	ldr	r3, [r3, #12]
 8001414:	2b01      	cmp	r3, #1
 8001416:	d00f      	beq.n	8001438 <HAL_ADC_ConfigChannel+0x374>
    {
      /* Disable differential mode (default mode: single-ended) */
      CLEAR_BIT(hadc->Instance->DIFSEL, ADC_DIFSEL_CHANNEL(sConfig->Channel));
 8001418:	687b      	ldr	r3, [r7, #4]
 800141a:	681b      	ldr	r3, [r3, #0]
 800141c:	f8d3 10b0 	ldr.w	r1, [r3, #176]	; 0xb0
 8001420:	683b      	ldr	r3, [r7, #0]
 8001422:	681b      	ldr	r3, [r3, #0]
 8001424:	2201      	movs	r2, #1
 8001426:	fa02 f303 	lsl.w	r3, r2, r3
 800142a:	43da      	mvns	r2, r3
 800142c:	687b      	ldr	r3, [r7, #4]
 800142e:	681b      	ldr	r3, [r3, #0]
 8001430:	400a      	ands	r2, r1
 8001432:	f8c3 20b0 	str.w	r2, [r3, #176]	; 0xb0
 8001436:	e049      	b.n	80014cc <HAL_ADC_ConfigChannel+0x408>
    }
    else
    {
      /* Enable differential mode */
      SET_BIT(hadc->Instance->DIFSEL, ADC_DIFSEL_CHANNEL(sConfig->Channel));
 8001438:	687b      	ldr	r3, [r7, #4]
 800143a:	681b      	ldr	r3, [r3, #0]
 800143c:	f8d3 10b0 	ldr.w	r1, [r3, #176]	; 0xb0
 8001440:	683b      	ldr	r3, [r7, #0]
 8001442:	681b      	ldr	r3, [r3, #0]
 8001444:	2201      	movs	r2, #1
 8001446:	409a      	lsls	r2, r3
 8001448:	687b      	ldr	r3, [r7, #4]
 800144a:	681b      	ldr	r3, [r3, #0]
 800144c:	430a      	orrs	r2, r1
 800144e:	f8c3 20b0 	str.w	r2, [r3, #176]	; 0xb0
      
      /* Channel sampling time configuration (channel ADC_INx +1              */
      /* corresponding to differential negative input).                       */
      /* For channels 10 to 18U */
      if (sConfig->Channel >= ADC_CHANNEL_10)
 8001452:	683b      	ldr	r3, [r7, #0]
 8001454:	681b      	ldr	r3, [r3, #0]
 8001456:	2b09      	cmp	r3, #9
 8001458:	d91c      	bls.n	8001494 <HAL_ADC_ConfigChannel+0x3d0>
      {
        MODIFY_REG(hadc->Instance->SMPR2,
 800145a:	687b      	ldr	r3, [r7, #4]
 800145c:	681b      	ldr	r3, [r3, #0]
 800145e:	6999      	ldr	r1, [r3, #24]
 8001460:	683b      	ldr	r3, [r7, #0]
 8001462:	681a      	ldr	r2, [r3, #0]
 8001464:	4613      	mov	r3, r2
 8001466:	005b      	lsls	r3, r3, #1
 8001468:	4413      	add	r3, r2
 800146a:	3b1b      	subs	r3, #27
 800146c:	2207      	movs	r2, #7
 800146e:	fa02 f303 	lsl.w	r3, r2, r3
 8001472:	43db      	mvns	r3, r3
 8001474:	4019      	ands	r1, r3
 8001476:	683b      	ldr	r3, [r7, #0]
 8001478:	6898      	ldr	r0, [r3, #8]
 800147a:	683b      	ldr	r3, [r7, #0]
 800147c:	681a      	ldr	r2, [r3, #0]
 800147e:	4613      	mov	r3, r2
 8001480:	005b      	lsls	r3, r3, #1
 8001482:	4413      	add	r3, r2
 8001484:	3b1b      	subs	r3, #27
 8001486:	fa00 f203 	lsl.w	r2, r0, r3
 800148a:	687b      	ldr	r3, [r7, #4]
 800148c:	681b      	ldr	r3, [r3, #0]
 800148e:	430a      	orrs	r2, r1
 8001490:	619a      	str	r2, [r3, #24]
 8001492:	e01b      	b.n	80014cc <HAL_ADC_ConfigChannel+0x408>
                   ADC_SMPR2(ADC_SMPR2_SMP10, sConfig->Channel +1U)      ,
                   ADC_SMPR2(sConfig->SamplingTime, sConfig->Channel +1U) );
      }
      else /* For channels 1 to 9U */
      {
        MODIFY_REG(hadc->Instance->SMPR1,
 8001494:	687b      	ldr	r3, [r7, #4]
 8001496:	681b      	ldr	r3, [r3, #0]
 8001498:	6959      	ldr	r1, [r3, #20]
 800149a:	683b      	ldr	r3, [r7, #0]
 800149c:	681b      	ldr	r3, [r3, #0]
 800149e:	1c5a      	adds	r2, r3, #1
 80014a0:	4613      	mov	r3, r2
 80014a2:	005b      	lsls	r3, r3, #1
 80014a4:	4413      	add	r3, r2
 80014a6:	2207      	movs	r2, #7
 80014a8:	fa02 f303 	lsl.w	r3, r2, r3
 80014ac:	43db      	mvns	r3, r3
 80014ae:	4019      	ands	r1, r3
 80014b0:	683b      	ldr	r3, [r7, #0]
 80014b2:	6898      	ldr	r0, [r3, #8]
 80014b4:	683b      	ldr	r3, [r7, #0]
 80014b6:	681b      	ldr	r3, [r3, #0]
 80014b8:	1c5a      	adds	r2, r3, #1
 80014ba:	4613      	mov	r3, r2
 80014bc:	005b      	lsls	r3, r3, #1
 80014be:	4413      	add	r3, r2
 80014c0:	fa00 f203 	lsl.w	r2, r0, r3
 80014c4:	687b      	ldr	r3, [r7, #4]
 80014c6:	681b      	ldr	r3, [r3, #0]
 80014c8:	430a      	orrs	r2, r1
 80014ca:	615a      	str	r2, [r3, #20]
       
    /* Configuration of common ADC parameters                                 */
    /* Pointer to the common control register to which is belonging hadc      */
    /* (Depending on STM32F3 product, there may be up to 4 ADC and 2 common   */
    /* control registers)                                                     */
    tmpADC_Common = ADC_COMMON_REGISTER(hadc);
 80014cc:	4b1f      	ldr	r3, [pc, #124]	; (800154c <HAL_ADC_ConfigChannel+0x488>)
 80014ce:	65fb      	str	r3, [r7, #92]	; 0x5c
  
    /* If the requested internal measurement path has already been enabled,   */
    /* bypass the configuration processing.                                   */
    if (( (sConfig->Channel == ADC_CHANNEL_TEMPSENSOR) &&
 80014d0:	683b      	ldr	r3, [r7, #0]
 80014d2:	681b      	ldr	r3, [r3, #0]
 80014d4:	2b10      	cmp	r3, #16
 80014d6:	d105      	bne.n	80014e4 <HAL_ADC_ConfigChannel+0x420>
          (HAL_IS_BIT_CLR(tmpADC_Common->CCR, ADC_CCR_TSEN))            ) ||
 80014d8:	6dfb      	ldr	r3, [r7, #92]	; 0x5c
 80014da:	689b      	ldr	r3, [r3, #8]
 80014dc:	f403 0300 	and.w	r3, r3, #8388608	; 0x800000
    if (( (sConfig->Channel == ADC_CHANNEL_TEMPSENSOR) &&
 80014e0:	2b00      	cmp	r3, #0
 80014e2:	d015      	beq.n	8001510 <HAL_ADC_ConfigChannel+0x44c>
        ( (sConfig->Channel == ADC_CHANNEL_VBAT)       &&
 80014e4:	683b      	ldr	r3, [r7, #0]
 80014e6:	681b      	ldr	r3, [r3, #0]
          (HAL_IS_BIT_CLR(tmpADC_Common->CCR, ADC_CCR_TSEN))            ) ||
 80014e8:	2b11      	cmp	r3, #17
 80014ea:	d105      	bne.n	80014f8 <HAL_ADC_ConfigChannel+0x434>
          (HAL_IS_BIT_CLR(tmpADC_Common->CCR, ADC_CCR_VBATEN))          ) ||
 80014ec:	6dfb      	ldr	r3, [r7, #92]	; 0x5c
 80014ee:	689b      	ldr	r3, [r3, #8]
 80014f0:	f003 7380 	and.w	r3, r3, #16777216	; 0x1000000
        ( (sConfig->Channel == ADC_CHANNEL_VBAT)       &&
 80014f4:	2b00      	cmp	r3, #0
 80014f6:	d00b      	beq.n	8001510 <HAL_ADC_ConfigChannel+0x44c>
        ( (sConfig->Channel == ADC_CHANNEL_VREFINT)    &&
 80014f8:	683b      	ldr	r3, [r7, #0]
 80014fa:	681b      	ldr	r3, [r3, #0]
          (HAL_IS_BIT_CLR(tmpADC_Common->CCR, ADC_CCR_VBATEN))          ) ||
 80014fc:	2b12      	cmp	r3, #18
 80014fe:	f040 8092 	bne.w	8001626 <HAL_ADC_ConfigChannel+0x562>
          (HAL_IS_BIT_CLR(tmpADC_Common->CCR, ADC_CCR_VREFEN)))
 8001502:	6dfb      	ldr	r3, [r7, #92]	; 0x5c
 8001504:	689b      	ldr	r3, [r3, #8]
 8001506:	f403 0380 	and.w	r3, r3, #4194304	; 0x400000
        ( (sConfig->Channel == ADC_CHANNEL_VREFINT)    &&
 800150a:	2b00      	cmp	r3, #0
 800150c:	f040 808b 	bne.w	8001626 <HAL_ADC_ConfigChannel+0x562>
       )
    {
      /* Configuration of common ADC parameters (continuation)                */
      /* Set handle of the other ADC sharing the same common register         */
      ADC_COMMON_ADC_OTHER(hadc, &tmphadcSharingSameCommonRegister);
 8001510:	687b      	ldr	r3, [r7, #4]
 8001512:	681b      	ldr	r3, [r3, #0]
 8001514:	f1b3 4fa0 	cmp.w	r3, #1342177280	; 0x50000000
 8001518:	d102      	bne.n	8001520 <HAL_ADC_ConfigChannel+0x45c>
 800151a:	4b0d      	ldr	r3, [pc, #52]	; (8001550 <HAL_ADC_ConfigChannel+0x48c>)
 800151c:	60fb      	str	r3, [r7, #12]
 800151e:	e002      	b.n	8001526 <HAL_ADC_ConfigChannel+0x462>
 8001520:	f04f 43a0 	mov.w	r3, #1342177280	; 0x50000000
 8001524:	60fb      	str	r3, [r7, #12]
      
      /* Software is allowed to change common parameters only when all ADCs   */
      /* of the common group are disabled.                                    */
      if ((ADC_IS_ENABLE(hadc) == RESET)                                    &&
 8001526:	687b      	ldr	r3, [r7, #4]
 8001528:	681b      	ldr	r3, [r3, #0]
 800152a:	689b      	ldr	r3, [r3, #8]
 800152c:	f003 0303 	and.w	r3, r3, #3
 8001530:	2b01      	cmp	r3, #1
 8001532:	d10f      	bne.n	8001554 <HAL_ADC_ConfigChannel+0x490>
 8001534:	687b      	ldr	r3, [r7, #4]
 8001536:	681b      	ldr	r3, [r3, #0]
 8001538:	681b      	ldr	r3, [r3, #0]
 800153a:	f003 0301 	and.w	r3, r3, #1
 800153e:	2b01      	cmp	r3, #1
 8001540:	d108      	bne.n	8001554 <HAL_ADC_ConfigChannel+0x490>
 8001542:	2301      	movs	r3, #1
 8001544:	e007      	b.n	8001556 <HAL_ADC_ConfigChannel+0x492>
 8001546:	bf00      	nop
 8001548:	83fff000 	.word	0x83fff000
 800154c:	50000300 	.word	0x50000300
 8001550:	50000100 	.word	0x50000100
 8001554:	2300      	movs	r3, #0
 8001556:	2b00      	cmp	r3, #0
 8001558:	d150      	bne.n	80015fc <HAL_ADC_ConfigChannel+0x538>
          ( (tmphadcSharingSameCommonRegister.Instance == NULL)         ||
 800155a:	68fb      	ldr	r3, [r7, #12]
      if ((ADC_IS_ENABLE(hadc) == RESET)                                    &&
 800155c:	2b00      	cmp	r3, #0
 800155e:	d010      	beq.n	8001582 <HAL_ADC_ConfigChannel+0x4be>
            (ADC_IS_ENABLE(&tmphadcSharingSameCommonRegister) == RESET)   )   )
 8001560:	68fb      	ldr	r3, [r7, #12]
 8001562:	689b      	ldr	r3, [r3, #8]
 8001564:	f003 0303 	and.w	r3, r3, #3
 8001568:	2b01      	cmp	r3, #1
 800156a:	d107      	bne.n	800157c <HAL_ADC_ConfigChannel+0x4b8>
 800156c:	68fb      	ldr	r3, [r7, #12]
 800156e:	681b      	ldr	r3, [r3, #0]
 8001570:	f003 0301 	and.w	r3, r3, #1
 8001574:	2b01      	cmp	r3, #1
 8001576:	d101      	bne.n	800157c <HAL_ADC_ConfigChannel+0x4b8>
 8001578:	2301      	movs	r3, #1
 800157a:	e000      	b.n	800157e <HAL_ADC_ConfigChannel+0x4ba>
 800157c:	2300      	movs	r3, #0
          ( (tmphadcSharingSameCommonRegister.Instance == NULL)         ||
 800157e:	2b00      	cmp	r3, #0
 8001580:	d13c      	bne.n	80015fc <HAL_ADC_ConfigChannel+0x538>
      {
        /* If Channel_16 is selected, enable Temp. sensor measurement path    */
        /* Note: Temp. sensor internal channels available on ADC1 only        */
        if ((sConfig->Channel == ADC_CHANNEL_TEMPSENSOR) && (hadc->Instance == ADC1))
 8001582:	683b      	ldr	r3, [r7, #0]
 8001584:	681b      	ldr	r3, [r3, #0]
 8001586:	2b10      	cmp	r3, #16
 8001588:	d11d      	bne.n	80015c6 <HAL_ADC_ConfigChannel+0x502>
 800158a:	687b      	ldr	r3, [r7, #4]
 800158c:	681b      	ldr	r3, [r3, #0]
 800158e:	f1b3 4fa0 	cmp.w	r3, #1342177280	; 0x50000000
 8001592:	d118      	bne.n	80015c6 <HAL_ADC_ConfigChannel+0x502>
        {
          SET_BIT(tmpADC_Common->CCR, ADC_CCR_TSEN);
 8001594:	6dfb      	ldr	r3, [r7, #92]	; 0x5c
 8001596:	689b      	ldr	r3, [r3, #8]
 8001598:	f443 0200 	orr.w	r2, r3, #8388608	; 0x800000
 800159c:	6dfb      	ldr	r3, [r7, #92]	; 0x5c
 800159e:	609a      	str	r2, [r3, #8]
          
          /* Delay for temperature sensor stabilization time */
          /* Compute number of CPU cycles to wait for */
          wait_loop_index = (ADC_TEMPSENSOR_DELAY_US * (SystemCoreClock / 1000000U));
 80015a0:	4b27      	ldr	r3, [pc, #156]	; (8001640 <HAL_ADC_ConfigChannel+0x57c>)
 80015a2:	681b      	ldr	r3, [r3, #0]
 80015a4:	4a27      	ldr	r2, [pc, #156]	; (8001644 <HAL_ADC_ConfigChannel+0x580>)
 80015a6:	fba2 2303 	umull	r2, r3, r2, r3
 80015aa:	0c9a      	lsrs	r2, r3, #18
 80015ac:	4613      	mov	r3, r2
 80015ae:	009b      	lsls	r3, r3, #2
 80015b0:	4413      	add	r3, r2
 80015b2:	005b      	lsls	r3, r3, #1
 80015b4:	60bb      	str	r3, [r7, #8]
          while(wait_loop_index != 0U)
 80015b6:	e002      	b.n	80015be <HAL_ADC_ConfigChannel+0x4fa>
          {
            wait_loop_index--;
 80015b8:	68bb      	ldr	r3, [r7, #8]
 80015ba:	3b01      	subs	r3, #1
 80015bc:	60bb      	str	r3, [r7, #8]
          while(wait_loop_index != 0U)
 80015be:	68bb      	ldr	r3, [r7, #8]
 80015c0:	2b00      	cmp	r3, #0
 80015c2:	d1f9      	bne.n	80015b8 <HAL_ADC_ConfigChannel+0x4f4>
        if ((sConfig->Channel == ADC_CHANNEL_TEMPSENSOR) && (hadc->Instance == ADC1))
 80015c4:	e02e      	b.n	8001624 <HAL_ADC_ConfigChannel+0x560>
          }
        }
        /* If Channel_17 is selected, enable VBAT measurement path            */
        /* Note: VBAT internal channels available on ADC1 only                */
        else if ((sConfig->Channel == ADC_CHANNEL_VBAT) && (hadc->Instance == ADC1))
 80015c6:	683b      	ldr	r3, [r7, #0]
 80015c8:	681b      	ldr	r3, [r3, #0]
 80015ca:	2b11      	cmp	r3, #17
 80015cc:	d10b      	bne.n	80015e6 <HAL_ADC_ConfigChannel+0x522>
 80015ce:	687b      	ldr	r3, [r7, #4]
 80015d0:	681b      	ldr	r3, [r3, #0]
 80015d2:	f1b3 4fa0 	cmp.w	r3, #1342177280	; 0x50000000
 80015d6:	d106      	bne.n	80015e6 <HAL_ADC_ConfigChannel+0x522>
        {
          SET_BIT(tmpADC_Common->CCR, ADC_CCR_VBATEN);
 80015d8:	6dfb      	ldr	r3, [r7, #92]	; 0x5c
 80015da:	689b      	ldr	r3, [r3, #8]
 80015dc:	f043 7280 	orr.w	r2, r3, #16777216	; 0x1000000
 80015e0:	6dfb      	ldr	r3, [r7, #92]	; 0x5c
 80015e2:	609a      	str	r2, [r3, #8]
        if ((sConfig->Channel == ADC_CHANNEL_TEMPSENSOR) && (hadc->Instance == ADC1))
 80015e4:	e01e      	b.n	8001624 <HAL_ADC_ConfigChannel+0x560>
        }
        /* If Channel_18 is selected, enable VREFINT measurement path         */
        /* Note: VrefInt internal channels available on all ADCs, but only    */
        /*       one ADC is allowed to be connected to VrefInt at the same    */
        /*       time.                                                        */
        else if (sConfig->Channel == ADC_CHANNEL_VREFINT)
 80015e6:	683b      	ldr	r3, [r7, #0]
 80015e8:	681b      	ldr	r3, [r3, #0]
 80015ea:	2b12      	cmp	r3, #18
 80015ec:	d11a      	bne.n	8001624 <HAL_ADC_ConfigChannel+0x560>
        {
          SET_BIT(tmpADC_Common->CCR, ADC_CCR_VREFEN);
 80015ee:	6dfb      	ldr	r3, [r7, #92]	; 0x5c
 80015f0:	689b      	ldr	r3, [r3, #8]
 80015f2:	f443 0280 	orr.w	r2, r3, #4194304	; 0x400000
 80015f6:	6dfb      	ldr	r3, [r7, #92]	; 0x5c
 80015f8:	609a      	str	r2, [r3, #8]
        if ((sConfig->Channel == ADC_CHANNEL_TEMPSENSOR) && (hadc->Instance == ADC1))
 80015fa:	e013      	b.n	8001624 <HAL_ADC_ConfigChannel+0x560>
      /* enabled and other ADC of the common group are enabled, internal      */
      /* measurement paths cannot be enabled.                                 */
      else  
      {
        /* Update ADC state machine to error */
        SET_BIT(hadc->State, HAL_ADC_STATE_ERROR_CONFIG);
 80015fc:	687b      	ldr	r3, [r7, #4]
 80015fe:	6c1b      	ldr	r3, [r3, #64]	; 0x40
 8001600:	f043 0220 	orr.w	r2, r3, #32
 8001604:	687b      	ldr	r3, [r7, #4]
 8001606:	641a      	str	r2, [r3, #64]	; 0x40
        
        tmp_hal_status = HAL_ERROR;
 8001608:	2301      	movs	r3, #1
 800160a:	f887 3067 	strb.w	r3, [r7, #103]	; 0x67
 800160e:	e00a      	b.n	8001626 <HAL_ADC_ConfigChannel+0x562>
  /* channel could be done on neither of the channel configuration structure  */
  /* parameters.                                                              */
  else
  {
    /* Update ADC state machine to error */
    SET_BIT(hadc->State, HAL_ADC_STATE_ERROR_CONFIG);
 8001610:	687b      	ldr	r3, [r7, #4]
 8001612:	6c1b      	ldr	r3, [r3, #64]	; 0x40
 8001614:	f043 0220 	orr.w	r2, r3, #32
 8001618:	687b      	ldr	r3, [r7, #4]
 800161a:	641a      	str	r2, [r3, #64]	; 0x40
    
    tmp_hal_status = HAL_ERROR;
 800161c:	2301      	movs	r3, #1
 800161e:	f887 3067 	strb.w	r3, [r7, #103]	; 0x67
 8001622:	e000      	b.n	8001626 <HAL_ADC_ConfigChannel+0x562>
        if ((sConfig->Channel == ADC_CHANNEL_TEMPSENSOR) && (hadc->Instance == ADC1))
 8001624:	bf00      	nop
  }
  
  /* Process unlocked */
  __HAL_UNLOCK(hadc);
 8001626:	687b      	ldr	r3, [r7, #4]
 8001628:	2200      	movs	r2, #0
 800162a:	f883 203c 	strb.w	r2, [r3, #60]	; 0x3c
  
  /* Return function status */
  return tmp_hal_status;
 800162e:	f897 3067 	ldrb.w	r3, [r7, #103]	; 0x67
}
 8001632:	4618      	mov	r0, r3
 8001634:	376c      	adds	r7, #108	; 0x6c
 8001636:	46bd      	mov	sp, r7
 8001638:	f85d 7b04 	ldr.w	r7, [sp], #4
 800163c:	4770      	bx	lr
 800163e:	bf00      	nop
 8001640:	20000000 	.word	0x20000000
 8001644:	431bde83 	.word	0x431bde83

08001648 <HAL_ADCEx_MultiModeConfigChannel>:
  * @param  hadc ADC handle
  * @param  multimode Structure of ADC multimode configuration
  * @retval HAL status
  */
HAL_StatusTypeDef HAL_ADCEx_MultiModeConfigChannel(ADC_HandleTypeDef* hadc, ADC_MultiModeTypeDef* multimode)
{
 8001648:	b480      	push	{r7}
 800164a:	b099      	sub	sp, #100	; 0x64
 800164c:	af00      	add	r7, sp, #0
 800164e:	6078      	str	r0, [r7, #4]
 8001650:	6039      	str	r1, [r7, #0]
  HAL_StatusTypeDef tmp_hal_status = HAL_OK;
 8001652:	2300      	movs	r3, #0
 8001654:	f887 305f 	strb.w	r3, [r7, #95]	; 0x5f
    assert_param(IS_ADC_DMA_ACCESS_MODE(multimode->DMAAccessMode));
    assert_param(IS_ADC_SAMPLING_DELAY(multimode->TwoSamplingDelay));
  }
  
  /* Set handle of the other ADC sharing the same common register             */
  ADC_COMMON_ADC_OTHER(hadc, &tmphadcSharingSameCommonRegister);
 8001658:	687b      	ldr	r3, [r7, #4]
 800165a:	681b      	ldr	r3, [r3, #0]
 800165c:	f1b3 4fa0 	cmp.w	r3, #1342177280	; 0x50000000
 8001660:	d102      	bne.n	8001668 <HAL_ADCEx_MultiModeConfigChannel+0x20>
 8001662:	4b5a      	ldr	r3, [pc, #360]	; (80017cc <HAL_ADCEx_MultiModeConfigChannel+0x184>)
 8001664:	60bb      	str	r3, [r7, #8]
 8001666:	e002      	b.n	800166e <HAL_ADCEx_MultiModeConfigChannel+0x26>
 8001668:	f04f 43a0 	mov.w	r3, #1342177280	; 0x50000000
 800166c:	60bb      	str	r3, [r7, #8]
  if (tmphadcSharingSameCommonRegister.Instance == NULL)
 800166e:	68bb      	ldr	r3, [r7, #8]
 8001670:	2b00      	cmp	r3, #0
 8001672:	d101      	bne.n	8001678 <HAL_ADCEx_MultiModeConfigChannel+0x30>
  {
    /* Return function status */
    return HAL_ERROR;
 8001674:	2301      	movs	r3, #1
 8001676:	e0a2      	b.n	80017be <HAL_ADCEx_MultiModeConfigChannel+0x176>
  }

  /* Process locked */
  __HAL_LOCK(hadc);
 8001678:	687b      	ldr	r3, [r7, #4]
 800167a:	f893 303c 	ldrb.w	r3, [r3, #60]	; 0x3c
 800167e:	2b01      	cmp	r3, #1
 8001680:	d101      	bne.n	8001686 <HAL_ADCEx_MultiModeConfigChannel+0x3e>
 8001682:	2302      	movs	r3, #2
 8001684:	e09b      	b.n	80017be <HAL_ADCEx_MultiModeConfigChannel+0x176>
 8001686:	687b      	ldr	r3, [r7, #4]
 8001688:	2201      	movs	r2, #1
 800168a:	f883 203c 	strb.w	r2, [r3, #60]	; 0x3c
  /* Parameters update conditioned to ADC state:                              */
  /* Parameters that can be updated when ADC is disabled or enabled without   */
  /* conversion on going on regular group:                                    */
  /*  - Multimode DMA configuration                                           */
  /*  - Multimode DMA mode                                                    */
  if ( (ADC_IS_CONVERSION_ONGOING_REGULAR(hadc) == RESET) 
 800168e:	687b      	ldr	r3, [r7, #4]
 8001690:	681b      	ldr	r3, [r3, #0]
 8001692:	689b      	ldr	r3, [r3, #8]
 8001694:	f003 0304 	and.w	r3, r3, #4
 8001698:	2b00      	cmp	r3, #0
 800169a:	d17f      	bne.n	800179c <HAL_ADCEx_MultiModeConfigChannel+0x154>
    && (ADC_IS_CONVERSION_ONGOING_REGULAR(&tmphadcSharingSameCommonRegister) == RESET) )
 800169c:	68bb      	ldr	r3, [r7, #8]
 800169e:	689b      	ldr	r3, [r3, #8]
 80016a0:	f003 0304 	and.w	r3, r3, #4
 80016a4:	2b00      	cmp	r3, #0
 80016a6:	d179      	bne.n	800179c <HAL_ADCEx_MultiModeConfigChannel+0x154>
  {
    /* Pointer to the common control register to which is belonging hadc      */
    /* (Depending on STM32F3 product, there may have up to 4 ADC and 2 common */
    /* control registers)                                                     */
    tmpADC_Common = ADC_COMMON_REGISTER(hadc);
 80016a8:	4b49      	ldr	r3, [pc, #292]	; (80017d0 <HAL_ADCEx_MultiModeConfigChannel+0x188>)
 80016aa:	65bb      	str	r3, [r7, #88]	; 0x58
    
    /* If multimode is selected, configure all multimode paramaters.          */
    /* Otherwise, reset multimode parameters (can be used in case of          */
    /* transition from multimode to independent mode).                        */
    if(multimode->Mode != ADC_MODE_INDEPENDENT)
 80016ac:	683b      	ldr	r3, [r7, #0]
 80016ae:	681b      	ldr	r3, [r3, #0]
 80016b0:	2b00      	cmp	r3, #0
 80016b2:	d040      	beq.n	8001736 <HAL_ADCEx_MultiModeConfigChannel+0xee>
    {
      /* Configuration of ADC common group ADC1&ADC2, ADC3&ADC4 if available    */
      /* (ADC2, ADC3, ADC4 availability depends on STM32 product)               */
      /*  - DMA access mode                                                     */
      MODIFY_REG(tmpADC_Common->CCR                                          ,
 80016b4:	6dbb      	ldr	r3, [r7, #88]	; 0x58
 80016b6:	689b      	ldr	r3, [r3, #8]
 80016b8:	f423 4260 	bic.w	r2, r3, #57344	; 0xe000
 80016bc:	683b      	ldr	r3, [r7, #0]
 80016be:	6859      	ldr	r1, [r3, #4]
 80016c0:	687b      	ldr	r3, [r7, #4]
 80016c2:	f893 3030 	ldrb.w	r3, [r3, #48]	; 0x30
 80016c6:	035b      	lsls	r3, r3, #13
 80016c8:	430b      	orrs	r3, r1
 80016ca:	431a      	orrs	r2, r3
 80016cc:	6dbb      	ldr	r3, [r7, #88]	; 0x58
 80016ce:	609a      	str	r2, [r3, #8]
      /*       parameters, their setting is bypassed without error reporting    */
      /*       (as it can be the expected behaviour in case of intended action  */
      /*       to update parameter above (which fulfills the ADC state          */
      /*       condition: no conversion on going on group regular)              */
      /*       on the fly).                                                     */
      if ((ADC_IS_ENABLE(hadc) == RESET)                              &&
 80016d0:	687b      	ldr	r3, [r7, #4]
 80016d2:	681b      	ldr	r3, [r3, #0]
 80016d4:	689b      	ldr	r3, [r3, #8]
 80016d6:	f003 0303 	and.w	r3, r3, #3
 80016da:	2b01      	cmp	r3, #1
 80016dc:	d108      	bne.n	80016f0 <HAL_ADCEx_MultiModeConfigChannel+0xa8>
 80016de:	687b      	ldr	r3, [r7, #4]
 80016e0:	681b      	ldr	r3, [r3, #0]
 80016e2:	681b      	ldr	r3, [r3, #0]
 80016e4:	f003 0301 	and.w	r3, r3, #1
 80016e8:	2b01      	cmp	r3, #1
 80016ea:	d101      	bne.n	80016f0 <HAL_ADCEx_MultiModeConfigChannel+0xa8>
 80016ec:	2301      	movs	r3, #1
 80016ee:	e000      	b.n	80016f2 <HAL_ADCEx_MultiModeConfigChannel+0xaa>
 80016f0:	2300      	movs	r3, #0
 80016f2:	2b00      	cmp	r3, #0
 80016f4:	d15c      	bne.n	80017b0 <HAL_ADCEx_MultiModeConfigChannel+0x168>
          (ADC_IS_ENABLE(&tmphadcSharingSameCommonRegister) == RESET)   )
 80016f6:	68bb      	ldr	r3, [r7, #8]
 80016f8:	689b      	ldr	r3, [r3, #8]
 80016fa:	f003 0303 	and.w	r3, r3, #3
 80016fe:	2b01      	cmp	r3, #1
 8001700:	d107      	bne.n	8001712 <HAL_ADCEx_MultiModeConfigChannel+0xca>
 8001702:	68bb      	ldr	r3, [r7, #8]
 8001704:	681b      	ldr	r3, [r3, #0]
 8001706:	f003 0301 	and.w	r3, r3, #1
 800170a:	2b01      	cmp	r3, #1
 800170c:	d101      	bne.n	8001712 <HAL_ADCEx_MultiModeConfigChannel+0xca>
 800170e:	2301      	movs	r3, #1
 8001710:	e000      	b.n	8001714 <HAL_ADCEx_MultiModeConfigChannel+0xcc>
 8001712:	2300      	movs	r3, #0
      if ((ADC_IS_ENABLE(hadc) == RESET)                              &&
 8001714:	2b00      	cmp	r3, #0
 8001716:	d14b      	bne.n	80017b0 <HAL_ADCEx_MultiModeConfigChannel+0x168>
      {
        MODIFY_REG(tmpADC_Common->CCR                                          ,
 8001718:	6dbb      	ldr	r3, [r7, #88]	; 0x58
 800171a:	689b      	ldr	r3, [r3, #8]
 800171c:	f423 6371 	bic.w	r3, r3, #3856	; 0xf10
 8001720:	f023 030f 	bic.w	r3, r3, #15
 8001724:	683a      	ldr	r2, [r7, #0]
 8001726:	6811      	ldr	r1, [r2, #0]
 8001728:	683a      	ldr	r2, [r7, #0]
 800172a:	6892      	ldr	r2, [r2, #8]
 800172c:	430a      	orrs	r2, r1
 800172e:	431a      	orrs	r2, r3
 8001730:	6dbb      	ldr	r3, [r7, #88]	; 0x58
 8001732:	609a      	str	r2, [r3, #8]
    if(multimode->Mode != ADC_MODE_INDEPENDENT)
 8001734:	e03c      	b.n	80017b0 <HAL_ADCEx_MultiModeConfigChannel+0x168>
                   multimode->TwoSamplingDelay                                  );
      }
    }
    else /* ADC_MODE_INDEPENDENT */
    {
      CLEAR_BIT(tmpADC_Common->CCR, ADC_CCR_MDMA | ADC_CCR_DMACFG);
 8001736:	6dbb      	ldr	r3, [r7, #88]	; 0x58
 8001738:	689b      	ldr	r3, [r3, #8]
 800173a:	f423 4260 	bic.w	r2, r3, #57344	; 0xe000
 800173e:	6dbb      	ldr	r3, [r7, #88]	; 0x58
 8001740:	609a      	str	r2, [r3, #8]
      
      /* Parameters that can be updated only when ADC is disabled:                */
      /*  - Multimode mode selection                                              */
      /*  - Multimode delay                                                       */
      if ((ADC_IS_ENABLE(hadc) == RESET)                              &&
 8001742:	687b      	ldr	r3, [r7, #4]
 8001744:	681b      	ldr	r3, [r3, #0]
 8001746:	689b      	ldr	r3, [r3, #8]
 8001748:	f003 0303 	and.w	r3, r3, #3
 800174c:	2b01      	cmp	r3, #1
 800174e:	d108      	bne.n	8001762 <HAL_ADCEx_MultiModeConfigChannel+0x11a>
 8001750:	687b      	ldr	r3, [r7, #4]
 8001752:	681b      	ldr	r3, [r3, #0]
 8001754:	681b      	ldr	r3, [r3, #0]
 8001756:	f003 0301 	and.w	r3, r3, #1
 800175a:	2b01      	cmp	r3, #1
 800175c:	d101      	bne.n	8001762 <HAL_ADCEx_MultiModeConfigChannel+0x11a>
 800175e:	2301      	movs	r3, #1
 8001760:	e000      	b.n	8001764 <HAL_ADCEx_MultiModeConfigChannel+0x11c>
 8001762:	2300      	movs	r3, #0
 8001764:	2b00      	cmp	r3, #0
 8001766:	d123      	bne.n	80017b0 <HAL_ADCEx_MultiModeConfigChannel+0x168>
          (ADC_IS_ENABLE(&tmphadcSharingSameCommonRegister) == RESET)   )
 8001768:	68bb      	ldr	r3, [r7, #8]
 800176a:	689b      	ldr	r3, [r3, #8]
 800176c:	f003 0303 	and.w	r3, r3, #3
 8001770:	2b01      	cmp	r3, #1
 8001772:	d107      	bne.n	8001784 <HAL_ADCEx_MultiModeConfigChannel+0x13c>
 8001774:	68bb      	ldr	r3, [r7, #8]
 8001776:	681b      	ldr	r3, [r3, #0]
 8001778:	f003 0301 	and.w	r3, r3, #1
 800177c:	2b01      	cmp	r3, #1
 800177e:	d101      	bne.n	8001784 <HAL_ADCEx_MultiModeConfigChannel+0x13c>
 8001780:	2301      	movs	r3, #1
 8001782:	e000      	b.n	8001786 <HAL_ADCEx_MultiModeConfigChannel+0x13e>
 8001784:	2300      	movs	r3, #0
      if ((ADC_IS_ENABLE(hadc) == RESET)                              &&
 8001786:	2b00      	cmp	r3, #0
 8001788:	d112      	bne.n	80017b0 <HAL_ADCEx_MultiModeConfigChannel+0x168>
      {
        CLEAR_BIT(tmpADC_Common->CCR, ADC_CCR_MULTI | ADC_CCR_DELAY);
 800178a:	6dbb      	ldr	r3, [r7, #88]	; 0x58
 800178c:	689b      	ldr	r3, [r3, #8]
 800178e:	f423 6371 	bic.w	r3, r3, #3856	; 0xf10
 8001792:	f023 030f 	bic.w	r3, r3, #15
 8001796:	6dba      	ldr	r2, [r7, #88]	; 0x58
 8001798:	6093      	str	r3, [r2, #8]
    if(multimode->Mode != ADC_MODE_INDEPENDENT)
 800179a:	e009      	b.n	80017b0 <HAL_ADCEx_MultiModeConfigChannel+0x168>
  /* If one of the ADC sharing the same common group is enabled, no update    */
  /* could be done on neither of the multimode structure parameters.          */
  else
  {
    /* Update ADC state machine to error */
    SET_BIT(hadc->State, HAL_ADC_STATE_ERROR_CONFIG);
 800179c:	687b      	ldr	r3, [r7, #4]
 800179e:	6c1b      	ldr	r3, [r3, #64]	; 0x40
 80017a0:	f043 0220 	orr.w	r2, r3, #32
 80017a4:	687b      	ldr	r3, [r7, #4]
 80017a6:	641a      	str	r2, [r3, #64]	; 0x40
    
    tmp_hal_status = HAL_ERROR;
 80017a8:	2301      	movs	r3, #1
 80017aa:	f887 305f 	strb.w	r3, [r7, #95]	; 0x5f
 80017ae:	e000      	b.n	80017b2 <HAL_ADCEx_MultiModeConfigChannel+0x16a>
    if(multimode->Mode != ADC_MODE_INDEPENDENT)
 80017b0:	bf00      	nop
  }
    
    
  /* Process unlocked */
  __HAL_UNLOCK(hadc);
 80017b2:	687b      	ldr	r3, [r7, #4]
 80017b4:	2200      	movs	r2, #0
 80017b6:	f883 203c 	strb.w	r2, [r3, #60]	; 0x3c
  
  /* Return function status */
  return tmp_hal_status;
 80017ba:	f897 305f 	ldrb.w	r3, [r7, #95]	; 0x5f
} 
 80017be:	4618      	mov	r0, r3
 80017c0:	3764      	adds	r7, #100	; 0x64
 80017c2:	46bd      	mov	sp, r7
 80017c4:	f85d 7b04 	ldr.w	r7, [sp], #4
 80017c8:	4770      	bx	lr
 80017ca:	bf00      	nop
 80017cc:	50000100 	.word	0x50000100
 80017d0:	50000300 	.word	0x50000300

080017d4 <ADC_Enable>:
  *         and voltage regulator must be enabled (done into HAL_ADC_Init()).
  * @param  hadc ADC handle
  * @retval HAL status.
  */
static HAL_StatusTypeDef ADC_Enable(ADC_HandleTypeDef* hadc)
{
 80017d4:	b580      	push	{r7, lr}
 80017d6:	b084      	sub	sp, #16
 80017d8:	af00      	add	r7, sp, #0
 80017da:	6078      	str	r0, [r7, #4]
  uint32_t tickstart = 0U;
 80017dc:	2300      	movs	r3, #0
 80017de:	60fb      	str	r3, [r7, #12]
  
  /* ADC enable and wait for ADC ready (in case of ADC is disabled or         */
  /* enabling phase not yet completed: flag ADC ready not yet set).           */
  /* Timeout implemented to not be stuck if ADC cannot be enabled (possible   */
  /* causes: ADC clock not running, ...).                                     */
  if (ADC_IS_ENABLE(hadc) == RESET)
 80017e0:	687b      	ldr	r3, [r7, #4]
 80017e2:	681b      	ldr	r3, [r3, #0]
 80017e4:	689b      	ldr	r3, [r3, #8]
 80017e6:	f003 0303 	and.w	r3, r3, #3
 80017ea:	2b01      	cmp	r3, #1
 80017ec:	d108      	bne.n	8001800 <ADC_Enable+0x2c>
 80017ee:	687b      	ldr	r3, [r7, #4]
 80017f0:	681b      	ldr	r3, [r3, #0]
 80017f2:	681b      	ldr	r3, [r3, #0]
 80017f4:	f003 0301 	and.w	r3, r3, #1
 80017f8:	2b01      	cmp	r3, #1
 80017fa:	d101      	bne.n	8001800 <ADC_Enable+0x2c>
 80017fc:	2301      	movs	r3, #1
 80017fe:	e000      	b.n	8001802 <ADC_Enable+0x2e>
 8001800:	2300      	movs	r3, #0
 8001802:	2b00      	cmp	r3, #0
 8001804:	d13c      	bne.n	8001880 <ADC_Enable+0xac>
  {
    /* Check if conditions to enable the ADC are fulfilled */
    if (ADC_ENABLING_CONDITIONS(hadc) == RESET)
 8001806:	687b      	ldr	r3, [r7, #4]
 8001808:	681b      	ldr	r3, [r3, #0]
 800180a:	689a      	ldr	r2, [r3, #8]
 800180c:	4b1f      	ldr	r3, [pc, #124]	; (800188c <ADC_Enable+0xb8>)
 800180e:	4013      	ands	r3, r2
 8001810:	2b00      	cmp	r3, #0
 8001812:	d00d      	beq.n	8001830 <ADC_Enable+0x5c>
    {
      /* Update ADC state machine to error */
      SET_BIT(hadc->State, HAL_ADC_STATE_ERROR_INTERNAL);
 8001814:	687b      	ldr	r3, [r7, #4]
 8001816:	6c1b      	ldr	r3, [r3, #64]	; 0x40
 8001818:	f043 0210 	orr.w	r2, r3, #16
 800181c:	687b      	ldr	r3, [r7, #4]
 800181e:	641a      	str	r2, [r3, #64]	; 0x40
      
      /* Set ADC error code to ADC IP internal error */
      SET_BIT(hadc->ErrorCode, HAL_ADC_ERROR_INTERNAL);
 8001820:	687b      	ldr	r3, [r7, #4]
 8001822:	6c5b      	ldr	r3, [r3, #68]	; 0x44
 8001824:	f043 0201 	orr.w	r2, r3, #1
 8001828:	687b      	ldr	r3, [r7, #4]
 800182a:	645a      	str	r2, [r3, #68]	; 0x44
      
      return HAL_ERROR;
 800182c:	2301      	movs	r3, #1
 800182e:	e028      	b.n	8001882 <ADC_Enable+0xae>
    }
    
    /* Enable the ADC peripheral */
    __HAL_ADC_ENABLE(hadc);
 8001830:	687b      	ldr	r3, [r7, #4]
 8001832:	681b      	ldr	r3, [r3, #0]
 8001834:	689a      	ldr	r2, [r3, #8]
 8001836:	687b      	ldr	r3, [r7, #4]
 8001838:	681b      	ldr	r3, [r3, #0]
 800183a:	f042 0201 	orr.w	r2, r2, #1
 800183e:	609a      	str	r2, [r3, #8]
    
    /* Wait for ADC effectively enabled */
    tickstart = HAL_GetTick();  
 8001840:	f7fe ff36 	bl	80006b0 <HAL_GetTick>
 8001844:	60f8      	str	r0, [r7, #12]
    
    while(__HAL_ADC_GET_FLAG(hadc, ADC_FLAG_RDY) == RESET)
 8001846:	e014      	b.n	8001872 <ADC_Enable+0x9e>
    {
      if((HAL_GetTick() - tickstart) > ADC_ENABLE_TIMEOUT)
 8001848:	f7fe ff32 	bl	80006b0 <HAL_GetTick>
 800184c:	4602      	mov	r2, r0
 800184e:	68fb      	ldr	r3, [r7, #12]
 8001850:	1ad3      	subs	r3, r2, r3
 8001852:	2b02      	cmp	r3, #2
 8001854:	d90d      	bls.n	8001872 <ADC_Enable+0x9e>
      {
        /* Update ADC state machine to error */
        SET_BIT(hadc->State, HAL_ADC_STATE_ERROR_INTERNAL);
 8001856:	687b      	ldr	r3, [r7, #4]
 8001858:	6c1b      	ldr	r3, [r3, #64]	; 0x40
 800185a:	f043 0210 	orr.w	r2, r3, #16
 800185e:	687b      	ldr	r3, [r7, #4]
 8001860:	641a      	str	r2, [r3, #64]	; 0x40
        
        /* Set ADC error code to ADC IP internal error */
        SET_BIT(hadc->ErrorCode, HAL_ADC_ERROR_INTERNAL);
 8001862:	687b      	ldr	r3, [r7, #4]
 8001864:	6c5b      	ldr	r3, [r3, #68]	; 0x44
 8001866:	f043 0201 	orr.w	r2, r3, #1
 800186a:	687b      	ldr	r3, [r7, #4]
 800186c:	645a      	str	r2, [r3, #68]	; 0x44
      
        return HAL_ERROR;
 800186e:	2301      	movs	r3, #1
 8001870:	e007      	b.n	8001882 <ADC_Enable+0xae>
    while(__HAL_ADC_GET_FLAG(hadc, ADC_FLAG_RDY) == RESET)
 8001872:	687b      	ldr	r3, [r7, #4]
 8001874:	681b      	ldr	r3, [r3, #0]
 8001876:	681b      	ldr	r3, [r3, #0]
 8001878:	f003 0301 	and.w	r3, r3, #1
 800187c:	2b01      	cmp	r3, #1
 800187e:	d1e3      	bne.n	8001848 <ADC_Enable+0x74>
      }
    }
  }
  
  /* Return HAL status */
  return HAL_OK;
 8001880:	2300      	movs	r3, #0
}
 8001882:	4618      	mov	r0, r3
 8001884:	3710      	adds	r7, #16
 8001886:	46bd      	mov	sp, r7
 8001888:	bd80      	pop	{r7, pc}
 800188a:	bf00      	nop
 800188c:	8000003f 	.word	0x8000003f

08001890 <ADC_Disable>:
  *         stopped.
  * @param  hadc ADC handle
  * @retval HAL status.
  */
static HAL_StatusTypeDef ADC_Disable(ADC_HandleTypeDef* hadc)
{
 8001890:	b580      	push	{r7, lr}
 8001892:	b084      	sub	sp, #16
 8001894:	af00      	add	r7, sp, #0
 8001896:	6078      	str	r0, [r7, #4]
  uint32_t tickstart = 0U;
 8001898:	2300      	movs	r3, #0
 800189a:	60fb      	str	r3, [r7, #12]
  
  /* Verification if ADC is not already disabled:                             */
  /* Note: forbidden to disable ADC (set bit ADC_CR_ADDIS) if ADC is already  */
  /* disabled.                                                                */
  if (ADC_IS_ENABLE(hadc) != RESET )
 800189c:	687b      	ldr	r3, [r7, #4]
 800189e:	681b      	ldr	r3, [r3, #0]
 80018a0:	689b      	ldr	r3, [r3, #8]
 80018a2:	f003 0303 	and.w	r3, r3, #3
 80018a6:	2b01      	cmp	r3, #1
 80018a8:	d108      	bne.n	80018bc <ADC_Disable+0x2c>
 80018aa:	687b      	ldr	r3, [r7, #4]
 80018ac:	681b      	ldr	r3, [r3, #0]
 80018ae:	681b      	ldr	r3, [r3, #0]
 80018b0:	f003 0301 	and.w	r3, r3, #1
 80018b4:	2b01      	cmp	r3, #1
 80018b6:	d101      	bne.n	80018bc <ADC_Disable+0x2c>
 80018b8:	2301      	movs	r3, #1
 80018ba:	e000      	b.n	80018be <ADC_Disable+0x2e>
 80018bc:	2300      	movs	r3, #0
 80018be:	2b00      	cmp	r3, #0
 80018c0:	d040      	beq.n	8001944 <ADC_Disable+0xb4>
  {
    /* Check if conditions to disable the ADC are fulfilled */
    if (ADC_DISABLING_CONDITIONS(hadc) != RESET)
 80018c2:	687b      	ldr	r3, [r7, #4]
 80018c4:	681b      	ldr	r3, [r3, #0]
 80018c6:	689b      	ldr	r3, [r3, #8]
 80018c8:	f003 030d 	and.w	r3, r3, #13
 80018cc:	2b01      	cmp	r3, #1
 80018ce:	d10f      	bne.n	80018f0 <ADC_Disable+0x60>
    {
      /* Disable the ADC peripheral */
      __HAL_ADC_DISABLE(hadc);
 80018d0:	687b      	ldr	r3, [r7, #4]
 80018d2:	681b      	ldr	r3, [r3, #0]
 80018d4:	689a      	ldr	r2, [r3, #8]
 80018d6:	687b      	ldr	r3, [r7, #4]
 80018d8:	681b      	ldr	r3, [r3, #0]
 80018da:	f042 0202 	orr.w	r2, r2, #2
 80018de:	609a      	str	r2, [r3, #8]
 80018e0:	687b      	ldr	r3, [r7, #4]
 80018e2:	681b      	ldr	r3, [r3, #0]
 80018e4:	2203      	movs	r2, #3
 80018e6:	601a      	str	r2, [r3, #0]
      
      return HAL_ERROR;
    }
     
    /* Wait for ADC effectively disabled */
    tickstart = HAL_GetTick();
 80018e8:	f7fe fee2 	bl	80006b0 <HAL_GetTick>
 80018ec:	60f8      	str	r0, [r7, #12]
    
    while(HAL_IS_BIT_SET(hadc->Instance->CR, ADC_CR_ADEN))
 80018ee:	e022      	b.n	8001936 <ADC_Disable+0xa6>
      SET_BIT(hadc->State, HAL_ADC_STATE_ERROR_INTERNAL);
 80018f0:	687b      	ldr	r3, [r7, #4]
 80018f2:	6c1b      	ldr	r3, [r3, #64]	; 0x40
 80018f4:	f043 0210 	orr.w	r2, r3, #16
 80018f8:	687b      	ldr	r3, [r7, #4]
 80018fa:	641a      	str	r2, [r3, #64]	; 0x40
      SET_BIT(hadc->ErrorCode, HAL_ADC_ERROR_INTERNAL);
 80018fc:	687b      	ldr	r3, [r7, #4]
 80018fe:	6c5b      	ldr	r3, [r3, #68]	; 0x44
 8001900:	f043 0201 	orr.w	r2, r3, #1
 8001904:	687b      	ldr	r3, [r7, #4]
 8001906:	645a      	str	r2, [r3, #68]	; 0x44
      return HAL_ERROR;
 8001908:	2301      	movs	r3, #1
 800190a:	e01c      	b.n	8001946 <ADC_Disable+0xb6>
    {
      if((HAL_GetTick() - tickstart) > ADC_DISABLE_TIMEOUT)
 800190c:	f7fe fed0 	bl	80006b0 <HAL_GetTick>
 8001910:	4602      	mov	r2, r0
 8001912:	68fb      	ldr	r3, [r7, #12]
 8001914:	1ad3      	subs	r3, r2, r3
 8001916:	2b02      	cmp	r3, #2
 8001918:	d90d      	bls.n	8001936 <ADC_Disable+0xa6>
      {
        /* Update ADC state machine to error */
        SET_BIT(hadc->State, HAL_ADC_STATE_ERROR_INTERNAL);
 800191a:	687b      	ldr	r3, [r7, #4]
 800191c:	6c1b      	ldr	r3, [r3, #64]	; 0x40
 800191e:	f043 0210 	orr.w	r2, r3, #16
 8001922:	687b      	ldr	r3, [r7, #4]
 8001924:	641a      	str	r2, [r3, #64]	; 0x40
        
        /* Set ADC error code to ADC IP internal error */
        SET_BIT(hadc->ErrorCode, HAL_ADC_ERROR_INTERNAL);
 8001926:	687b      	ldr	r3, [r7, #4]
 8001928:	6c5b      	ldr	r3, [r3, #68]	; 0x44
 800192a:	f043 0201 	orr.w	r2, r3, #1
 800192e:	687b      	ldr	r3, [r7, #4]
 8001930:	645a      	str	r2, [r3, #68]	; 0x44
        
        return HAL_ERROR;
 8001932:	2301      	movs	r3, #1
 8001934:	e007      	b.n	8001946 <ADC_Disable+0xb6>
    while(HAL_IS_BIT_SET(hadc->Instance->CR, ADC_CR_ADEN))
 8001936:	687b      	ldr	r3, [r7, #4]
 8001938:	681b      	ldr	r3, [r3, #0]
 800193a:	689b      	ldr	r3, [r3, #8]
 800193c:	f003 0301 	and.w	r3, r3, #1
 8001940:	2b01      	cmp	r3, #1
 8001942:	d0e3      	beq.n	800190c <ADC_Disable+0x7c>
      }
    }
  }
  
  /* Return HAL status */
  return HAL_OK;
 8001944:	2300      	movs	r3, #0
}
 8001946:	4618      	mov	r0, r3
 8001948:	3710      	adds	r7, #16
 800194a:	46bd      	mov	sp, r7
 800194c:	bd80      	pop	{r7, pc}
	...

08001950 <__NVIC_SetPriorityGrouping>:
           In case of a conflict between priority grouping and available
           priority bits (__NVIC_PRIO_BITS), the smallest possible priority group is set.
  \param [in]      PriorityGroup  Priority grouping field.
 */
__STATIC_INLINE void __NVIC_SetPriorityGrouping(uint32_t PriorityGroup)
{
 8001950:	b480      	push	{r7}
 8001952:	b085      	sub	sp, #20
 8001954:	af00      	add	r7, sp, #0
 8001956:	6078      	str	r0, [r7, #4]
  uint32_t reg_value;
  uint32_t PriorityGroupTmp = (PriorityGroup & (uint32_t)0x07UL);             /* only values 0..7 are used          */
 8001958:	687b      	ldr	r3, [r7, #4]
 800195a:	f003 0307 	and.w	r3, r3, #7
 800195e:	60fb      	str	r3, [r7, #12]

  reg_value  =  SCB->AIRCR;                                                   /* read old register configuration    */
 8001960:	4b0c      	ldr	r3, [pc, #48]	; (8001994 <__NVIC_SetPriorityGrouping+0x44>)
 8001962:	68db      	ldr	r3, [r3, #12]
 8001964:	60bb      	str	r3, [r7, #8]
  reg_value &= ~((uint32_t)(SCB_AIRCR_VECTKEY_Msk | SCB_AIRCR_PRIGROUP_Msk)); /* clear bits to change               */
 8001966:	68ba      	ldr	r2, [r7, #8]
 8001968:	f64f 03ff 	movw	r3, #63743	; 0xf8ff
 800196c:	4013      	ands	r3, r2
 800196e:	60bb      	str	r3, [r7, #8]
  reg_value  =  (reg_value                                   |
                ((uint32_t)0x5FAUL << SCB_AIRCR_VECTKEY_Pos) |
                (PriorityGroupTmp << SCB_AIRCR_PRIGROUP_Pos)  );              /* Insert write key and priority group */
 8001970:	68fb      	ldr	r3, [r7, #12]
 8001972:	021a      	lsls	r2, r3, #8
                ((uint32_t)0x5FAUL << SCB_AIRCR_VECTKEY_Pos) |
 8001974:	68bb      	ldr	r3, [r7, #8]
 8001976:	4313      	orrs	r3, r2
  reg_value  =  (reg_value                                   |
 8001978:	f043 63bf 	orr.w	r3, r3, #100139008	; 0x5f80000
 800197c:	f443 3300 	orr.w	r3, r3, #131072	; 0x20000
 8001980:	60bb      	str	r3, [r7, #8]
  SCB->AIRCR =  reg_value;
 8001982:	4a04      	ldr	r2, [pc, #16]	; (8001994 <__NVIC_SetPriorityGrouping+0x44>)
 8001984:	68bb      	ldr	r3, [r7, #8]
 8001986:	60d3      	str	r3, [r2, #12]
}
 8001988:	bf00      	nop
 800198a:	3714      	adds	r7, #20
 800198c:	46bd      	mov	sp, r7
 800198e:	f85d 7b04 	ldr.w	r7, [sp], #4
 8001992:	4770      	bx	lr
 8001994:	e000ed00 	.word	0xe000ed00

08001998 <__NVIC_GetPriorityGrouping>:
  \brief   Get Priority Grouping
  \details Reads the priority grouping field from the NVIC Interrupt Controller.
  \return                Priority grouping field (SCB->AIRCR [10:8] PRIGROUP field).
 */
__STATIC_INLINE uint32_t __NVIC_GetPriorityGrouping(void)
{
 8001998:	b480      	push	{r7}
 800199a:	af00      	add	r7, sp, #0
  return ((uint32_t)((SCB->AIRCR & SCB_AIRCR_PRIGROUP_Msk) >> SCB_AIRCR_PRIGROUP_Pos));
 800199c:	4b04      	ldr	r3, [pc, #16]	; (80019b0 <__NVIC_GetPriorityGrouping+0x18>)
 800199e:	68db      	ldr	r3, [r3, #12]
 80019a0:	0a1b      	lsrs	r3, r3, #8
 80019a2:	f003 0307 	and.w	r3, r3, #7
}
 80019a6:	4618      	mov	r0, r3
 80019a8:	46bd      	mov	sp, r7
 80019aa:	f85d 7b04 	ldr.w	r7, [sp], #4
 80019ae:	4770      	bx	lr
 80019b0:	e000ed00 	.word	0xe000ed00

080019b4 <__NVIC_EnableIRQ>:
  \details Enables a device specific interrupt in the NVIC interrupt controller.
  \param [in]      IRQn  Device specific interrupt number.
  \note    IRQn must not be negative.
 */
__STATIC_INLINE void __NVIC_EnableIRQ(IRQn_Type IRQn)
{
 80019b4:	b480      	push	{r7}
 80019b6:	b083      	sub	sp, #12
 80019b8:	af00      	add	r7, sp, #0
 80019ba:	4603      	mov	r3, r0
 80019bc:	71fb      	strb	r3, [r7, #7]
  if ((int32_t)(IRQn) >= 0)
 80019be:	f997 3007 	ldrsb.w	r3, [r7, #7]
 80019c2:	2b00      	cmp	r3, #0
 80019c4:	db0b      	blt.n	80019de <__NVIC_EnableIRQ+0x2a>
  {
    NVIC->ISER[(((uint32_t)IRQn) >> 5UL)] = (uint32_t)(1UL << (((uint32_t)IRQn) & 0x1FUL));
 80019c6:	79fb      	ldrb	r3, [r7, #7]
 80019c8:	f003 021f 	and.w	r2, r3, #31
 80019cc:	4907      	ldr	r1, [pc, #28]	; (80019ec <__NVIC_EnableIRQ+0x38>)
 80019ce:	f997 3007 	ldrsb.w	r3, [r7, #7]
 80019d2:	095b      	lsrs	r3, r3, #5
 80019d4:	2001      	movs	r0, #1
 80019d6:	fa00 f202 	lsl.w	r2, r0, r2
 80019da:	f841 2023 	str.w	r2, [r1, r3, lsl #2]
  }
}
 80019de:	bf00      	nop
 80019e0:	370c      	adds	r7, #12
 80019e2:	46bd      	mov	sp, r7
 80019e4:	f85d 7b04 	ldr.w	r7, [sp], #4
 80019e8:	4770      	bx	lr
 80019ea:	bf00      	nop
 80019ec:	e000e100 	.word	0xe000e100

080019f0 <__NVIC_SetPriority>:
  \param [in]      IRQn  Interrupt number.
  \param [in]  priority  Priority to set.
  \note    The priority cannot be set for every processor exception.
 */
__STATIC_INLINE void __NVIC_SetPriority(IRQn_Type IRQn, uint32_t priority)
{
 80019f0:	b480      	push	{r7}
 80019f2:	b083      	sub	sp, #12
 80019f4:	af00      	add	r7, sp, #0
 80019f6:	4603      	mov	r3, r0
 80019f8:	6039      	str	r1, [r7, #0]
 80019fa:	71fb      	strb	r3, [r7, #7]
  if ((int32_t)(IRQn) >= 0)
 80019fc:	f997 3007 	ldrsb.w	r3, [r7, #7]
 8001a00:	2b00      	cmp	r3, #0
 8001a02:	db0a      	blt.n	8001a1a <__NVIC_SetPriority+0x2a>
  {
    NVIC->IP[((uint32_t)IRQn)]               = (uint8_t)((priority << (8U - __NVIC_PRIO_BITS)) & (uint32_t)0xFFUL);
 8001a04:	683b      	ldr	r3, [r7, #0]
 8001a06:	b2da      	uxtb	r2, r3
 8001a08:	490c      	ldr	r1, [pc, #48]	; (8001a3c <__NVIC_SetPriority+0x4c>)
 8001a0a:	f997 3007 	ldrsb.w	r3, [r7, #7]
 8001a0e:	0112      	lsls	r2, r2, #4
 8001a10:	b2d2      	uxtb	r2, r2
 8001a12:	440b      	add	r3, r1
 8001a14:	f883 2300 	strb.w	r2, [r3, #768]	; 0x300
  }
  else
  {
    SCB->SHP[(((uint32_t)IRQn) & 0xFUL)-4UL] = (uint8_t)((priority << (8U - __NVIC_PRIO_BITS)) & (uint32_t)0xFFUL);
  }
}
 8001a18:	e00a      	b.n	8001a30 <__NVIC_SetPriority+0x40>
    SCB->SHP[(((uint32_t)IRQn) & 0xFUL)-4UL] = (uint8_t)((priority << (8U - __NVIC_PRIO_BITS)) & (uint32_t)0xFFUL);
 8001a1a:	683b      	ldr	r3, [r7, #0]
 8001a1c:	b2da      	uxtb	r2, r3
 8001a1e:	4908      	ldr	r1, [pc, #32]	; (8001a40 <__NVIC_SetPriority+0x50>)
 8001a20:	79fb      	ldrb	r3, [r7, #7]
 8001a22:	f003 030f 	and.w	r3, r3, #15
 8001a26:	3b04      	subs	r3, #4
 8001a28:	0112      	lsls	r2, r2, #4
 8001a2a:	b2d2      	uxtb	r2, r2
 8001a2c:	440b      	add	r3, r1
 8001a2e:	761a      	strb	r2, [r3, #24]
}
 8001a30:	bf00      	nop
 8001a32:	370c      	adds	r7, #12
 8001a34:	46bd      	mov	sp, r7
 8001a36:	f85d 7b04 	ldr.w	r7, [sp], #4
 8001a3a:	4770      	bx	lr
 8001a3c:	e000e100 	.word	0xe000e100
 8001a40:	e000ed00 	.word	0xe000ed00

08001a44 <NVIC_EncodePriority>:
  \param [in]   PreemptPriority  Preemptive priority value (starting from 0).
  \param [in]       SubPriority  Subpriority value (starting from 0).
  \return                        Encoded priority. Value can be used in the function \ref NVIC_SetPriority().
 */
__STATIC_INLINE uint32_t NVIC_EncodePriority (uint32_t PriorityGroup, uint32_t PreemptPriority, uint32_t SubPriority)
{
 8001a44:	b480      	push	{r7}
 8001a46:	b089      	sub	sp, #36	; 0x24
 8001a48:	af00      	add	r7, sp, #0
 8001a4a:	60f8      	str	r0, [r7, #12]
 8001a4c:	60b9      	str	r1, [r7, #8]
 8001a4e:	607a      	str	r2, [r7, #4]
  uint32_t PriorityGroupTmp = (PriorityGroup & (uint32_t)0x07UL);   /* only values 0..7 are used          */
 8001a50:	68fb      	ldr	r3, [r7, #12]
 8001a52:	f003 0307 	and.w	r3, r3, #7
 8001a56:	61fb      	str	r3, [r7, #28]
  uint32_t PreemptPriorityBits;
  uint32_t SubPriorityBits;

  PreemptPriorityBits = ((7UL - PriorityGroupTmp) > (uint32_t)(__NVIC_PRIO_BITS)) ? (uint32_t)(__NVIC_PRIO_BITS) : (uint32_t)(7UL - PriorityGroupTmp);
 8001a58:	69fb      	ldr	r3, [r7, #28]
 8001a5a:	f1c3 0307 	rsb	r3, r3, #7
 8001a5e:	2b04      	cmp	r3, #4
 8001a60:	bf28      	it	cs
 8001a62:	2304      	movcs	r3, #4
 8001a64:	61bb      	str	r3, [r7, #24]
  SubPriorityBits     = ((PriorityGroupTmp + (uint32_t)(__NVIC_PRIO_BITS)) < (uint32_t)7UL) ? (uint32_t)0UL : (uint32_t)((PriorityGroupTmp - 7UL) + (uint32_t)(__NVIC_PRIO_BITS));
 8001a66:	69fb      	ldr	r3, [r7, #28]
 8001a68:	3304      	adds	r3, #4
 8001a6a:	2b06      	cmp	r3, #6
 8001a6c:	d902      	bls.n	8001a74 <NVIC_EncodePriority+0x30>
 8001a6e:	69fb      	ldr	r3, [r7, #28]
 8001a70:	3b03      	subs	r3, #3
 8001a72:	e000      	b.n	8001a76 <NVIC_EncodePriority+0x32>
 8001a74:	2300      	movs	r3, #0
 8001a76:	617b      	str	r3, [r7, #20]

  return (
           ((PreemptPriority & (uint32_t)((1UL << (PreemptPriorityBits)) - 1UL)) << SubPriorityBits) |
 8001a78:	f04f 32ff 	mov.w	r2, #4294967295
 8001a7c:	69bb      	ldr	r3, [r7, #24]
 8001a7e:	fa02 f303 	lsl.w	r3, r2, r3
 8001a82:	43da      	mvns	r2, r3
 8001a84:	68bb      	ldr	r3, [r7, #8]
 8001a86:	401a      	ands	r2, r3
 8001a88:	697b      	ldr	r3, [r7, #20]
 8001a8a:	409a      	lsls	r2, r3
           ((SubPriority     & (uint32_t)((1UL << (SubPriorityBits    )) - 1UL)))
 8001a8c:	f04f 31ff 	mov.w	r1, #4294967295
 8001a90:	697b      	ldr	r3, [r7, #20]
 8001a92:	fa01 f303 	lsl.w	r3, r1, r3
 8001a96:	43d9      	mvns	r1, r3
 8001a98:	687b      	ldr	r3, [r7, #4]
 8001a9a:	400b      	ands	r3, r1
           ((PreemptPriority & (uint32_t)((1UL << (PreemptPriorityBits)) - 1UL)) << SubPriorityBits) |
 8001a9c:	4313      	orrs	r3, r2
         );
}
 8001a9e:	4618      	mov	r0, r3
 8001aa0:	3724      	adds	r7, #36	; 0x24
 8001aa2:	46bd      	mov	sp, r7
 8001aa4:	f85d 7b04 	ldr.w	r7, [sp], #4
 8001aa8:	4770      	bx	lr
	...

08001aac <SysTick_Config>:
  \note    When the variable <b>__Vendor_SysTickConfig</b> is set to 1, then the
           function <b>SysTick_Config</b> is not included. In this case, the file <b><i>device</i>.h</b>
           must contain a vendor-specific implementation of this function.
 */
__STATIC_INLINE uint32_t SysTick_Config(uint32_t ticks)
{
 8001aac:	b580      	push	{r7, lr}
 8001aae:	b082      	sub	sp, #8
 8001ab0:	af00      	add	r7, sp, #0
 8001ab2:	6078      	str	r0, [r7, #4]
  if ((ticks - 1UL) > SysTick_LOAD_RELOAD_Msk)
 8001ab4:	687b      	ldr	r3, [r7, #4]
 8001ab6:	3b01      	subs	r3, #1
 8001ab8:	f1b3 7f80 	cmp.w	r3, #16777216	; 0x1000000
 8001abc:	d301      	bcc.n	8001ac2 <SysTick_Config+0x16>
  {
    return (1UL);                                                   /* Reload value impossible */
 8001abe:	2301      	movs	r3, #1
 8001ac0:	e00f      	b.n	8001ae2 <SysTick_Config+0x36>
  }

  SysTick->LOAD  = (uint32_t)(ticks - 1UL);                         /* set reload register */
 8001ac2:	4a0a      	ldr	r2, [pc, #40]	; (8001aec <SysTick_Config+0x40>)
 8001ac4:	687b      	ldr	r3, [r7, #4]
 8001ac6:	3b01      	subs	r3, #1
 8001ac8:	6053      	str	r3, [r2, #4]
  NVIC_SetPriority (SysTick_IRQn, (1UL << __NVIC_PRIO_BITS) - 1UL); /* set Priority for Systick Interrupt */
 8001aca:	210f      	movs	r1, #15
 8001acc:	f04f 30ff 	mov.w	r0, #4294967295
 8001ad0:	f7ff ff8e 	bl	80019f0 <__NVIC_SetPriority>
  SysTick->VAL   = 0UL;                                             /* Load the SysTick Counter Value */
 8001ad4:	4b05      	ldr	r3, [pc, #20]	; (8001aec <SysTick_Config+0x40>)
 8001ad6:	2200      	movs	r2, #0
 8001ad8:	609a      	str	r2, [r3, #8]
  SysTick->CTRL  = SysTick_CTRL_CLKSOURCE_Msk |
 8001ada:	4b04      	ldr	r3, [pc, #16]	; (8001aec <SysTick_Config+0x40>)
 8001adc:	2207      	movs	r2, #7
 8001ade:	601a      	str	r2, [r3, #0]
                   SysTick_CTRL_TICKINT_Msk   |
                   SysTick_CTRL_ENABLE_Msk;                         /* Enable SysTick IRQ and SysTick Timer */
  return (0UL);                                                     /* Function successful */
 8001ae0:	2300      	movs	r3, #0
}
 8001ae2:	4618      	mov	r0, r3
 8001ae4:	3708      	adds	r7, #8
 8001ae6:	46bd      	mov	sp, r7
 8001ae8:	bd80      	pop	{r7, pc}
 8001aea:	bf00      	nop
 8001aec:	e000e010 	.word	0xe000e010

08001af0 <HAL_NVIC_SetPriorityGrouping>:
  * @note   When the NVIC_PriorityGroup_0 is selected, IRQ pre-emption is no more possible.
  *         The pending IRQ priority will be managed only by the subpriority.
  * @retval None
  */
void HAL_NVIC_SetPriorityGrouping(uint32_t PriorityGroup)
{
 8001af0:	b580      	push	{r7, lr}
 8001af2:	b082      	sub	sp, #8
 8001af4:	af00      	add	r7, sp, #0
 8001af6:	6078      	str	r0, [r7, #4]
  /* Check the parameters */
  assert_param(IS_NVIC_PRIORITY_GROUP(PriorityGroup));

  /* Set the PRIGROUP[10:8] bits according to the PriorityGroup parameter value */
  NVIC_SetPriorityGrouping(PriorityGroup);
 8001af8:	6878      	ldr	r0, [r7, #4]
 8001afa:	f7ff ff29 	bl	8001950 <__NVIC_SetPriorityGrouping>
}
 8001afe:	bf00      	nop
 8001b00:	3708      	adds	r7, #8
 8001b02:	46bd      	mov	sp, r7
 8001b04:	bd80      	pop	{r7, pc}

08001b06 <HAL_NVIC_SetPriority>:
  *         This parameter can be a value between 0 and 15 as described in the table CORTEX_NVIC_Priority_Table
  *         A lower priority value indicates a higher priority.
  * @retval None
  */
void HAL_NVIC_SetPriority(IRQn_Type IRQn, uint32_t PreemptPriority, uint32_t SubPriority)
{
 8001b06:	b580      	push	{r7, lr}
 8001b08:	b086      	sub	sp, #24
 8001b0a:	af00      	add	r7, sp, #0
 8001b0c:	4603      	mov	r3, r0
 8001b0e:	60b9      	str	r1, [r7, #8]
 8001b10:	607a      	str	r2, [r7, #4]
 8001b12:	73fb      	strb	r3, [r7, #15]
  uint32_t prioritygroup = 0x00U;
 8001b14:	2300      	movs	r3, #0
 8001b16:	617b      	str	r3, [r7, #20]
  
  /* Check the parameters */
  assert_param(IS_NVIC_SUB_PRIORITY(SubPriority));
  assert_param(IS_NVIC_PREEMPTION_PRIORITY(PreemptPriority));
  
  prioritygroup = NVIC_GetPriorityGrouping();
 8001b18:	f7ff ff3e 	bl	8001998 <__NVIC_GetPriorityGrouping>
 8001b1c:	6178      	str	r0, [r7, #20]
  
  NVIC_SetPriority(IRQn, NVIC_EncodePriority(prioritygroup, PreemptPriority, SubPriority));
 8001b1e:	687a      	ldr	r2, [r7, #4]
 8001b20:	68b9      	ldr	r1, [r7, #8]
 8001b22:	6978      	ldr	r0, [r7, #20]
 8001b24:	f7ff ff8e 	bl	8001a44 <NVIC_EncodePriority>
 8001b28:	4602      	mov	r2, r0
 8001b2a:	f997 300f 	ldrsb.w	r3, [r7, #15]
 8001b2e:	4611      	mov	r1, r2
 8001b30:	4618      	mov	r0, r3
 8001b32:	f7ff ff5d 	bl	80019f0 <__NVIC_SetPriority>
}
 8001b36:	bf00      	nop
 8001b38:	3718      	adds	r7, #24
 8001b3a:	46bd      	mov	sp, r7
 8001b3c:	bd80      	pop	{r7, pc}

08001b3e <HAL_NVIC_EnableIRQ>:
  *         This parameter can be an enumerator of IRQn_Type enumeration
  *         (For the complete STM32 Devices IRQ Channels list, please refer to the appropriate CMSIS device file (stm32f3xxxx.h))
  * @retval None
  */
void HAL_NVIC_EnableIRQ(IRQn_Type IRQn)
{
 8001b3e:	b580      	push	{r7, lr}
 8001b40:	b082      	sub	sp, #8
 8001b42:	af00      	add	r7, sp, #0
 8001b44:	4603      	mov	r3, r0
 8001b46:	71fb      	strb	r3, [r7, #7]
  /* Check the parameters */
  assert_param(IS_NVIC_DEVICE_IRQ(IRQn));
  
  /* Enable interrupt */
  NVIC_EnableIRQ(IRQn);
 8001b48:	f997 3007 	ldrsb.w	r3, [r7, #7]
 8001b4c:	4618      	mov	r0, r3
 8001b4e:	f7ff ff31 	bl	80019b4 <__NVIC_EnableIRQ>
}
 8001b52:	bf00      	nop
 8001b54:	3708      	adds	r7, #8
 8001b56:	46bd      	mov	sp, r7
 8001b58:	bd80      	pop	{r7, pc}

08001b5a <HAL_SYSTICK_Config>:
  * @param  TicksNumb Specifies the ticks Number of ticks between two interrupts.
  * @retval status:  - 0  Function succeeded.
  *                  - 1  Function failed.
  */
uint32_t HAL_SYSTICK_Config(uint32_t TicksNumb)
{
 8001b5a:	b580      	push	{r7, lr}
 8001b5c:	b082      	sub	sp, #8
 8001b5e:	af00      	add	r7, sp, #0
 8001b60:	6078      	str	r0, [r7, #4]
   return SysTick_Config(TicksNumb);
 8001b62:	6878      	ldr	r0, [r7, #4]
 8001b64:	f7ff ffa2 	bl	8001aac <SysTick_Config>
 8001b68:	4603      	mov	r3, r0
}
 8001b6a:	4618      	mov	r0, r3
 8001b6c:	3708      	adds	r7, #8
 8001b6e:	46bd      	mov	sp, r7
 8001b70:	bd80      	pop	{r7, pc}
	...

08001b74 <HAL_GPIO_Init>:
  * @param  GPIO_Init pointer to a GPIO_InitTypeDef structure that contains
  *         the configuration information for the specified GPIO peripheral.
  * @retval None
  */
void HAL_GPIO_Init(GPIO_TypeDef  *GPIOx, GPIO_InitTypeDef *GPIO_Init)
{
 8001b74:	b480      	push	{r7}
 8001b76:	b087      	sub	sp, #28
 8001b78:	af00      	add	r7, sp, #0
 8001b7a:	6078      	str	r0, [r7, #4]
 8001b7c:	6039      	str	r1, [r7, #0]
  uint32_t position = 0x00u;
 8001b7e:	2300      	movs	r3, #0
 8001b80:	617b      	str	r3, [r7, #20]
  assert_param(IS_GPIO_PIN(GPIO_Init->Pin));
  assert_param(IS_GPIO_MODE(GPIO_Init->Mode));
  assert_param(IS_GPIO_PULL(GPIO_Init->Pull));

  /* Configure the port pins */
  while (((GPIO_Init->Pin) >> position) != 0x00u)
 8001b82:	e14e      	b.n	8001e22 <HAL_GPIO_Init+0x2ae>
  {
    /* Get current io position */
    iocurrent = (GPIO_Init->Pin) & (1uL << position);
 8001b84:	683b      	ldr	r3, [r7, #0]
 8001b86:	681a      	ldr	r2, [r3, #0]
 8001b88:	2101      	movs	r1, #1
 8001b8a:	697b      	ldr	r3, [r7, #20]
 8001b8c:	fa01 f303 	lsl.w	r3, r1, r3
 8001b90:	4013      	ands	r3, r2
 8001b92:	60fb      	str	r3, [r7, #12]

    if (iocurrent != 0x00u)
 8001b94:	68fb      	ldr	r3, [r7, #12]
 8001b96:	2b00      	cmp	r3, #0
 8001b98:	f000 8140 	beq.w	8001e1c <HAL_GPIO_Init+0x2a8>
    {
      /*--------------------- GPIO Mode Configuration ------------------------*/
      /* In case of Alternate function mode selection */
      if((GPIO_Init->Mode == GPIO_MODE_AF_PP) || (GPIO_Init->Mode == GPIO_MODE_AF_OD))
 8001b9c:	683b      	ldr	r3, [r7, #0]
 8001b9e:	685b      	ldr	r3, [r3, #4]
 8001ba0:	2b02      	cmp	r3, #2
 8001ba2:	d003      	beq.n	8001bac <HAL_GPIO_Init+0x38>
 8001ba4:	683b      	ldr	r3, [r7, #0]
 8001ba6:	685b      	ldr	r3, [r3, #4]
 8001ba8:	2b12      	cmp	r3, #18
 8001baa:	d123      	bne.n	8001bf4 <HAL_GPIO_Init+0x80>
        /* Check the Alternate function parameters */
        assert_param(IS_GPIO_AF_INSTANCE(GPIOx));
        assert_param(IS_GPIO_AF(GPIO_Init->Alternate));

        /* Configure Alternate function mapped with the current IO */
        temp = GPIOx->AFR[position >> 3u];
 8001bac:	697b      	ldr	r3, [r7, #20]
 8001bae:	08da      	lsrs	r2, r3, #3
 8001bb0:	687b      	ldr	r3, [r7, #4]
 8001bb2:	3208      	adds	r2, #8
 8001bb4:	f853 3022 	ldr.w	r3, [r3, r2, lsl #2]
 8001bb8:	613b      	str	r3, [r7, #16]
        temp &= ~(0xFu << ((position & 0x07u) * 4u));
 8001bba:	697b      	ldr	r3, [r7, #20]
 8001bbc:	f003 0307 	and.w	r3, r3, #7
 8001bc0:	009b      	lsls	r3, r3, #2
 8001bc2:	220f      	movs	r2, #15
 8001bc4:	fa02 f303 	lsl.w	r3, r2, r3
 8001bc8:	43db      	mvns	r3, r3
 8001bca:	693a      	ldr	r2, [r7, #16]
 8001bcc:	4013      	ands	r3, r2
 8001bce:	613b      	str	r3, [r7, #16]
        temp |= ((GPIO_Init->Alternate) << ((position & 0x07u) * 4u));
 8001bd0:	683b      	ldr	r3, [r7, #0]
 8001bd2:	691a      	ldr	r2, [r3, #16]
 8001bd4:	697b      	ldr	r3, [r7, #20]
 8001bd6:	f003 0307 	and.w	r3, r3, #7
 8001bda:	009b      	lsls	r3, r3, #2
 8001bdc:	fa02 f303 	lsl.w	r3, r2, r3
 8001be0:	693a      	ldr	r2, [r7, #16]
 8001be2:	4313      	orrs	r3, r2
 8001be4:	613b      	str	r3, [r7, #16]
        GPIOx->AFR[position >> 3u] = temp;
 8001be6:	697b      	ldr	r3, [r7, #20]
 8001be8:	08da      	lsrs	r2, r3, #3
 8001bea:	687b      	ldr	r3, [r7, #4]
 8001bec:	3208      	adds	r2, #8
 8001bee:	6939      	ldr	r1, [r7, #16]
 8001bf0:	f843 1022 	str.w	r1, [r3, r2, lsl #2]
      }

      /* Configure IO Direction mode (Input, Output, Alternate or Analog) */
      temp = GPIOx->MODER;
 8001bf4:	687b      	ldr	r3, [r7, #4]
 8001bf6:	681b      	ldr	r3, [r3, #0]
 8001bf8:	613b      	str	r3, [r7, #16]
      temp &= ~(GPIO_MODER_MODER0 << (position * 2u));
 8001bfa:	697b      	ldr	r3, [r7, #20]
 8001bfc:	005b      	lsls	r3, r3, #1
 8001bfe:	2203      	movs	r2, #3
 8001c00:	fa02 f303 	lsl.w	r3, r2, r3
 8001c04:	43db      	mvns	r3, r3
 8001c06:	693a      	ldr	r2, [r7, #16]
 8001c08:	4013      	ands	r3, r2
 8001c0a:	613b      	str	r3, [r7, #16]
      temp |= ((GPIO_Init->Mode & GPIO_MODE) << (position * 2u));
 8001c0c:	683b      	ldr	r3, [r7, #0]
 8001c0e:	685b      	ldr	r3, [r3, #4]
 8001c10:	f003 0203 	and.w	r2, r3, #3
 8001c14:	697b      	ldr	r3, [r7, #20]
 8001c16:	005b      	lsls	r3, r3, #1
 8001c18:	fa02 f303 	lsl.w	r3, r2, r3
 8001c1c:	693a      	ldr	r2, [r7, #16]
 8001c1e:	4313      	orrs	r3, r2
 8001c20:	613b      	str	r3, [r7, #16]
      GPIOx->MODER = temp;
 8001c22:	687b      	ldr	r3, [r7, #4]
 8001c24:	693a      	ldr	r2, [r7, #16]
 8001c26:	601a      	str	r2, [r3, #0]

      /* In case of Output or Alternate function mode selection */
      if((GPIO_Init->Mode == GPIO_MODE_OUTPUT_PP) || (GPIO_Init->Mode == GPIO_MODE_AF_PP) ||
 8001c28:	683b      	ldr	r3, [r7, #0]
 8001c2a:	685b      	ldr	r3, [r3, #4]
 8001c2c:	2b01      	cmp	r3, #1
 8001c2e:	d00b      	beq.n	8001c48 <HAL_GPIO_Init+0xd4>
 8001c30:	683b      	ldr	r3, [r7, #0]
 8001c32:	685b      	ldr	r3, [r3, #4]
 8001c34:	2b02      	cmp	r3, #2
 8001c36:	d007      	beq.n	8001c48 <HAL_GPIO_Init+0xd4>
         (GPIO_Init->Mode == GPIO_MODE_OUTPUT_OD) || (GPIO_Init->Mode == GPIO_MODE_AF_OD))
 8001c38:	683b      	ldr	r3, [r7, #0]
 8001c3a:	685b      	ldr	r3, [r3, #4]
      if((GPIO_Init->Mode == GPIO_MODE_OUTPUT_PP) || (GPIO_Init->Mode == GPIO_MODE_AF_PP) ||
 8001c3c:	2b11      	cmp	r3, #17
 8001c3e:	d003      	beq.n	8001c48 <HAL_GPIO_Init+0xd4>
         (GPIO_Init->Mode == GPIO_MODE_OUTPUT_OD) || (GPIO_Init->Mode == GPIO_MODE_AF_OD))
 8001c40:	683b      	ldr	r3, [r7, #0]
 8001c42:	685b      	ldr	r3, [r3, #4]
 8001c44:	2b12      	cmp	r3, #18
 8001c46:	d130      	bne.n	8001caa <HAL_GPIO_Init+0x136>
      {
        /* Check the Speed parameter */
        assert_param(IS_GPIO_SPEED(GPIO_Init->Speed));
        /* Configure the IO Speed */
        temp = GPIOx->OSPEEDR;
 8001c48:	687b      	ldr	r3, [r7, #4]
 8001c4a:	689b      	ldr	r3, [r3, #8]
 8001c4c:	613b      	str	r3, [r7, #16]
        temp &= ~(GPIO_OSPEEDER_OSPEEDR0 << (position * 2u));
 8001c4e:	697b      	ldr	r3, [r7, #20]
 8001c50:	005b      	lsls	r3, r3, #1
 8001c52:	2203      	movs	r2, #3
 8001c54:	fa02 f303 	lsl.w	r3, r2, r3
 8001c58:	43db      	mvns	r3, r3
 8001c5a:	693a      	ldr	r2, [r7, #16]
 8001c5c:	4013      	ands	r3, r2
 8001c5e:	613b      	str	r3, [r7, #16]
        temp |= (GPIO_Init->Speed << (position * 2u));
 8001c60:	683b      	ldr	r3, [r7, #0]
 8001c62:	68da      	ldr	r2, [r3, #12]
 8001c64:	697b      	ldr	r3, [r7, #20]
 8001c66:	005b      	lsls	r3, r3, #1
 8001c68:	fa02 f303 	lsl.w	r3, r2, r3
 8001c6c:	693a      	ldr	r2, [r7, #16]
 8001c6e:	4313      	orrs	r3, r2
 8001c70:	613b      	str	r3, [r7, #16]
        GPIOx->OSPEEDR = temp;
 8001c72:	687b      	ldr	r3, [r7, #4]
 8001c74:	693a      	ldr	r2, [r7, #16]
 8001c76:	609a      	str	r2, [r3, #8]

        /* Configure the IO Output Type */
        temp = GPIOx->OTYPER;
 8001c78:	687b      	ldr	r3, [r7, #4]
 8001c7a:	685b      	ldr	r3, [r3, #4]
 8001c7c:	613b      	str	r3, [r7, #16]
        temp &= ~(GPIO_OTYPER_OT_0 << position) ;
 8001c7e:	2201      	movs	r2, #1
 8001c80:	697b      	ldr	r3, [r7, #20]
 8001c82:	fa02 f303 	lsl.w	r3, r2, r3
 8001c86:	43db      	mvns	r3, r3
 8001c88:	693a      	ldr	r2, [r7, #16]
 8001c8a:	4013      	ands	r3, r2
 8001c8c:	613b      	str	r3, [r7, #16]
        temp |= (((GPIO_Init->Mode & GPIO_OUTPUT_TYPE) >> 4u) << position);
 8001c8e:	683b      	ldr	r3, [r7, #0]
 8001c90:	685b      	ldr	r3, [r3, #4]
 8001c92:	091b      	lsrs	r3, r3, #4
 8001c94:	f003 0201 	and.w	r2, r3, #1
 8001c98:	697b      	ldr	r3, [r7, #20]
 8001c9a:	fa02 f303 	lsl.w	r3, r2, r3
 8001c9e:	693a      	ldr	r2, [r7, #16]
 8001ca0:	4313      	orrs	r3, r2
 8001ca2:	613b      	str	r3, [r7, #16]
        GPIOx->OTYPER = temp;
 8001ca4:	687b      	ldr	r3, [r7, #4]
 8001ca6:	693a      	ldr	r2, [r7, #16]
 8001ca8:	605a      	str	r2, [r3, #4]
      }

      /* Activate the Pull-up or Pull down resistor for the current IO */
      temp = GPIOx->PUPDR;
 8001caa:	687b      	ldr	r3, [r7, #4]
 8001cac:	68db      	ldr	r3, [r3, #12]
 8001cae:	613b      	str	r3, [r7, #16]
      temp &= ~(GPIO_PUPDR_PUPDR0 << (position * 2u));
 8001cb0:	697b      	ldr	r3, [r7, #20]
 8001cb2:	005b      	lsls	r3, r3, #1
 8001cb4:	2203      	movs	r2, #3
 8001cb6:	fa02 f303 	lsl.w	r3, r2, r3
 8001cba:	43db      	mvns	r3, r3
 8001cbc:	693a      	ldr	r2, [r7, #16]
 8001cbe:	4013      	ands	r3, r2
 8001cc0:	613b      	str	r3, [r7, #16]
      temp |= ((GPIO_Init->Pull) << (position * 2u));
 8001cc2:	683b      	ldr	r3, [r7, #0]
 8001cc4:	689a      	ldr	r2, [r3, #8]
 8001cc6:	697b      	ldr	r3, [r7, #20]
 8001cc8:	005b      	lsls	r3, r3, #1
 8001cca:	fa02 f303 	lsl.w	r3, r2, r3
 8001cce:	693a      	ldr	r2, [r7, #16]
 8001cd0:	4313      	orrs	r3, r2
 8001cd2:	613b      	str	r3, [r7, #16]
      GPIOx->PUPDR = temp;
